{
	"contracts/asignacion.sol": {
		"OperatorAsignacion": {
			"abi": [
				{
					"inputs": [],
					"name": "division",
					"outputs": [],
					"stateMutability": "nonpayable",
					"type": "function"
				},
				{
					"inputs": [],
					"name": "modulo",
					"outputs": [],
					"stateMutability": "nonpayable",
					"type": "function"
				},
				{
					"inputs": [],
					"name": "multiplicacion",
					"outputs": [],
					"stateMutability": "nonpayable",
					"type": "function"
				},
				{
					"inputs": [],
					"name": "numero",
					"outputs": [
						{
							"internalType": "uint256",
							"name": "",
							"type": "uint256"
						}
					],
					"stateMutability": "view",
					"type": "function"
				},
				{
					"inputs": [],
					"name": "reset",
					"outputs": [],
					"stateMutability": "nonpayable",
					"type": "function"
				},
				{
					"inputs": [],
					"name": "resta",
					"outputs": [],
					"stateMutability": "nonpayable",
					"type": "function"
				},
				{
					"inputs": [],
					"name": "simpleAsignacion",
					"outputs": [],
					"stateMutability": "nonpayable",
					"type": "function"
				},
				{
					"inputs": [],
					"name": "suma",
					"outputs": [],
					"stateMutability": "nonpayable",
					"type": "function"
				}
			],
			"devdoc": {
				"kind": "dev",
				"methods": {},
				"version": 1
			},
			"evm": {
				"assembly": "    /* \"contracts/asignacion.sol\":61:612  contract OperatorAsignacion {... */\n  mstore(0x40, 0x80)\n    /* \"contracts/asignacion.sol\":144:146  60 */\n  0x3c\n    /* \"contracts/asignacion.sol\":123:146  uint public numero = 60 */\n  0x00\n  sstore\n    /* \"contracts/asignacion.sol\":61:612  contract OperatorAsignacion {... */\n  callvalue\n  dup1\n  iszero\n  tag_1\n  jumpi\n  0x00\n  dup1\n  revert\ntag_1:\n  pop\n  dataSize(sub_0)\n  dup1\n  dataOffset(sub_0)\n  0x00\n  codecopy\n  0x00\n  return\nstop\n\nsub_0: assembly {\n        /* \"contracts/asignacion.sol\":61:612  contract OperatorAsignacion {... */\n      mstore(0x40, 0x80)\n      callvalue\n      dup1\n      iszero\n      tag_1\n      jumpi\n      0x00\n      dup1\n      revert\n    tag_1:\n      pop\n      jumpi(tag_2, lt(calldatasize, 0x04))\n      shr(0xe0, calldataload(0x00))\n      dup1\n      0x91f5de38\n      gt\n      tag_11\n      jumpi\n      dup1\n      0x91f5de38\n      eq\n      tag_7\n      jumpi\n      dup1\n      0x94e3c0b1\n      eq\n      tag_8\n      jumpi\n      dup1\n      0xc76218e6\n      eq\n      tag_9\n      jumpi\n      dup1\n      0xd826f88f\n      eq\n      tag_10\n      jumpi\n      jump(tag_2)\n    tag_11:\n      dup1\n      0x29745262\n      eq\n      tag_3\n      jumpi\n      dup1\n      0x3205f5fc\n      eq\n      tag_4\n      jumpi\n      dup1\n      0x3475a3ed\n      eq\n      tag_5\n      jumpi\n      dup1\n      0x7e7d8ec6\n      eq\n      tag_6\n      jumpi\n    tag_2:\n      0x00\n      dup1\n      revert\n        /* \"contracts/asignacion.sol\":491:547  function modulo() public {... */\n    tag_3:\n      tag_12\n      tag_13\n      jump\t// in\n    tag_12:\n      stop\n        /* \"contracts/asignacion.sol\":425:483  function division() public {... */\n    tag_4:\n      tag_14\n      tag_15\n      jump\t// in\n    tag_14:\n      stop\n        /* \"contracts/asignacion.sol\":290:345  function resta() public {... */\n    tag_5:\n      tag_16\n      tag_17\n      jump\t// in\n    tag_16:\n      stop\n        /* \"contracts/asignacion.sol\":228:282  function suma() public {... */\n    tag_6:\n      tag_18\n      tag_19\n      jump\t// in\n    tag_18:\n      stop\n        /* \"contracts/asignacion.sol\":123:146  uint public numero = 60 */\n    tag_7:\n      tag_20\n      tag_21\n      jump\t// in\n    tag_20:\n      mload(0x40)\n      tag_22\n      swap2\n      swap1\n      tag_23\n      jump\t// in\n    tag_22:\n      mload(0x40)\n      dup1\n      swap2\n      sub\n      swap1\n      return\n        /* \"contracts/asignacion.sol\":155:220  function simpleAsignacion() public {... */\n    tag_8:\n      tag_24\n      tag_25\n      jump\t// in\n    tag_24:\n      stop\n        /* \"contracts/asignacion.sol\":353:417  function multiplicacion() public {... */\n    tag_9:\n      tag_26\n      tag_27\n      jump\t// in\n    tag_26:\n      stop\n        /* \"contracts/asignacion.sol\":555:609  function reset() public {... */\n    tag_10:\n      tag_28\n      tag_29\n      jump\t// in\n    tag_28:\n      stop\n        /* \"contracts/asignacion.sol\":491:547  function modulo() public {... */\n    tag_13:\n        /* \"contracts/asignacion.sol\":537:539  20 */\n      0x14\n        /* \"contracts/asignacion.sol\":527:533  numero */\n      0x00\n      dup1\n        /* \"contracts/asignacion.sol\":527:539  numero %= 20 */\n      dup3\n      dup3\n      sload\n      tag_31\n      swap2\n      swap1\n      tag_32\n      jump\t// in\n    tag_31:\n      swap3\n      pop\n      pop\n      dup2\n      swap1\n      sstore\n      pop\n        /* \"contracts/asignacion.sol\":491:547  function modulo() public {... */\n      jump\t// out\n        /* \"contracts/asignacion.sol\":425:483  function division() public {... */\n    tag_15:\n        /* \"contracts/asignacion.sol\":473:475  20 */\n      0x14\n        /* \"contracts/asignacion.sol\":463:469  numero */\n      0x00\n      dup1\n        /* \"contracts/asignacion.sol\":463:475  numero /= 20 */\n      dup3\n      dup3\n      sload\n      tag_34\n      swap2\n      swap1\n      tag_35\n      jump\t// in\n    tag_34:\n      swap3\n      pop\n      pop\n      dup2\n      swap1\n      sstore\n      pop\n        /* \"contracts/asignacion.sol\":425:483  function division() public {... */\n      jump\t// out\n        /* \"contracts/asignacion.sol\":290:345  function resta() public {... */\n    tag_17:\n        /* \"contracts/asignacion.sol\":335:337  20 */\n      0x14\n        /* \"contracts/asignacion.sol\":325:331  numero */\n      0x00\n      dup1\n        /* \"contracts/asignacion.sol\":325:337  numero -= 20 */\n      dup3\n      dup3\n      sload\n      tag_37\n      swap2\n      swap1\n      tag_38\n      jump\t// in\n    tag_37:\n      swap3\n      pop\n      pop\n      dup2\n      swap1\n      sstore\n      pop\n        /* \"contracts/asignacion.sol\":290:345  function resta() public {... */\n      jump\t// out\n        /* \"contracts/asignacion.sol\":228:282  function suma() public {... */\n    tag_19:\n        /* \"contracts/asignacion.sol\":272:274  20 */\n      0x14\n        /* \"contracts/asignacion.sol\":262:268  numero */\n      0x00\n      dup1\n        /* \"contracts/asignacion.sol\":262:274  numero += 20 */\n      dup3\n      dup3\n      sload\n      tag_40\n      swap2\n      swap1\n      tag_41\n      jump\t// in\n    tag_40:\n      swap3\n      pop\n      pop\n      dup2\n      swap1\n      sstore\n      pop\n        /* \"contracts/asignacion.sol\":228:282  function suma() public {... */\n      jump\t// out\n        /* \"contracts/asignacion.sol\":123:146  uint public numero = 60 */\n    tag_21:\n      sload(0x00)\n      dup2\n      jump\t// out\n        /* \"contracts/asignacion.sol\":155:220  function simpleAsignacion() public {... */\n    tag_25:\n        /* \"contracts/asignacion.sol\":210:212  20 */\n      0x14\n        /* \"contracts/asignacion.sol\":201:207  numero */\n      0x00\n        /* \"contracts/asignacion.sol\":201:212  numero = 20 */\n      dup2\n      swap1\n      sstore\n      pop\n        /* \"contracts/asignacion.sol\":155:220  function simpleAsignacion() public {... */\n      jump\t// out\n        /* \"contracts/asignacion.sol\":353:417  function multiplicacion() public {... */\n    tag_27:\n        /* \"contracts/asignacion.sol\":407:409  20 */\n      0x14\n        /* \"contracts/asignacion.sol\":397:403  numero */\n      0x00\n      dup1\n        /* \"contracts/asignacion.sol\":397:409  numero *= 20 */\n      dup3\n      dup3\n      sload\n      tag_44\n      swap2\n      swap1\n      tag_45\n      jump\t// in\n    tag_44:\n      swap3\n      pop\n      pop\n      dup2\n      swap1\n      sstore\n      pop\n        /* \"contracts/asignacion.sol\":353:417  function multiplicacion() public {... */\n      jump\t// out\n        /* \"contracts/asignacion.sol\":555:609  function reset() public {... */\n    tag_29:\n        /* \"contracts/asignacion.sol\":599:601  10 */\n      0x0a\n        /* \"contracts/asignacion.sol\":590:596  numero */\n      0x00\n        /* \"contracts/asignacion.sol\":590:601  numero = 10 */\n      dup2\n      swap1\n      sstore\n      pop\n        /* \"contracts/asignacion.sol\":555:609  function reset() public {... */\n      jump\t// out\n        /* \"#utility.yul\":7:84   */\n    tag_47:\n        /* \"#utility.yul\":44:51   */\n      0x00\n        /* \"#utility.yul\":73:78   */\n      dup2\n        /* \"#utility.yul\":62:78   */\n      swap1\n      pop\n        /* \"#utility.yul\":7:84   */\n      swap2\n      swap1\n      pop\n      jump\t// out\n        /* \"#utility.yul\":90:208   */\n    tag_48:\n        /* \"#utility.yul\":177:201   */\n      tag_54\n        /* \"#utility.yul\":195:200   */\n      dup2\n        /* \"#utility.yul\":177:201   */\n      tag_47\n      jump\t// in\n    tag_54:\n        /* \"#utility.yul\":172:175   */\n      dup3\n        /* \"#utility.yul\":165:202   */\n      mstore\n        /* \"#utility.yul\":90:208   */\n      pop\n      pop\n      jump\t// out\n        /* \"#utility.yul\":214:436   */\n    tag_23:\n        /* \"#utility.yul\":307:311   */\n      0x00\n        /* \"#utility.yul\":345:347   */\n      0x20\n        /* \"#utility.yul\":334:343   */\n      dup3\n        /* \"#utility.yul\":330:348   */\n      add\n        /* \"#utility.yul\":322:348   */\n      swap1\n      pop\n        /* \"#utility.yul\":358:429   */\n      tag_56\n        /* \"#utility.yul\":426:427   */\n      0x00\n        /* \"#utility.yul\":415:424   */\n      dup4\n        /* \"#utility.yul\":411:428   */\n      add\n        /* \"#utility.yul\":402:408   */\n      dup5\n        /* \"#utility.yul\":358:429   */\n      tag_48\n      jump\t// in\n    tag_56:\n        /* \"#utility.yul\":214:436   */\n      swap3\n      swap2\n      pop\n      pop\n      jump\t// out\n        /* \"#utility.yul\":442:622   */\n    tag_49:\n        /* \"#utility.yul\":490:567   */\n      0x4e487b7100000000000000000000000000000000000000000000000000000000\n        /* \"#utility.yul\":487:488   */\n      0x00\n        /* \"#utility.yul\":480:568   */\n      mstore\n        /* \"#utility.yul\":587:591   */\n      0x12\n        /* \"#utility.yul\":584:585   */\n      0x04\n        /* \"#utility.yul\":577:592   */\n      mstore\n        /* \"#utility.yul\":611:615   */\n      0x24\n        /* \"#utility.yul\":608:609   */\n      0x00\n        /* \"#utility.yul\":601:616   */\n      revert\n        /* \"#utility.yul\":628:804   */\n    tag_32:\n        /* \"#utility.yul\":660:661   */\n      0x00\n        /* \"#utility.yul\":677:697   */\n      tag_59\n        /* \"#utility.yul\":695:696   */\n      dup3\n        /* \"#utility.yul\":677:697   */\n      tag_47\n      jump\t// in\n    tag_59:\n        /* \"#utility.yul\":672:697   */\n      swap2\n      pop\n        /* \"#utility.yul\":711:731   */\n      tag_60\n        /* \"#utility.yul\":729:730   */\n      dup4\n        /* \"#utility.yul\":711:731   */\n      tag_47\n      jump\t// in\n    tag_60:\n        /* \"#utility.yul\":706:731   */\n      swap3\n      pop\n        /* \"#utility.yul\":750:751   */\n      dup3\n        /* \"#utility.yul\":740:775   */\n      tag_61\n      jumpi\n        /* \"#utility.yul\":755:773   */\n      tag_62\n      tag_49\n      jump\t// in\n    tag_62:\n        /* \"#utility.yul\":740:775   */\n    tag_61:\n        /* \"#utility.yul\":796:797   */\n      dup3\n        /* \"#utility.yul\":793:794   */\n      dup3\n        /* \"#utility.yul\":789:798   */\n      mod\n        /* \"#utility.yul\":784:798   */\n      swap1\n      pop\n        /* \"#utility.yul\":628:804   */\n      swap3\n      swap2\n      pop\n      pop\n      jump\t// out\n        /* \"#utility.yul\":810:990   */\n    tag_50:\n        /* \"#utility.yul\":858:935   */\n      0x4e487b7100000000000000000000000000000000000000000000000000000000\n        /* \"#utility.yul\":855:856   */\n      0x00\n        /* \"#utility.yul\":848:936   */\n      mstore\n        /* \"#utility.yul\":955:959   */\n      0x11\n        /* \"#utility.yul\":952:953   */\n      0x04\n        /* \"#utility.yul\":945:960   */\n      mstore\n        /* \"#utility.yul\":979:983   */\n      0x24\n        /* \"#utility.yul\":976:977   */\n      0x00\n        /* \"#utility.yul\":969:984   */\n      revert\n        /* \"#utility.yul\":996:1181   */\n    tag_35:\n        /* \"#utility.yul\":1036:1037   */\n      0x00\n        /* \"#utility.yul\":1053:1073   */\n      tag_65\n        /* \"#utility.yul\":1071:1072   */\n      dup3\n        /* \"#utility.yul\":1053:1073   */\n      tag_47\n      jump\t// in\n    tag_65:\n        /* \"#utility.yul\":1048:1073   */\n      swap2\n      pop\n        /* \"#utility.yul\":1087:1107   */\n      tag_66\n        /* \"#utility.yul\":1105:1106   */\n      dup4\n        /* \"#utility.yul\":1087:1107   */\n      tag_47\n      jump\t// in\n    tag_66:\n        /* \"#utility.yul\":1082:1107   */\n      swap3\n      pop\n        /* \"#utility.yul\":1126:1127   */\n      dup3\n        /* \"#utility.yul\":1116:1151   */\n      tag_67\n      jumpi\n        /* \"#utility.yul\":1131:1149   */\n      tag_68\n      tag_49\n      jump\t// in\n    tag_68:\n        /* \"#utility.yul\":1116:1151   */\n    tag_67:\n        /* \"#utility.yul\":1173:1174   */\n      dup3\n        /* \"#utility.yul\":1170:1171   */\n      dup3\n        /* \"#utility.yul\":1166:1175   */\n      div\n        /* \"#utility.yul\":1161:1175   */\n      swap1\n      pop\n        /* \"#utility.yul\":996:1181   */\n      swap3\n      swap2\n      pop\n      pop\n      jump\t// out\n        /* \"#utility.yul\":1187:1381   */\n    tag_38:\n        /* \"#utility.yul\":1227:1231   */\n      0x00\n        /* \"#utility.yul\":1247:1267   */\n      tag_70\n        /* \"#utility.yul\":1265:1266   */\n      dup3\n        /* \"#utility.yul\":1247:1267   */\n      tag_47\n      jump\t// in\n    tag_70:\n        /* \"#utility.yul\":1242:1267   */\n      swap2\n      pop\n        /* \"#utility.yul\":1281:1301   */\n      tag_71\n        /* \"#utility.yul\":1299:1300   */\n      dup4\n        /* \"#utility.yul\":1281:1301   */\n      tag_47\n      jump\t// in\n    tag_71:\n        /* \"#utility.yul\":1276:1301   */\n      swap3\n      pop\n        /* \"#utility.yul\":1325:1326   */\n      dup3\n        /* \"#utility.yul\":1322:1323   */\n      dup3\n        /* \"#utility.yul\":1318:1327   */\n      sub\n        /* \"#utility.yul\":1310:1327   */\n      swap1\n      pop\n        /* \"#utility.yul\":1349:1350   */\n      dup2\n        /* \"#utility.yul\":1343:1347   */\n      dup2\n        /* \"#utility.yul\":1340:1351   */\n      gt\n        /* \"#utility.yul\":1337:1374   */\n      iszero\n      tag_72\n      jumpi\n        /* \"#utility.yul\":1354:1372   */\n      tag_73\n      tag_50\n      jump\t// in\n    tag_73:\n        /* \"#utility.yul\":1337:1374   */\n    tag_72:\n        /* \"#utility.yul\":1187:1381   */\n      swap3\n      swap2\n      pop\n      pop\n      jump\t// out\n        /* \"#utility.yul\":1387:1578   */\n    tag_41:\n        /* \"#utility.yul\":1427:1430   */\n      0x00\n        /* \"#utility.yul\":1446:1466   */\n      tag_75\n        /* \"#utility.yul\":1464:1465   */\n      dup3\n        /* \"#utility.yul\":1446:1466   */\n      tag_47\n      jump\t// in\n    tag_75:\n        /* \"#utility.yul\":1441:1466   */\n      swap2\n      pop\n        /* \"#utility.yul\":1480:1500   */\n      tag_76\n        /* \"#utility.yul\":1498:1499   */\n      dup4\n        /* \"#utility.yul\":1480:1500   */\n      tag_47\n      jump\t// in\n    tag_76:\n        /* \"#utility.yul\":1475:1500   */\n      swap3\n      pop\n        /* \"#utility.yul\":1523:1524   */\n      dup3\n        /* \"#utility.yul\":1520:1521   */\n      dup3\n        /* \"#utility.yul\":1516:1525   */\n      add\n        /* \"#utility.yul\":1509:1525   */\n      swap1\n      pop\n        /* \"#utility.yul\":1544:1547   */\n      dup1\n        /* \"#utility.yul\":1541:1542   */\n      dup3\n        /* \"#utility.yul\":1538:1548   */\n      gt\n        /* \"#utility.yul\":1535:1571   */\n      iszero\n      tag_77\n      jumpi\n        /* \"#utility.yul\":1551:1569   */\n      tag_78\n      tag_50\n      jump\t// in\n    tag_78:\n        /* \"#utility.yul\":1535:1571   */\n    tag_77:\n        /* \"#utility.yul\":1387:1578   */\n      swap3\n      swap2\n      pop\n      pop\n      jump\t// out\n        /* \"#utility.yul\":1584:1994   */\n    tag_45:\n        /* \"#utility.yul\":1624:1631   */\n      0x00\n        /* \"#utility.yul\":1647:1667   */\n      tag_80\n        /* \"#utility.yul\":1665:1666   */\n      dup3\n        /* \"#utility.yul\":1647:1667   */\n      tag_47\n      jump\t// in\n    tag_80:\n        /* \"#utility.yul\":1642:1667   */\n      swap2\n      pop\n        /* \"#utility.yul\":1681:1701   */\n      tag_81\n        /* \"#utility.yul\":1699:1700   */\n      dup4\n        /* \"#utility.yul\":1681:1701   */\n      tag_47\n      jump\t// in\n    tag_81:\n        /* \"#utility.yul\":1676:1701   */\n      swap3\n      pop\n        /* \"#utility.yul\":1736:1737   */\n      dup3\n        /* \"#utility.yul\":1733:1734   */\n      dup3\n        /* \"#utility.yul\":1729:1738   */\n      mul\n        /* \"#utility.yul\":1758:1788   */\n      tag_82\n        /* \"#utility.yul\":1776:1787   */\n      dup2\n        /* \"#utility.yul\":1758:1788   */\n      tag_47\n      jump\t// in\n    tag_82:\n        /* \"#utility.yul\":1747:1788   */\n      swap2\n      pop\n        /* \"#utility.yul\":1937:1938   */\n      dup3\n        /* \"#utility.yul\":1928:1935   */\n      dup3\n        /* \"#utility.yul\":1924:1939   */\n      div\n        /* \"#utility.yul\":1921:1922   */\n      dup5\n        /* \"#utility.yul\":1918:1940   */\n      eq\n        /* \"#utility.yul\":1898:1899   */\n      dup4\n        /* \"#utility.yul\":1891:1900   */\n      iszero\n        /* \"#utility.yul\":1871:1954   */\n      or\n        /* \"#utility.yul\":1848:1987   */\n      tag_83\n      jumpi\n        /* \"#utility.yul\":1967:1985   */\n      tag_84\n      tag_50\n      jump\t// in\n    tag_84:\n        /* \"#utility.yul\":1848:1987   */\n    tag_83:\n        /* \"#utility.yul\":1632:1994   */\n      pop\n        /* \"#utility.yul\":1584:1994   */\n      swap3\n      swap2\n      pop\n      pop\n      jump\t// out\n\n    auxdata: 0xa2646970667358221220c1767ee0ebac5744e0aa3c7d1fb4e0317882aaa7e75e5b748e1600bdf100e5f464736f6c63430008140033\n}\n",
				"bytecode": {
					"linkReferences": {},
					"object": "6080604052603c5f55348015610013575f80fd5b5061034f806100215f395ff3fe608060405234801561000f575f80fd5b5060043610610086575f3560e01c806391f5de381161005957806391f5de38146100b257806394e3c0b1146100d0578063c76218e6146100da578063d826f88f146100e457610086565b8063297452621461008a5780633205f5fc146100945780633475a3ed1461009e5780637e7d8ec6146100a8575b5f80fd5b6100926100ee565b005b61009c610108565b005b6100a6610122565b005b6100b061013c565b005b6100ba610156565b6040516100c7919061019f565b60405180910390f35b6100d861015b565b005b6100e2610164565b005b6100ec61017e565b005b60145f808282546100ff91906101e5565b92505081905550565b60145f808282546101199190610242565b92505081905550565b60145f808282546101339190610272565b92505081905550565b60145f8082825461014d91906102a5565b92505081905550565b5f5481565b60145f81905550565b60145f8082825461017591906102d8565b92505081905550565b600a5f81905550565b5f819050919050565b61019981610187565b82525050565b5f6020820190506101b25f830184610190565b92915050565b7f4e487b71000000000000000000000000000000000000000000000000000000005f52601260045260245ffd5b5f6101ef82610187565b91506101fa83610187565b92508261020a576102096101b8565b5b828206905092915050565b7f4e487b71000000000000000000000000000000000000000000000000000000005f52601160045260245ffd5b5f61024c82610187565b915061025783610187565b925082610267576102666101b8565b5b828204905092915050565b5f61027c82610187565b915061028783610187565b925082820390508181111561029f5761029e610215565b5b92915050565b5f6102af82610187565b91506102ba83610187565b92508282019050808211156102d2576102d1610215565b5b92915050565b5f6102e282610187565b91506102ed83610187565b92508282026102fb81610187565b9150828204841483151761031257610311610215565b5b509291505056fea2646970667358221220c1767ee0ebac5744e0aa3c7d1fb4e0317882aaa7e75e5b748e1600bdf100e5f464736f6c63430008140033",
					"opcodes": "PUSH1 0x80 PUSH1 0x40 MSTORE PUSH1 0x3C PUSH0 SSTORE CALLVALUE DUP1 ISZERO PUSH2 0x13 JUMPI PUSH0 DUP1 REVERT JUMPDEST POP PUSH2 0x34F DUP1 PUSH2 0x21 PUSH0 CODECOPY PUSH0 RETURN INVALID PUSH1 0x80 PUSH1 0x40 MSTORE CALLVALUE DUP1 ISZERO PUSH2 0xF JUMPI PUSH0 DUP1 REVERT JUMPDEST POP PUSH1 0x4 CALLDATASIZE LT PUSH2 0x86 JUMPI PUSH0 CALLDATALOAD PUSH1 0xE0 SHR DUP1 PUSH4 0x91F5DE38 GT PUSH2 0x59 JUMPI DUP1 PUSH4 0x91F5DE38 EQ PUSH2 0xB2 JUMPI DUP1 PUSH4 0x94E3C0B1 EQ PUSH2 0xD0 JUMPI DUP1 PUSH4 0xC76218E6 EQ PUSH2 0xDA JUMPI DUP1 PUSH4 0xD826F88F EQ PUSH2 0xE4 JUMPI PUSH2 0x86 JUMP JUMPDEST DUP1 PUSH4 0x29745262 EQ PUSH2 0x8A JUMPI DUP1 PUSH4 0x3205F5FC EQ PUSH2 0x94 JUMPI DUP1 PUSH4 0x3475A3ED EQ PUSH2 0x9E JUMPI DUP1 PUSH4 0x7E7D8EC6 EQ PUSH2 0xA8 JUMPI JUMPDEST PUSH0 DUP1 REVERT JUMPDEST PUSH2 0x92 PUSH2 0xEE JUMP JUMPDEST STOP JUMPDEST PUSH2 0x9C PUSH2 0x108 JUMP JUMPDEST STOP JUMPDEST PUSH2 0xA6 PUSH2 0x122 JUMP JUMPDEST STOP JUMPDEST PUSH2 0xB0 PUSH2 0x13C JUMP JUMPDEST STOP JUMPDEST PUSH2 0xBA PUSH2 0x156 JUMP JUMPDEST PUSH1 0x40 MLOAD PUSH2 0xC7 SWAP2 SWAP1 PUSH2 0x19F JUMP JUMPDEST PUSH1 0x40 MLOAD DUP1 SWAP2 SUB SWAP1 RETURN JUMPDEST PUSH2 0xD8 PUSH2 0x15B JUMP JUMPDEST STOP JUMPDEST PUSH2 0xE2 PUSH2 0x164 JUMP JUMPDEST STOP JUMPDEST PUSH2 0xEC PUSH2 0x17E JUMP JUMPDEST STOP JUMPDEST PUSH1 0x14 PUSH0 DUP1 DUP3 DUP3 SLOAD PUSH2 0xFF SWAP2 SWAP1 PUSH2 0x1E5 JUMP JUMPDEST SWAP3 POP POP DUP2 SWAP1 SSTORE POP JUMP JUMPDEST PUSH1 0x14 PUSH0 DUP1 DUP3 DUP3 SLOAD PUSH2 0x119 SWAP2 SWAP1 PUSH2 0x242 JUMP JUMPDEST SWAP3 POP POP DUP2 SWAP1 SSTORE POP JUMP JUMPDEST PUSH1 0x14 PUSH0 DUP1 DUP3 DUP3 SLOAD PUSH2 0x133 SWAP2 SWAP1 PUSH2 0x272 JUMP JUMPDEST SWAP3 POP POP DUP2 SWAP1 SSTORE POP JUMP JUMPDEST PUSH1 0x14 PUSH0 DUP1 DUP3 DUP3 SLOAD PUSH2 0x14D SWAP2 SWAP1 PUSH2 0x2A5 JUMP JUMPDEST SWAP3 POP POP DUP2 SWAP1 SSTORE POP JUMP JUMPDEST PUSH0 SLOAD DUP2 JUMP JUMPDEST PUSH1 0x14 PUSH0 DUP2 SWAP1 SSTORE POP JUMP JUMPDEST PUSH1 0x14 PUSH0 DUP1 DUP3 DUP3 SLOAD PUSH2 0x175 SWAP2 SWAP1 PUSH2 0x2D8 JUMP JUMPDEST SWAP3 POP POP DUP2 SWAP1 SSTORE POP JUMP JUMPDEST PUSH1 0xA PUSH0 DUP2 SWAP1 SSTORE POP JUMP JUMPDEST PUSH0 DUP2 SWAP1 POP SWAP2 SWAP1 POP JUMP JUMPDEST PUSH2 0x199 DUP2 PUSH2 0x187 JUMP JUMPDEST DUP3 MSTORE POP POP JUMP JUMPDEST PUSH0 PUSH1 0x20 DUP3 ADD SWAP1 POP PUSH2 0x1B2 PUSH0 DUP4 ADD DUP5 PUSH2 0x190 JUMP JUMPDEST SWAP3 SWAP2 POP POP JUMP JUMPDEST PUSH32 0x4E487B7100000000000000000000000000000000000000000000000000000000 PUSH0 MSTORE PUSH1 0x12 PUSH1 0x4 MSTORE PUSH1 0x24 PUSH0 REVERT JUMPDEST PUSH0 PUSH2 0x1EF DUP3 PUSH2 0x187 JUMP JUMPDEST SWAP2 POP PUSH2 0x1FA DUP4 PUSH2 0x187 JUMP JUMPDEST SWAP3 POP DUP3 PUSH2 0x20A JUMPI PUSH2 0x209 PUSH2 0x1B8 JUMP JUMPDEST JUMPDEST DUP3 DUP3 MOD SWAP1 POP SWAP3 SWAP2 POP POP JUMP JUMPDEST PUSH32 0x4E487B7100000000000000000000000000000000000000000000000000000000 PUSH0 MSTORE PUSH1 0x11 PUSH1 0x4 MSTORE PUSH1 0x24 PUSH0 REVERT JUMPDEST PUSH0 PUSH2 0x24C DUP3 PUSH2 0x187 JUMP JUMPDEST SWAP2 POP PUSH2 0x257 DUP4 PUSH2 0x187 JUMP JUMPDEST SWAP3 POP DUP3 PUSH2 0x267 JUMPI PUSH2 0x266 PUSH2 0x1B8 JUMP JUMPDEST JUMPDEST DUP3 DUP3 DIV SWAP1 POP SWAP3 SWAP2 POP POP JUMP JUMPDEST PUSH0 PUSH2 0x27C DUP3 PUSH2 0x187 JUMP JUMPDEST SWAP2 POP PUSH2 0x287 DUP4 PUSH2 0x187 JUMP JUMPDEST SWAP3 POP DUP3 DUP3 SUB SWAP1 POP DUP2 DUP2 GT ISZERO PUSH2 0x29F JUMPI PUSH2 0x29E PUSH2 0x215 JUMP JUMPDEST JUMPDEST SWAP3 SWAP2 POP POP JUMP JUMPDEST PUSH0 PUSH2 0x2AF DUP3 PUSH2 0x187 JUMP JUMPDEST SWAP2 POP PUSH2 0x2BA DUP4 PUSH2 0x187 JUMP JUMPDEST SWAP3 POP DUP3 DUP3 ADD SWAP1 POP DUP1 DUP3 GT ISZERO PUSH2 0x2D2 JUMPI PUSH2 0x2D1 PUSH2 0x215 JUMP JUMPDEST JUMPDEST SWAP3 SWAP2 POP POP JUMP JUMPDEST PUSH0 PUSH2 0x2E2 DUP3 PUSH2 0x187 JUMP JUMPDEST SWAP2 POP PUSH2 0x2ED DUP4 PUSH2 0x187 JUMP JUMPDEST SWAP3 POP DUP3 DUP3 MUL PUSH2 0x2FB DUP2 PUSH2 0x187 JUMP JUMPDEST SWAP2 POP DUP3 DUP3 DIV DUP5 EQ DUP4 ISZERO OR PUSH2 0x312 JUMPI PUSH2 0x311 PUSH2 0x215 JUMP JUMPDEST JUMPDEST POP SWAP3 SWAP2 POP POP JUMP INVALID LOG2 PUSH5 0x6970667358 0x22 SLT KECCAK256 0xC1 PUSH23 0x7EE0EBAC5744E0AA3C7D1FB4E0317882AAA7E75E5B748E AND STOP 0xBD CALL STOP 0xE5 DELEGATECALL PUSH5 0x736F6C6343 STOP ADDMOD EQ STOP CALLER "
				},
				"gasEstimates": {
					"creation": {
						"codeDepositCost": "169400",
						"executionCost": "22317",
						"totalCost": "191717"
					},
					"external": {
						"division()": "infinite",
						"modulo()": "infinite",
						"multiplicacion()": "infinite",
						"numero()": "2424",
						"reset()": "22322",
						"resta()": "infinite",
						"simpleAsignacion()": "22278",
						"suma()": "infinite"
					}
				},
				"methodIdentifiers": {
					"division()": "3205f5fc",
					"modulo()": "29745262",
					"multiplicacion()": "c76218e6",
					"numero()": "91f5de38",
					"reset()": "d826f88f",
					"resta()": "3475a3ed",
					"simpleAsignacion()": "94e3c0b1",
					"suma()": "7e7d8ec6"
				}
			},
			"storageLayout": {
				"storage": [
					{
						"astId": 4,
						"contract": "contracts/asignacion.sol:OperatorAsignacion",
						"label": "numero",
						"offset": 0,
						"slot": "0",
						"type": "t_uint256"
					}
				],
				"types": {
					"t_uint256": {
						"encoding": "inplace",
						"label": "uint256",
						"numberOfBytes": "32"
					}
				}
			},
			"userdoc": {
				"kind": "user",
				"methods": {},
				"version": 1
			}
		}
	}
}