{
	"contracts/sistemaVotacion.sol": {
		"sistemaVotacion": {
			"abi": [
				{
					"inputs": [],
					"stateMutability": "nonpayable",
					"type": "constructor"
				},
				{
					"anonymous": false,
					"inputs": [
						{
							"indexed": true,
							"internalType": "uint256",
							"name": "idPartido",
							"type": "uint256"
						},
						{
							"indexed": true,
							"internalType": "address",
							"name": "votante",
							"type": "address"
						}
					],
					"name": "VotacionRealizada",
					"type": "event"
				},
				{
					"inputs": [],
					"name": "abrirVotacion",
					"outputs": [],
					"stateMutability": "nonpayable",
					"type": "function"
				},
				{
					"inputs": [],
					"name": "cerrarVotacion",
					"outputs": [],
					"stateMutability": "nonpayable",
					"type": "function"
				},
				{
					"inputs": [],
					"name": "ganador",
					"outputs": [
						{
							"components": [
								{
									"internalType": "uint256",
									"name": "id",
									"type": "uint256"
								},
								{
									"internalType": "string",
									"name": "sigla",
									"type": "string"
								},
								{
									"internalType": "string",
									"name": "candidato",
									"type": "string"
								},
								{
									"internalType": "uint256",
									"name": "nroVotos",
									"type": "uint256"
								}
							],
							"internalType": "struct sistemaVotacion.Partido",
							"name": "",
							"type": "tuple"
						}
					],
					"stateMutability": "view",
					"type": "function"
				},
				{
					"inputs": [
						{
							"internalType": "string",
							"name": "_sigla",
							"type": "string"
						},
						{
							"internalType": "string",
							"name": "_candidato",
							"type": "string"
						}
					],
					"name": "nuevoPartido",
					"outputs": [],
					"stateMutability": "nonpayable",
					"type": "function"
				},
				{
					"inputs": [],
					"name": "parametros",
					"outputs": [
						{
							"internalType": "address",
							"name": "autoridadAddress",
							"type": "address"
						},
						{
							"internalType": "bool",
							"name": "inscripcionAbierta",
							"type": "bool"
						}
					],
					"stateMutability": "view",
					"type": "function"
				},
				{
					"inputs": [
						{
							"internalType": "uint256",
							"name": "",
							"type": "uint256"
						}
					],
					"name": "partidos",
					"outputs": [
						{
							"internalType": "uint256",
							"name": "id",
							"type": "uint256"
						},
						{
							"internalType": "string",
							"name": "sigla",
							"type": "string"
						},
						{
							"internalType": "string",
							"name": "candidato",
							"type": "string"
						},
						{
							"internalType": "uint256",
							"name": "nroVotos",
							"type": "uint256"
						}
					],
					"stateMutability": "view",
					"type": "function"
				},
				{
					"inputs": [],
					"name": "resultados",
					"outputs": [
						{
							"internalType": "uint256[]",
							"name": "",
							"type": "uint256[]"
						},
						{
							"internalType": "string[]",
							"name": "",
							"type": "string[]"
						},
						{
							"internalType": "string[]",
							"name": "",
							"type": "string[]"
						},
						{
							"internalType": "uint256[]",
							"name": "",
							"type": "uint256[]"
						}
					],
					"stateMutability": "view",
					"type": "function"
				},
				{
					"inputs": [
						{
							"internalType": "uint256",
							"name": "_idPartido",
							"type": "uint256"
						}
					],
					"name": "votar",
					"outputs": [],
					"stateMutability": "nonpayable",
					"type": "function"
				}
			],
			"devdoc": {
				"kind": "dev",
				"methods": {},
				"version": 1
			},
			"evm": {
				"assembly": "    /* \"contracts/sistemaVotacion.sol\":61:2960  contract sistemaVotacion{... */\n  mstore(0x40, 0x80)\n    /* \"contracts/sistemaVotacion.sol\":438:558  constructor(){... */\n  callvalue\n  dup1\n  iszero\n  tag_1\n  jumpi\n  0x00\n  dup1\n  revert\ntag_1:\n  pop\n    /* \"contracts/sistemaVotacion.sol\":492:502  msg.sender */\n  caller\n    /* \"contracts/sistemaVotacion.sol\":462:472  parametros */\n  0x00\n    /* \"contracts/sistemaVotacion.sol\":462:489  parametros.autoridadAddress */\n  dup1\n  add\n  0x00\n    /* \"contracts/sistemaVotacion.sol\":462:502  parametros.autoridadAddress = msg.sender */\n  0x0100\n  exp\n  dup2\n  sload\n  dup2\n  0xffffffffffffffffffffffffffffffffffffffff\n  mul\n  not\n  and\n  swap1\n  dup4\n  0xffffffffffffffffffffffffffffffffffffffff\n  and\n  mul\n  or\n  swap1\n  sstore\n  pop\n    /* \"contracts/sistemaVotacion.sol\":545:550  false */\n  0x00\n    /* \"contracts/sistemaVotacion.sol\":513:523  parametros */\n  dup1\n    /* \"contracts/sistemaVotacion.sol\":513:542  parametros.inscripcionAbierta */\n  0x00\n  add\n  0x14\n    /* \"contracts/sistemaVotacion.sol\":513:550  parametros.inscripcionAbierta = false */\n  0x0100\n  exp\n  dup2\n  sload\n  dup2\n  0xff\n  mul\n  not\n  and\n  swap1\n  dup4\n  iszero\n  iszero\n  mul\n  or\n  swap1\n  sstore\n  pop\n    /* \"contracts/sistemaVotacion.sol\":61:2960  contract sistemaVotacion{... */\n  dataSize(sub_0)\n  dup1\n  dataOffset(sub_0)\n  0x00\n  codecopy\n  0x00\n  return\nstop\n\nsub_0: assembly {\n        /* \"contracts/sistemaVotacion.sol\":61:2960  contract sistemaVotacion{... */\n      mstore(0x40, 0x80)\n      callvalue\n      dup1\n      iszero\n      tag_1\n      jumpi\n      0x00\n      dup1\n      revert\n    tag_1:\n      pop\n      jumpi(tag_2, lt(calldatasize, 0x04))\n      shr(0xe0, calldataload(0x00))\n      dup1\n      0x51dc516b\n      gt\n      tag_11\n      jumpi\n      dup1\n      0x51dc516b\n      eq\n      tag_7\n      jumpi\n      dup1\n      0x6d5964cf\n      eq\n      tag_8\n      jumpi\n      dup1\n      0x846b5f7a\n      eq\n      tag_9\n      jumpi\n      dup1\n      0x9114bde8\n      eq\n      tag_10\n      jumpi\n      jump(tag_2)\n    tag_11:\n      dup1\n      0x1bf488b6\n      eq\n      tag_3\n      jumpi\n      dup1\n      0x21606831\n      eq\n      tag_4\n      jumpi\n      dup1\n      0x40deb070\n      eq\n      tag_5\n      jumpi\n      dup1\n      0x4666b679\n      eq\n      tag_6\n      jumpi\n    tag_2:\n      0x00\n      dup1\n      revert\n        /* \"contracts/sistemaVotacion.sol\":1382:1480  function cerrarVotacion() public autority {... */\n    tag_3:\n      tag_12\n      tag_13\n      jump\t// in\n    tag_12:\n      stop\n        /* \"contracts/sistemaVotacion.sol\":1488:1833  function votar(uint _idPartido) public votacionCerrada{... */\n    tag_4:\n      tag_14\n      0x04\n      dup1\n      calldatasize\n      sub\n      dup2\n      add\n      swap1\n      tag_15\n      swap2\n      swap1\n      tag_16\n      jump\t// in\n    tag_15:\n      tag_17\n      jump\t// in\n    tag_14:\n      stop\n        /* \"contracts/sistemaVotacion.sol\":353:378  Partido[] public partidos */\n    tag_5:\n      tag_18\n      0x04\n      dup1\n      calldatasize\n      sub\n      dup2\n      add\n      swap1\n      tag_19\n      swap2\n      swap1\n      tag_16\n      jump\t// in\n    tag_19:\n      tag_20\n      jump\t// in\n    tag_18:\n      mload(0x40)\n      tag_21\n      swap5\n      swap4\n      swap3\n      swap2\n      swap1\n      tag_22\n      jump\t// in\n    tag_21:\n      mload(0x40)\n      dup1\n      swap2\n      sub\n      swap1\n      return\n        /* \"contracts/sistemaVotacion.sol\":318:346  Parametros public parametros */\n    tag_6:\n      tag_23\n      tag_24\n      jump\t// in\n    tag_23:\n      mload(0x40)\n      tag_25\n      swap3\n      swap2\n      swap1\n      tag_26\n      jump\t// in\n    tag_25:\n      mload(0x40)\n      dup1\n      swap2\n      sub\n      swap1\n      return\n        /* \"contracts/sistemaVotacion.sol\":1841:2585  function resultados() public votacionAbierta view returns (... */\n    tag_7:\n      tag_27\n      tag_28\n      jump\t// in\n    tag_27:\n      mload(0x40)\n      tag_29\n      swap5\n      swap4\n      swap3\n      swap2\n      swap1\n      tag_30\n      jump\t// in\n    tag_29:\n      mload(0x40)\n      dup1\n      swap2\n      sub\n      swap1\n      return\n        /* \"contracts/sistemaVotacion.sol\":1067:1270  function nuevoPartido(string memory _sigla,string memory _candidato) public autority votacionAbierta{... */\n    tag_8:\n      tag_31\n      0x04\n      dup1\n      calldatasize\n      sub\n      dup2\n      add\n      swap1\n      tag_32\n      swap2\n      swap1\n      tag_33\n      jump\t// in\n    tag_32:\n      tag_34\n      jump\t// in\n    tag_31:\n      stop\n        /* \"contracts/sistemaVotacion.sol\":1278:1374  function abrirVotacion() public autority {... */\n    tag_9:\n      tag_35\n      tag_36\n      jump\t// in\n    tag_35:\n      stop\n        /* \"contracts/sistemaVotacion.sol\":2595:2957  function ganador() public votacionAbierta view returns (... */\n    tag_10:\n      tag_37\n      tag_38\n      jump\t// in\n    tag_37:\n      mload(0x40)\n      tag_39\n      swap2\n      swap1\n      tag_40\n      jump\t// in\n    tag_39:\n      mload(0x40)\n      dup1\n      swap2\n      sub\n      swap1\n      return\n        /* \"contracts/sistemaVotacion.sol\":1382:1480  function cerrarVotacion() public autority {... */\n    tag_13:\n        /* \"contracts/sistemaVotacion.sol\":720:730  msg.sender */\n      caller\n        /* \"contracts/sistemaVotacion.sol\":689:730  parametros.autoridadAddress == msg.sender */\n      0xffffffffffffffffffffffffffffffffffffffff\n      and\n        /* \"contracts/sistemaVotacion.sol\":689:699  parametros */\n      0x00\n        /* \"contracts/sistemaVotacion.sol\":689:716  parametros.autoridadAddress */\n      dup1\n      add\n      0x00\n      swap1\n      sload\n      swap1\n      0x0100\n      exp\n      swap1\n      div\n      0xffffffffffffffffffffffffffffffffffffffff\n      and\n        /* \"contracts/sistemaVotacion.sol\":689:730  parametros.autoridadAddress == msg.sender */\n      0xffffffffffffffffffffffffffffffffffffffff\n      and\n      eq\n        /* \"contracts/sistemaVotacion.sol\":681:750  require(parametros.autoridadAddress == msg.sender, \"Acceso denegado\") */\n      tag_42\n      jumpi\n      mload(0x40)\n      0x08c379a000000000000000000000000000000000000000000000000000000000\n      dup2\n      mstore\n      0x04\n      add\n      tag_43\n      swap1\n      tag_44\n      jump\t// in\n    tag_43:\n      mload(0x40)\n      dup1\n      swap2\n      sub\n      swap1\n      revert\n    tag_42:\n        /* \"contracts/sistemaVotacion.sol\":1467:1472  false */\n      0x00\n        /* \"contracts/sistemaVotacion.sol\":1435:1445  parametros */\n      dup1\n        /* \"contracts/sistemaVotacion.sol\":1435:1464  parametros.inscripcionAbierta */\n      0x00\n      add\n      0x14\n        /* \"contracts/sistemaVotacion.sol\":1435:1472  parametros.inscripcionAbierta = false */\n      0x0100\n      exp\n      dup2\n      sload\n      dup2\n      0xff\n      mul\n      not\n      and\n      swap1\n      dup4\n      iszero\n      iszero\n      mul\n      or\n      swap1\n      sstore\n      pop\n        /* \"contracts/sistemaVotacion.sol\":1382:1480  function cerrarVotacion() public autority {... */\n      jump\t// out\n        /* \"contracts/sistemaVotacion.sol\":1488:1833  function votar(uint _idPartido) public votacionCerrada{... */\n    tag_17:\n        /* \"contracts/sistemaVotacion.sol\":968:978  parametros */\n      0x00\n        /* \"contracts/sistemaVotacion.sol\":968:997  parametros.inscripcionAbierta */\n      dup1\n      add\n      0x14\n      swap1\n      sload\n      swap1\n      0x0100\n      exp\n      swap1\n      div\n      0xff\n      and\n        /* \"contracts/sistemaVotacion.sol\":960:1039  require(parametros.inscripcionAbierta, \"Accion no pertimida, votacion cerrada\") */\n      tag_47\n      jumpi\n      mload(0x40)\n      0x08c379a000000000000000000000000000000000000000000000000000000000\n      dup2\n      mstore\n      0x04\n      add\n      tag_48\n      swap1\n      tag_49\n      jump\t// in\n    tag_48:\n      mload(0x40)\n      dup1\n      swap2\n      sub\n      swap1\n      revert\n    tag_47:\n        /* \"contracts/sistemaVotacion.sol\":1562:1570  votantes */\n      0x02\n        /* \"contracts/sistemaVotacion.sol\":1562:1582  votantes[msg.sender] */\n      0x00\n        /* \"contracts/sistemaVotacion.sol\":1571:1581  msg.sender */\n      caller\n        /* \"contracts/sistemaVotacion.sol\":1562:1582  votantes[msg.sender] */\n      0xffffffffffffffffffffffffffffffffffffffff\n      and\n      0xffffffffffffffffffffffffffffffffffffffff\n      and\n      dup2\n      mstore\n      0x20\n      add\n      swap1\n      dup2\n      mstore\n      0x20\n      add\n      0x00\n      keccak256\n      0x00\n      swap1\n      sload\n      swap1\n      0x0100\n      exp\n      swap1\n      div\n      0xff\n      and\n        /* \"contracts/sistemaVotacion.sol\":1561:1582  !votantes[msg.sender] */\n      iszero\n        /* \"contracts/sistemaVotacion.sol\":1553:1604  require(!votantes[msg.sender], \"Error, ya votaste\") */\n      tag_51\n      jumpi\n      mload(0x40)\n      0x08c379a000000000000000000000000000000000000000000000000000000000\n      dup2\n      mstore\n      0x04\n      add\n      tag_52\n      swap1\n      tag_53\n      jump\t// in\n    tag_52:\n      mload(0x40)\n      dup1\n      swap2\n      sub\n      swap1\n      revert\n    tag_51:\n        /* \"contracts/sistemaVotacion.sol\":1636:1644  partidos */\n      0x01\n        /* \"contracts/sistemaVotacion.sol\":1636:1651  partidos.length */\n      dup1\n      sload\n      swap1\n      pop\n        /* \"contracts/sistemaVotacion.sol\":1623:1633  _idPartido */\n      dup2\n        /* \"contracts/sistemaVotacion.sol\":1623:1651  _idPartido < partidos.length */\n      lt\n        /* \"contracts/sistemaVotacion.sol\":1615:1682  require(_idPartido < partidos.length, \"Error, partido inexistente\") */\n      tag_54\n      jumpi\n      mload(0x40)\n      0x08c379a000000000000000000000000000000000000000000000000000000000\n      dup2\n      mstore\n      0x04\n      add\n      tag_55\n      swap1\n      tag_56\n      jump\t// in\n    tag_55:\n      mload(0x40)\n      dup1\n      swap2\n      sub\n      swap1\n      revert\n    tag_54:\n        /* \"contracts/sistemaVotacion.sol\":1718:1722  true */\n      0x01\n        /* \"contracts/sistemaVotacion.sol\":1695:1703  votantes */\n      0x02\n        /* \"contracts/sistemaVotacion.sol\":1695:1715  votantes[msg.sender] */\n      0x00\n        /* \"contracts/sistemaVotacion.sol\":1704:1714  msg.sender */\n      caller\n        /* \"contracts/sistemaVotacion.sol\":1695:1715  votantes[msg.sender] */\n      0xffffffffffffffffffffffffffffffffffffffff\n      and\n      0xffffffffffffffffffffffffffffffffffffffff\n      and\n      dup2\n      mstore\n      0x20\n      add\n      swap1\n      dup2\n      mstore\n      0x20\n      add\n      0x00\n      keccak256\n      0x00\n        /* \"contracts/sistemaVotacion.sol\":1695:1722  votantes[msg.sender] = true */\n      0x0100\n      exp\n      dup2\n      sload\n      dup2\n      0xff\n      mul\n      not\n      and\n      swap1\n      dup4\n      iszero\n      iszero\n      mul\n      or\n      swap1\n      sstore\n      pop\n        /* \"contracts/sistemaVotacion.sol\":1733:1741  partidos */\n      0x01\n        /* \"contracts/sistemaVotacion.sol\":1742:1752  _idPartido */\n      dup2\n        /* \"contracts/sistemaVotacion.sol\":1733:1753  partidos[_idPartido] */\n      dup2\n      sload\n      dup2\n      lt\n      tag_57\n      jumpi\n      tag_58\n      tag_59\n      jump\t// in\n    tag_58:\n    tag_57:\n      swap1\n      0x00\n      mstore\n      keccak256(0x00, 0x20)\n      swap1\n      0x04\n      mul\n      add\n        /* \"contracts/sistemaVotacion.sol\":1733:1762  partidos[_idPartido].nroVotos */\n      0x03\n      add\n      0x00\n        /* \"contracts/sistemaVotacion.sol\":1733:1764  partidos[_idPartido].nroVotos++ */\n      dup2\n      sload\n      dup1\n      swap3\n      swap2\n      swap1\n      tag_61\n      swap1\n      tag_62\n      jump\t// in\n    tag_61:\n      swap2\n      swap1\n      pop\n      sstore\n      pop\n        /* \"contracts/sistemaVotacion.sol\":1812:1822  msg.sender */\n      caller\n        /* \"contracts/sistemaVotacion.sol\":1782:1823  VotacionRealizada(_idPartido, msg.sender) */\n      0xffffffffffffffffffffffffffffffffffffffff\n      and\n        /* \"contracts/sistemaVotacion.sol\":1800:1810  _idPartido */\n      dup2\n        /* \"contracts/sistemaVotacion.sol\":1782:1823  VotacionRealizada(_idPartido, msg.sender) */\n      0xaea30ee14122d7f77116afd3fb64a61bd3e3a43c88fd92ad575a5ddc164fc97b\n      mload(0x40)\n      mload(0x40)\n      dup1\n      swap2\n      sub\n      swap1\n      log3\n        /* \"contracts/sistemaVotacion.sol\":1488:1833  function votar(uint _idPartido) public votacionCerrada{... */\n      pop\n      jump\t// out\n        /* \"contracts/sistemaVotacion.sol\":353:378  Partido[] public partidos */\n    tag_20:\n      0x01\n      dup2\n      dup2\n      sload\n      dup2\n      lt\n      tag_63\n      jumpi\n      0x00\n      dup1\n      revert\n    tag_63:\n      swap1\n      0x00\n      mstore\n      keccak256(0x00, 0x20)\n      swap1\n      0x04\n      mul\n      add\n      0x00\n      swap2\n      pop\n      swap1\n      pop\n      dup1\n      0x00\n      add\n      sload\n      swap1\n      dup1\n      0x01\n      add\n      dup1\n      sload\n      tag_65\n      swap1\n      tag_66\n      jump\t// in\n    tag_65:\n      dup1\n      0x1f\n      add\n      0x20\n      dup1\n      swap2\n      div\n      mul\n      0x20\n      add\n      mload(0x40)\n      swap1\n      dup2\n      add\n      0x40\n      mstore\n      dup1\n      swap3\n      swap2\n      swap1\n      dup2\n      dup2\n      mstore\n      0x20\n      add\n      dup3\n      dup1\n      sload\n      tag_67\n      swap1\n      tag_66\n      jump\t// in\n    tag_67:\n      dup1\n      iszero\n      tag_68\n      jumpi\n      dup1\n      0x1f\n      lt\n      tag_69\n      jumpi\n      0x0100\n      dup1\n      dup4\n      sload\n      div\n      mul\n      dup4\n      mstore\n      swap2\n      0x20\n      add\n      swap2\n      jump(tag_68)\n    tag_69:\n      dup3\n      add\n      swap2\n      swap1\n      0x00\n      mstore\n      keccak256(0x00, 0x20)\n      swap1\n    tag_70:\n      dup2\n      sload\n      dup2\n      mstore\n      swap1\n      0x01\n      add\n      swap1\n      0x20\n      add\n      dup1\n      dup4\n      gt\n      tag_70\n      jumpi\n      dup3\n      swap1\n      sub\n      0x1f\n      and\n      dup3\n      add\n      swap2\n    tag_68:\n      pop\n      pop\n      pop\n      pop\n      pop\n      swap1\n      dup1\n      0x02\n      add\n      dup1\n      sload\n      tag_71\n      swap1\n      tag_66\n      jump\t// in\n    tag_71:\n      dup1\n      0x1f\n      add\n      0x20\n      dup1\n      swap2\n      div\n      mul\n      0x20\n      add\n      mload(0x40)\n      swap1\n      dup2\n      add\n      0x40\n      mstore\n      dup1\n      swap3\n      swap2\n      swap1\n      dup2\n      dup2\n      mstore\n      0x20\n      add\n      dup3\n      dup1\n      sload\n      tag_72\n      swap1\n      tag_66\n      jump\t// in\n    tag_72:\n      dup1\n      iszero\n      tag_73\n      jumpi\n      dup1\n      0x1f\n      lt\n      tag_74\n      jumpi\n      0x0100\n      dup1\n      dup4\n      sload\n      div\n      mul\n      dup4\n      mstore\n      swap2\n      0x20\n      add\n      swap2\n      jump(tag_73)\n    tag_74:\n      dup3\n      add\n      swap2\n      swap1\n      0x00\n      mstore\n      keccak256(0x00, 0x20)\n      swap1\n    tag_75:\n      dup2\n      sload\n      dup2\n      mstore\n      swap1\n      0x01\n      add\n      swap1\n      0x20\n      add\n      dup1\n      dup4\n      gt\n      tag_75\n      jumpi\n      dup3\n      swap1\n      sub\n      0x1f\n      and\n      dup3\n      add\n      swap2\n    tag_73:\n      pop\n      pop\n      pop\n      pop\n      pop\n      swap1\n      dup1\n      0x03\n      add\n      sload\n      swap1\n      pop\n      dup5\n      jump\t// out\n        /* \"contracts/sistemaVotacion.sol\":318:346  Parametros public parametros */\n    tag_24:\n      0x00\n      dup1\n      0x00\n      add\n      0x00\n      swap1\n      sload\n      swap1\n      0x0100\n      exp\n      swap1\n      div\n      0xffffffffffffffffffffffffffffffffffffffff\n      and\n      swap1\n      dup1\n      0x00\n      add\n      0x14\n      swap1\n      sload\n      swap1\n      0x0100\n      exp\n      swap1\n      div\n      0xff\n      and\n      swap1\n      pop\n      dup3\n      jump\t// out\n        /* \"contracts/sistemaVotacion.sol\":1841:2585  function resultados() public votacionAbierta view returns (... */\n    tag_28:\n        /* \"contracts/sistemaVotacion.sol\":1910:1923  uint[] memory */\n      0x60\n        /* \"contracts/sistemaVotacion.sol\":1935:1950  string[] memory */\n      dup1\n        /* \"contracts/sistemaVotacion.sol\":1962:1977  string[] memory */\n      0x60\n        /* \"contracts/sistemaVotacion.sol\":1988:2001  uint[] memory */\n      dup1\n        /* \"contracts/sistemaVotacion.sol\":824:834  parametros */\n      0x00\n        /* \"contracts/sistemaVotacion.sol\":824:853  parametros.inscripcionAbierta */\n      dup1\n      add\n      0x14\n      swap1\n      sload\n      swap1\n      0x0100\n      exp\n      swap1\n      div\n      0xff\n      and\n        /* \"contracts/sistemaVotacion.sol\":823:853  !parametros.inscripcionAbierta */\n      iszero\n        /* \"contracts/sistemaVotacion.sol\":815:895  require(!parametros.inscripcionAbierta, \"Accion no pertimida, votacion abierta\") */\n      tag_77\n      jumpi\n      mload(0x40)\n      0x08c379a000000000000000000000000000000000000000000000000000000000\n      dup2\n      mstore\n      0x04\n      add\n      tag_78\n      swap1\n      tag_79\n      jump\t// in\n    tag_78:\n      mload(0x40)\n      dup1\n      swap2\n      sub\n      swap1\n      revert\n    tag_77:\n        /* \"contracts/sistemaVotacion.sol\":2020:2038  uint[] memory _ids */\n      0x00\n        /* \"contracts/sistemaVotacion.sol\":2052:2060  partidos */\n      0x01\n        /* \"contracts/sistemaVotacion.sol\":2052:2067  partidos.length */\n      dup1\n      sload\n      swap1\n      pop\n        /* \"contracts/sistemaVotacion.sol\":2041:2068  new uint[](partidos.length) */\n      0xffffffffffffffff\n      dup2\n      gt\n      iszero\n      tag_81\n      jumpi\n      tag_82\n      tag_83\n      jump\t// in\n    tag_82:\n    tag_81:\n      mload(0x40)\n      swap1\n      dup1\n      dup3\n      mstore\n      dup1\n      0x20\n      mul\n      0x20\n      add\n      dup3\n      add\n      0x40\n      mstore\n      dup1\n      iszero\n      tag_84\n      jumpi\n      dup2\n      0x20\n      add\n      0x20\n      dup3\n      mul\n      dup1\n      calldatasize\n      dup4\n      calldatacopy\n      dup1\n      dup3\n      add\n      swap2\n      pop\n      pop\n      swap1\n      pop\n    tag_84:\n      pop\n        /* \"contracts/sistemaVotacion.sol\":2020:2068  uint[] memory _ids = new uint[](partidos.length) */\n      swap1\n      pop\n        /* \"contracts/sistemaVotacion.sol\":2079:2102  string[] memory _siglas */\n      0x00\n        /* \"contracts/sistemaVotacion.sol\":2118:2126  partidos */\n      0x01\n        /* \"contracts/sistemaVotacion.sol\":2118:2133  partidos.length */\n      dup1\n      sload\n      swap1\n      pop\n        /* \"contracts/sistemaVotacion.sol\":2105:2134  new string[](partidos.length) */\n      0xffffffffffffffff\n      dup2\n      gt\n      iszero\n      tag_85\n      jumpi\n      tag_86\n      tag_83\n      jump\t// in\n    tag_86:\n    tag_85:\n      mload(0x40)\n      swap1\n      dup1\n      dup3\n      mstore\n      dup1\n      0x20\n      mul\n      0x20\n      add\n      dup3\n      add\n      0x40\n      mstore\n      dup1\n      iszero\n      tag_87\n      jumpi\n      dup2\n      0x20\n      add\n    tag_88:\n      0x60\n      dup2\n      mstore\n      0x20\n      add\n      swap1\n      0x01\n      swap1\n      sub\n      swap1\n      dup2\n      tag_88\n      jumpi\n      swap1\n      pop\n    tag_87:\n      pop\n        /* \"contracts/sistemaVotacion.sol\":2079:2134  string[] memory _siglas = new string[](partidos.length) */\n      swap1\n      pop\n        /* \"contracts/sistemaVotacion.sol\":2145:2172  string[] memory _candidatos */\n      0x00\n        /* \"contracts/sistemaVotacion.sol\":2188:2196  partidos */\n      0x01\n        /* \"contracts/sistemaVotacion.sol\":2188:2203  partidos.length */\n      dup1\n      sload\n      swap1\n      pop\n        /* \"contracts/sistemaVotacion.sol\":2175:2204  new string[](partidos.length) */\n      0xffffffffffffffff\n      dup2\n      gt\n      iszero\n      tag_89\n      jumpi\n      tag_90\n      tag_83\n      jump\t// in\n    tag_90:\n    tag_89:\n      mload(0x40)\n      swap1\n      dup1\n      dup3\n      mstore\n      dup1\n      0x20\n      mul\n      0x20\n      add\n      dup3\n      add\n      0x40\n      mstore\n      dup1\n      iszero\n      tag_91\n      jumpi\n      dup2\n      0x20\n      add\n    tag_92:\n      0x60\n      dup2\n      mstore\n      0x20\n      add\n      swap1\n      0x01\n      swap1\n      sub\n      swap1\n      dup2\n      tag_92\n      jumpi\n      swap1\n      pop\n    tag_91:\n      pop\n        /* \"contracts/sistemaVotacion.sol\":2145:2204  string[] memory _candidatos = new string[](partidos.length) */\n      swap1\n      pop\n        /* \"contracts/sistemaVotacion.sol\":2215:2238  uint[] memory _nroVotos */\n      0x00\n        /* \"contracts/sistemaVotacion.sol\":2252:2260  partidos */\n      0x01\n        /* \"contracts/sistemaVotacion.sol\":2252:2267  partidos.length */\n      dup1\n      sload\n      swap1\n      pop\n        /* \"contracts/sistemaVotacion.sol\":2241:2268  new uint[](partidos.length) */\n      0xffffffffffffffff\n      dup2\n      gt\n      iszero\n      tag_93\n      jumpi\n      tag_94\n      tag_83\n      jump\t// in\n    tag_94:\n    tag_93:\n      mload(0x40)\n      swap1\n      dup1\n      dup3\n      mstore\n      dup1\n      0x20\n      mul\n      0x20\n      add\n      dup3\n      add\n      0x40\n      mstore\n      dup1\n      iszero\n      tag_95\n      jumpi\n      dup2\n      0x20\n      add\n      0x20\n      dup3\n      mul\n      dup1\n      calldatasize\n      dup4\n      calldatacopy\n      dup1\n      dup3\n      add\n      swap2\n      pop\n      pop\n      swap1\n      pop\n    tag_95:\n      pop\n        /* \"contracts/sistemaVotacion.sol\":2215:2268  uint[] memory _nroVotos = new uint[](partidos.length) */\n      swap1\n      pop\n        /* \"contracts/sistemaVotacion.sol\":2286:2292  uint i */\n      0x00\n        /* \"contracts/sistemaVotacion.sol\":2281:2519  for (uint i=0; i< partidos.length; i++){... */\n    tag_96:\n        /* \"contracts/sistemaVotacion.sol\":2299:2307  partidos */\n      0x01\n        /* \"contracts/sistemaVotacion.sol\":2299:2314  partidos.length */\n      dup1\n      sload\n      swap1\n      pop\n        /* \"contracts/sistemaVotacion.sol\":2296:2297  i */\n      dup2\n        /* \"contracts/sistemaVotacion.sol\":2296:2314  i< partidos.length */\n      lt\n        /* \"contracts/sistemaVotacion.sol\":2281:2519  for (uint i=0; i< partidos.length; i++){... */\n      iszero\n      tag_97\n      jumpi\n        /* \"contracts/sistemaVotacion.sol\":2345:2353  partidos */\n      0x01\n        /* \"contracts/sistemaVotacion.sol\":2354:2355  i */\n      dup2\n        /* \"contracts/sistemaVotacion.sol\":2345:2356  partidos[i] */\n      dup2\n      sload\n      dup2\n      lt\n      tag_99\n      jumpi\n      tag_100\n      tag_59\n      jump\t// in\n    tag_100:\n    tag_99:\n      swap1\n      0x00\n      mstore\n      keccak256(0x00, 0x20)\n      swap1\n      0x04\n      mul\n      add\n        /* \"contracts/sistemaVotacion.sol\":2345:2359  partidos[i].id */\n      0x00\n      add\n      sload\n        /* \"contracts/sistemaVotacion.sol\":2335:2339  _ids */\n      dup6\n        /* \"contracts/sistemaVotacion.sol\":2340:2341  i */\n      dup3\n        /* \"contracts/sistemaVotacion.sol\":2335:2342  _ids[i] */\n      dup2\n      mload\n      dup2\n      lt\n      tag_102\n      jumpi\n      tag_103\n      tag_59\n      jump\t// in\n    tag_103:\n    tag_102:\n      0x20\n      mul\n      0x20\n      add\n      add\n        /* \"contracts/sistemaVotacion.sol\":2335:2359  _ids[i] = partidos[i].id */\n      dup2\n      dup2\n      mstore\n      pop\n      pop\n        /* \"contracts/sistemaVotacion.sol\":2387:2395  partidos */\n      0x01\n        /* \"contracts/sistemaVotacion.sol\":2396:2397  i */\n      dup2\n        /* \"contracts/sistemaVotacion.sol\":2387:2398  partidos[i] */\n      dup2\n      sload\n      dup2\n      lt\n      tag_104\n      jumpi\n      tag_105\n      tag_59\n      jump\t// in\n    tag_105:\n    tag_104:\n      swap1\n      0x00\n      mstore\n      keccak256(0x00, 0x20)\n      swap1\n      0x04\n      mul\n      add\n        /* \"contracts/sistemaVotacion.sol\":2387:2404  partidos[i].sigla */\n      0x01\n      add\n        /* \"contracts/sistemaVotacion.sol\":2374:2404  _siglas[i] = partidos[i].sigla */\n      dup1\n      sload\n      tag_107\n      swap1\n      tag_66\n      jump\t// in\n    tag_107:\n      dup1\n      0x1f\n      add\n      0x20\n      dup1\n      swap2\n      div\n      mul\n      0x20\n      add\n      mload(0x40)\n      swap1\n      dup2\n      add\n      0x40\n      mstore\n      dup1\n      swap3\n      swap2\n      swap1\n      dup2\n      dup2\n      mstore\n      0x20\n      add\n      dup3\n      dup1\n      sload\n      tag_108\n      swap1\n      tag_66\n      jump\t// in\n    tag_108:\n      dup1\n      iszero\n      tag_109\n      jumpi\n      dup1\n      0x1f\n      lt\n      tag_110\n      jumpi\n      0x0100\n      dup1\n      dup4\n      sload\n      div\n      mul\n      dup4\n      mstore\n      swap2\n      0x20\n      add\n      swap2\n      jump(tag_109)\n    tag_110:\n      dup3\n      add\n      swap2\n      swap1\n      0x00\n      mstore\n      keccak256(0x00, 0x20)\n      swap1\n    tag_111:\n      dup2\n      sload\n      dup2\n      mstore\n      swap1\n      0x01\n      add\n      swap1\n      0x20\n      add\n      dup1\n      dup4\n      gt\n      tag_111\n      jumpi\n      dup3\n      swap1\n      sub\n      0x1f\n      and\n      dup3\n      add\n      swap2\n    tag_109:\n      pop\n      pop\n      pop\n      pop\n      pop\n        /* \"contracts/sistemaVotacion.sol\":2374:2381  _siglas */\n      dup5\n        /* \"contracts/sistemaVotacion.sol\":2382:2383  i */\n      dup3\n        /* \"contracts/sistemaVotacion.sol\":2374:2384  _siglas[i] */\n      dup2\n      mload\n      dup2\n      lt\n      tag_112\n      jumpi\n      tag_113\n      tag_59\n      jump\t// in\n    tag_113:\n    tag_112:\n      0x20\n      mul\n      0x20\n      add\n      add\n        /* \"contracts/sistemaVotacion.sol\":2374:2404  _siglas[i] = partidos[i].sigla */\n      dup2\n      swap1\n      mstore\n      pop\n        /* \"contracts/sistemaVotacion.sol\":2436:2444  partidos */\n      0x01\n        /* \"contracts/sistemaVotacion.sol\":2445:2446  i */\n      dup2\n        /* \"contracts/sistemaVotacion.sol\":2436:2447  partidos[i] */\n      dup2\n      sload\n      dup2\n      lt\n      tag_114\n      jumpi\n      tag_115\n      tag_59\n      jump\t// in\n    tag_115:\n    tag_114:\n      swap1\n      0x00\n      mstore\n      keccak256(0x00, 0x20)\n      swap1\n      0x04\n      mul\n      add\n        /* \"contracts/sistemaVotacion.sol\":2436:2457  partidos[i].candidato */\n      0x02\n      add\n        /* \"contracts/sistemaVotacion.sol\":2419:2457  _candidatos[i] = partidos[i].candidato */\n      dup1\n      sload\n      tag_117\n      swap1\n      tag_66\n      jump\t// in\n    tag_117:\n      dup1\n      0x1f\n      add\n      0x20\n      dup1\n      swap2\n      div\n      mul\n      0x20\n      add\n      mload(0x40)\n      swap1\n      dup2\n      add\n      0x40\n      mstore\n      dup1\n      swap3\n      swap2\n      swap1\n      dup2\n      dup2\n      mstore\n      0x20\n      add\n      dup3\n      dup1\n      sload\n      tag_118\n      swap1\n      tag_66\n      jump\t// in\n    tag_118:\n      dup1\n      iszero\n      tag_119\n      jumpi\n      dup1\n      0x1f\n      lt\n      tag_120\n      jumpi\n      0x0100\n      dup1\n      dup4\n      sload\n      div\n      mul\n      dup4\n      mstore\n      swap2\n      0x20\n      add\n      swap2\n      jump(tag_119)\n    tag_120:\n      dup3\n      add\n      swap2\n      swap1\n      0x00\n      mstore\n      keccak256(0x00, 0x20)\n      swap1\n    tag_121:\n      dup2\n      sload\n      dup2\n      mstore\n      swap1\n      0x01\n      add\n      swap1\n      0x20\n      add\n      dup1\n      dup4\n      gt\n      tag_121\n      jumpi\n      dup3\n      swap1\n      sub\n      0x1f\n      and\n      dup3\n      add\n      swap2\n    tag_119:\n      pop\n      pop\n      pop\n      pop\n      pop\n        /* \"contracts/sistemaVotacion.sol\":2419:2430  _candidatos */\n      dup4\n        /* \"contracts/sistemaVotacion.sol\":2431:2432  i */\n      dup3\n        /* \"contracts/sistemaVotacion.sol\":2419:2433  _candidatos[i] */\n      dup2\n      mload\n      dup2\n      lt\n      tag_122\n      jumpi\n      tag_123\n      tag_59\n      jump\t// in\n    tag_123:\n    tag_122:\n      0x20\n      mul\n      0x20\n      add\n      add\n        /* \"contracts/sistemaVotacion.sol\":2419:2457  _candidatos[i] = partidos[i].candidato */\n      dup2\n      swap1\n      mstore\n      pop\n        /* \"contracts/sistemaVotacion.sol\":2487:2495  partidos */\n      0x01\n        /* \"contracts/sistemaVotacion.sol\":2496:2497  i */\n      dup2\n        /* \"contracts/sistemaVotacion.sol\":2487:2498  partidos[i] */\n      dup2\n      sload\n      dup2\n      lt\n      tag_124\n      jumpi\n      tag_125\n      tag_59\n      jump\t// in\n    tag_125:\n    tag_124:\n      swap1\n      0x00\n      mstore\n      keccak256(0x00, 0x20)\n      swap1\n      0x04\n      mul\n      add\n        /* \"contracts/sistemaVotacion.sol\":2487:2507  partidos[i].nroVotos */\n      0x03\n      add\n      sload\n        /* \"contracts/sistemaVotacion.sol\":2472:2481  _nroVotos */\n      dup3\n        /* \"contracts/sistemaVotacion.sol\":2482:2483  i */\n      dup3\n        /* \"contracts/sistemaVotacion.sol\":2472:2484  _nroVotos[i] */\n      dup2\n      mload\n      dup2\n      lt\n      tag_127\n      jumpi\n      tag_128\n      tag_59\n      jump\t// in\n    tag_128:\n    tag_127:\n      0x20\n      mul\n      0x20\n      add\n      add\n        /* \"contracts/sistemaVotacion.sol\":2472:2507  _nroVotos[i] = partidos[i].nroVotos */\n      dup2\n      dup2\n      mstore\n      pop\n      pop\n        /* \"contracts/sistemaVotacion.sol\":2316:2319  i++ */\n      dup1\n      dup1\n      tag_129\n      swap1\n      tag_62\n      jump\t// in\n    tag_129:\n      swap2\n      pop\n      pop\n        /* \"contracts/sistemaVotacion.sol\":2281:2519  for (uint i=0; i< partidos.length; i++){... */\n      jump(tag_96)\n    tag_97:\n      pop\n        /* \"contracts/sistemaVotacion.sol\":2539:2543  _ids */\n      dup4\n        /* \"contracts/sistemaVotacion.sol\":2545:2552  _siglas */\n      dup4\n        /* \"contracts/sistemaVotacion.sol\":2554:2565  _candidatos */\n      dup4\n        /* \"contracts/sistemaVotacion.sol\":2567:2576  _nroVotos */\n      dup4\n        /* \"contracts/sistemaVotacion.sol\":2531:2577  return (_ids, _siglas, _candidatos, _nroVotos) */\n      swap8\n      pop\n      swap8\n      pop\n      swap8\n      pop\n      swap8\n      pop\n      pop\n      pop\n      pop\n      pop\n        /* \"contracts/sistemaVotacion.sol\":1841:2585  function resultados() public votacionAbierta view returns (... */\n      swap1\n      swap2\n      swap3\n      swap4\n      jump\t// out\n        /* \"contracts/sistemaVotacion.sol\":1067:1270  function nuevoPartido(string memory _sigla,string memory _candidato) public autority votacionAbierta{... */\n    tag_34:\n        /* \"contracts/sistemaVotacion.sol\":720:730  msg.sender */\n      caller\n        /* \"contracts/sistemaVotacion.sol\":689:730  parametros.autoridadAddress == msg.sender */\n      0xffffffffffffffffffffffffffffffffffffffff\n      and\n        /* \"contracts/sistemaVotacion.sol\":689:699  parametros */\n      0x00\n        /* \"contracts/sistemaVotacion.sol\":689:716  parametros.autoridadAddress */\n      dup1\n      add\n      0x00\n      swap1\n      sload\n      swap1\n      0x0100\n      exp\n      swap1\n      div\n      0xffffffffffffffffffffffffffffffffffffffff\n      and\n        /* \"contracts/sistemaVotacion.sol\":689:730  parametros.autoridadAddress == msg.sender */\n      0xffffffffffffffffffffffffffffffffffffffff\n      and\n      eq\n        /* \"contracts/sistemaVotacion.sol\":681:750  require(parametros.autoridadAddress == msg.sender, \"Acceso denegado\") */\n      tag_131\n      jumpi\n      mload(0x40)\n      0x08c379a000000000000000000000000000000000000000000000000000000000\n      dup2\n      mstore\n      0x04\n      add\n      tag_132\n      swap1\n      tag_44\n      jump\t// in\n    tag_132:\n      mload(0x40)\n      dup1\n      swap2\n      sub\n      swap1\n      revert\n    tag_131:\n        /* \"contracts/sistemaVotacion.sol\":824:834  parametros */\n      0x00\n        /* \"contracts/sistemaVotacion.sol\":824:853  parametros.inscripcionAbierta */\n      dup1\n      add\n      0x14\n      swap1\n      sload\n      swap1\n      0x0100\n      exp\n      swap1\n      div\n      0xff\n      and\n        /* \"contracts/sistemaVotacion.sol\":823:853  !parametros.inscripcionAbierta */\n      iszero\n        /* \"contracts/sistemaVotacion.sol\":815:895  require(!parametros.inscripcionAbierta, \"Accion no pertimida, votacion abierta\") */\n      tag_134\n      jumpi\n      mload(0x40)\n      0x08c379a000000000000000000000000000000000000000000000000000000000\n      dup2\n      mstore\n      0x04\n      add\n      tag_135\n      swap1\n      tag_79\n      jump\t// in\n    tag_135:\n      mload(0x40)\n      dup1\n      swap2\n      sub\n      swap1\n      revert\n    tag_134:\n        /* \"contracts/sistemaVotacion.sol\":1178:1186  uint _id */\n      0x00\n        /* \"contracts/sistemaVotacion.sol\":1189:1197  partidos */\n      0x01\n        /* \"contracts/sistemaVotacion.sol\":1189:1204  partidos.length */\n      dup1\n      sload\n      swap1\n      pop\n        /* \"contracts/sistemaVotacion.sol\":1178:1204  uint _id = partidos.length */\n      swap1\n      pop\n        /* \"contracts/sistemaVotacion.sol\":1215:1223  partidos */\n      0x01\n        /* \"contracts/sistemaVotacion.sol\":1229:1261  Partido(_id,_sigla,_candidato,0) */\n      mload(0x40)\n      dup1\n      0x80\n      add\n      0x40\n      mstore\n      dup1\n        /* \"contracts/sistemaVotacion.sol\":1237:1240  _id */\n      dup4\n        /* \"contracts/sistemaVotacion.sol\":1229:1261  Partido(_id,_sigla,_candidato,0) */\n      dup2\n      mstore\n      0x20\n      add\n        /* \"contracts/sistemaVotacion.sol\":1241:1247  _sigla */\n      dup6\n        /* \"contracts/sistemaVotacion.sol\":1229:1261  Partido(_id,_sigla,_candidato,0) */\n      dup2\n      mstore\n      0x20\n      add\n        /* \"contracts/sistemaVotacion.sol\":1248:1258  _candidato */\n      dup5\n        /* \"contracts/sistemaVotacion.sol\":1229:1261  Partido(_id,_sigla,_candidato,0) */\n      dup2\n      mstore\n      0x20\n      add\n        /* \"contracts/sistemaVotacion.sol\":1259:1260  0 */\n      0x00\n        /* \"contracts/sistemaVotacion.sol\":1229:1261  Partido(_id,_sigla,_candidato,0) */\n      dup2\n      mstore\n      pop\n        /* \"contracts/sistemaVotacion.sol\":1215:1262  partidos.push(Partido(_id,_sigla,_candidato,0)) */\n      swap1\n      dup1\n      0x01\n      dup2\n      sload\n      add\n      dup1\n      dup3\n      sstore\n      dup1\n      swap2\n      pop\n      pop\n      0x01\n      swap1\n      sub\n      swap1\n      0x00\n      mstore\n      keccak256(0x00, 0x20)\n      swap1\n      0x04\n      mul\n      add\n      0x00\n      swap1\n      swap2\n      swap1\n      swap2\n      swap1\n      swap2\n      pop\n      0x00\n      dup3\n      add\n      mload\n      dup2\n      0x00\n      add\n      sstore\n      0x20\n      dup3\n      add\n      mload\n      dup2\n      0x01\n      add\n      swap1\n      dup2\n      tag_138\n      swap2\n      swap1\n      tag_139\n      jump\t// in\n    tag_138:\n      pop\n      0x40\n      dup3\n      add\n      mload\n      dup2\n      0x02\n      add\n      swap1\n      dup2\n      tag_140\n      swap2\n      swap1\n      tag_139\n      jump\t// in\n    tag_140:\n      pop\n      0x60\n      dup3\n      add\n      mload\n      dup2\n      0x03\n      add\n      sstore\n      pop\n      pop\n        /* \"contracts/sistemaVotacion.sol\":1167:1270  {... */\n      pop\n        /* \"contracts/sistemaVotacion.sol\":1067:1270  function nuevoPartido(string memory _sigla,string memory _candidato) public autority votacionAbierta{... */\n      pop\n      pop\n      jump\t// out\n        /* \"contracts/sistemaVotacion.sol\":1278:1374  function abrirVotacion() public autority {... */\n    tag_36:\n        /* \"contracts/sistemaVotacion.sol\":720:730  msg.sender */\n      caller\n        /* \"contracts/sistemaVotacion.sol\":689:730  parametros.autoridadAddress == msg.sender */\n      0xffffffffffffffffffffffffffffffffffffffff\n      and\n        /* \"contracts/sistemaVotacion.sol\":689:699  parametros */\n      0x00\n        /* \"contracts/sistemaVotacion.sol\":689:716  parametros.autoridadAddress */\n      dup1\n      add\n      0x00\n      swap1\n      sload\n      swap1\n      0x0100\n      exp\n      swap1\n      div\n      0xffffffffffffffffffffffffffffffffffffffff\n      and\n        /* \"contracts/sistemaVotacion.sol\":689:730  parametros.autoridadAddress == msg.sender */\n      0xffffffffffffffffffffffffffffffffffffffff\n      and\n      eq\n        /* \"contracts/sistemaVotacion.sol\":681:750  require(parametros.autoridadAddress == msg.sender, \"Acceso denegado\") */\n      tag_142\n      jumpi\n      mload(0x40)\n      0x08c379a000000000000000000000000000000000000000000000000000000000\n      dup2\n      mstore\n      0x04\n      add\n      tag_143\n      swap1\n      tag_44\n      jump\t// in\n    tag_143:\n      mload(0x40)\n      dup1\n      swap2\n      sub\n      swap1\n      revert\n    tag_142:\n        /* \"contracts/sistemaVotacion.sol\":1362:1366  true */\n      0x01\n        /* \"contracts/sistemaVotacion.sol\":1330:1340  parametros */\n      0x00\n        /* \"contracts/sistemaVotacion.sol\":1330:1359  parametros.inscripcionAbierta */\n      dup1\n      add\n      0x14\n        /* \"contracts/sistemaVotacion.sol\":1330:1366  parametros.inscripcionAbierta = true */\n      0x0100\n      exp\n      dup2\n      sload\n      dup2\n      0xff\n      mul\n      not\n      and\n      swap1\n      dup4\n      iszero\n      iszero\n      mul\n      or\n      swap1\n      sstore\n      pop\n        /* \"contracts/sistemaVotacion.sol\":1278:1374  function abrirVotacion() public autority {... */\n      jump\t// out\n        /* \"contracts/sistemaVotacion.sol\":2595:2957  function ganador() public votacionAbierta view returns (... */\n    tag_38:\n        /* \"contracts/sistemaVotacion.sol\":2661:2675  Partido memory */\n      tag_145\n      tag_146\n      jump\t// in\n    tag_145:\n        /* \"contracts/sistemaVotacion.sol\":824:834  parametros */\n      0x00\n        /* \"contracts/sistemaVotacion.sol\":824:853  parametros.inscripcionAbierta */\n      dup1\n      add\n      0x14\n      swap1\n      sload\n      swap1\n      0x0100\n      exp\n      swap1\n      div\n      0xff\n      and\n        /* \"contracts/sistemaVotacion.sol\":823:853  !parametros.inscripcionAbierta */\n      iszero\n        /* \"contracts/sistemaVotacion.sol\":815:895  require(!parametros.inscripcionAbierta, \"Accion no pertimida, votacion abierta\") */\n      tag_148\n      jumpi\n      mload(0x40)\n      0x08c379a000000000000000000000000000000000000000000000000000000000\n      dup2\n      mstore\n      0x04\n      add\n      tag_149\n      swap1\n      tag_79\n      jump\t// in\n    tag_149:\n      mload(0x40)\n      dup1\n      swap2\n      sub\n      swap1\n      revert\n    tag_148:\n        /* \"contracts/sistemaVotacion.sol\":2694:2704  uint votos */\n      0x00\n        /* \"contracts/sistemaVotacion.sol\":2719:2726  uint id */\n      dup1\n        /* \"contracts/sistemaVotacion.sol\":2748:2754  uint i */\n      0x00\n        /* \"contracts/sistemaVotacion.sol\":2743:2920  for (uint i=0; i< partidos.length; i++){... */\n    tag_151:\n        /* \"contracts/sistemaVotacion.sol\":2761:2769  partidos */\n      0x01\n        /* \"contracts/sistemaVotacion.sol\":2761:2776  partidos.length */\n      dup1\n      sload\n      swap1\n      pop\n        /* \"contracts/sistemaVotacion.sol\":2758:2759  i */\n      dup2\n        /* \"contracts/sistemaVotacion.sol\":2758:2776  i< partidos.length */\n      lt\n        /* \"contracts/sistemaVotacion.sol\":2743:2920  for (uint i=0; i< partidos.length; i++){... */\n      iszero\n      tag_152\n      jumpi\n        /* \"contracts/sistemaVotacion.sol\":2823:2828  votos */\n      dup3\n        /* \"contracts/sistemaVotacion.sol\":2800:2808  partidos */\n      0x01\n        /* \"contracts/sistemaVotacion.sol\":2809:2810  i */\n      dup3\n        /* \"contracts/sistemaVotacion.sol\":2800:2811  partidos[i] */\n      dup2\n      sload\n      dup2\n      lt\n      tag_154\n      jumpi\n      tag_155\n      tag_59\n      jump\t// in\n    tag_155:\n    tag_154:\n      swap1\n      0x00\n      mstore\n      keccak256(0x00, 0x20)\n      swap1\n      0x04\n      mul\n      add\n        /* \"contracts/sistemaVotacion.sol\":2800:2820  partidos[i].nroVotos */\n      0x03\n      add\n      sload\n        /* \"contracts/sistemaVotacion.sol\":2800:2828  partidos[i].nroVotos > votos */\n      gt\n        /* \"contracts/sistemaVotacion.sol\":2796:2909  if (partidos[i].nroVotos > votos) {... */\n      iszero\n      tag_157\n      jumpi\n        /* \"contracts/sistemaVotacion.sol\":2853:2861  partidos */\n      0x01\n        /* \"contracts/sistemaVotacion.sol\":2862:2863  i */\n      dup2\n        /* \"contracts/sistemaVotacion.sol\":2853:2864  partidos[i] */\n      dup2\n      sload\n      dup2\n      lt\n      tag_158\n      jumpi\n      tag_159\n      tag_59\n      jump\t// in\n    tag_159:\n    tag_158:\n      swap1\n      0x00\n      mstore\n      keccak256(0x00, 0x20)\n      swap1\n      0x04\n      mul\n      add\n        /* \"contracts/sistemaVotacion.sol\":2853:2873  partidos[i].nroVotos */\n      0x03\n      add\n      sload\n        /* \"contracts/sistemaVotacion.sol\":2845:2873  votos = partidos[i].nroVotos */\n      swap3\n      pop\n        /* \"contracts/sistemaVotacion.sol\":2893:2894  i */\n      dup1\n        /* \"contracts/sistemaVotacion.sol\":2888:2894  id = i */\n      swap2\n      pop\n        /* \"contracts/sistemaVotacion.sol\":2796:2909  if (partidos[i].nroVotos > votos) {... */\n    tag_157:\n        /* \"contracts/sistemaVotacion.sol\":2778:2781  i++ */\n      dup1\n      dup1\n      tag_161\n      swap1\n      tag_62\n      jump\t// in\n    tag_161:\n      swap2\n      pop\n      pop\n        /* \"contracts/sistemaVotacion.sol\":2743:2920  for (uint i=0; i< partidos.length; i++){... */\n      jump(tag_151)\n    tag_152:\n      pop\n        /* \"contracts/sistemaVotacion.sol\":2937:2945  partidos */\n      0x01\n        /* \"contracts/sistemaVotacion.sol\":2946:2948  id */\n      dup2\n        /* \"contracts/sistemaVotacion.sol\":2937:2949  partidos[id] */\n      dup2\n      sload\n      dup2\n      lt\n      tag_162\n      jumpi\n      tag_163\n      tag_59\n      jump\t// in\n    tag_163:\n    tag_162:\n      swap1\n      0x00\n      mstore\n      keccak256(0x00, 0x20)\n      swap1\n      0x04\n      mul\n      add\n        /* \"contracts/sistemaVotacion.sol\":2930:2949  return partidos[id] */\n      mload(0x40)\n      dup1\n      0x80\n      add\n      0x40\n      mstore\n      swap1\n      dup2\n      0x00\n      dup3\n      add\n      sload\n      dup2\n      mstore\n      0x20\n      add\n      0x01\n      dup3\n      add\n      dup1\n      sload\n      tag_165\n      swap1\n      tag_66\n      jump\t// in\n    tag_165:\n      dup1\n      0x1f\n      add\n      0x20\n      dup1\n      swap2\n      div\n      mul\n      0x20\n      add\n      mload(0x40)\n      swap1\n      dup2\n      add\n      0x40\n      mstore\n      dup1\n      swap3\n      swap2\n      swap1\n      dup2\n      dup2\n      mstore\n      0x20\n      add\n      dup3\n      dup1\n      sload\n      tag_166\n      swap1\n      tag_66\n      jump\t// in\n    tag_166:\n      dup1\n      iszero\n      tag_167\n      jumpi\n      dup1\n      0x1f\n      lt\n      tag_168\n      jumpi\n      0x0100\n      dup1\n      dup4\n      sload\n      div\n      mul\n      dup4\n      mstore\n      swap2\n      0x20\n      add\n      swap2\n      jump(tag_167)\n    tag_168:\n      dup3\n      add\n      swap2\n      swap1\n      0x00\n      mstore\n      keccak256(0x00, 0x20)\n      swap1\n    tag_169:\n      dup2\n      sload\n      dup2\n      mstore\n      swap1\n      0x01\n      add\n      swap1\n      0x20\n      add\n      dup1\n      dup4\n      gt\n      tag_169\n      jumpi\n      dup3\n      swap1\n      sub\n      0x1f\n      and\n      dup3\n      add\n      swap2\n    tag_167:\n      pop\n      pop\n      pop\n      pop\n      pop\n      dup2\n      mstore\n      0x20\n      add\n      0x02\n      dup3\n      add\n      dup1\n      sload\n      tag_170\n      swap1\n      tag_66\n      jump\t// in\n    tag_170:\n      dup1\n      0x1f\n      add\n      0x20\n      dup1\n      swap2\n      div\n      mul\n      0x20\n      add\n      mload(0x40)\n      swap1\n      dup2\n      add\n      0x40\n      mstore\n      dup1\n      swap3\n      swap2\n      swap1\n      dup2\n      dup2\n      mstore\n      0x20\n      add\n      dup3\n      dup1\n      sload\n      tag_171\n      swap1\n      tag_66\n      jump\t// in\n    tag_171:\n      dup1\n      iszero\n      tag_172\n      jumpi\n      dup1\n      0x1f\n      lt\n      tag_173\n      jumpi\n      0x0100\n      dup1\n      dup4\n      sload\n      div\n      mul\n      dup4\n      mstore\n      swap2\n      0x20\n      add\n      swap2\n      jump(tag_172)\n    tag_173:\n      dup3\n      add\n      swap2\n      swap1\n      0x00\n      mstore\n      keccak256(0x00, 0x20)\n      swap1\n    tag_174:\n      dup2\n      sload\n      dup2\n      mstore\n      swap1\n      0x01\n      add\n      swap1\n      0x20\n      add\n      dup1\n      dup4\n      gt\n      tag_174\n      jumpi\n      dup3\n      swap1\n      sub\n      0x1f\n      and\n      dup3\n      add\n      swap2\n    tag_172:\n      pop\n      pop\n      pop\n      pop\n      pop\n      dup2\n      mstore\n      0x20\n      add\n      0x03\n      dup3\n      add\n      sload\n      dup2\n      mstore\n      pop\n      pop\n      swap3\n      pop\n      pop\n      pop\n        /* \"contracts/sistemaVotacion.sol\":2595:2957  function ganador() public votacionAbierta view returns (... */\n      swap1\n      jump\t// out\n    tag_146:\n      mload(0x40)\n      dup1\n      0x80\n      add\n      0x40\n      mstore\n      dup1\n      0x00\n      dup2\n      mstore\n      0x20\n      add\n      0x60\n      dup2\n      mstore\n      0x20\n      add\n      0x60\n      dup2\n      mstore\n      0x20\n      add\n      0x00\n      dup2\n      mstore\n      pop\n      swap1\n      jump\t// out\n        /* \"#utility.yul\":7:82   */\n    tag_175:\n        /* \"#utility.yul\":40:46   */\n      0x00\n        /* \"#utility.yul\":73:75   */\n      0x40\n        /* \"#utility.yul\":67:76   */\n      mload\n        /* \"#utility.yul\":57:76   */\n      swap1\n      pop\n        /* \"#utility.yul\":7:82   */\n      swap1\n      jump\t// out\n        /* \"#utility.yul\":88:205   */\n    tag_176:\n        /* \"#utility.yul\":197:198   */\n      0x00\n        /* \"#utility.yul\":194:195   */\n      dup1\n        /* \"#utility.yul\":187:199   */\n      revert\n        /* \"#utility.yul\":211:328   */\n    tag_177:\n        /* \"#utility.yul\":320:321   */\n      0x00\n        /* \"#utility.yul\":317:318   */\n      dup1\n        /* \"#utility.yul\":310:322   */\n      revert\n        /* \"#utility.yul\":334:411   */\n    tag_178:\n        /* \"#utility.yul\":371:378   */\n      0x00\n        /* \"#utility.yul\":400:405   */\n      dup2\n        /* \"#utility.yul\":389:405   */\n      swap1\n      pop\n        /* \"#utility.yul\":334:411   */\n      swap2\n      swap1\n      pop\n      jump\t// out\n        /* \"#utility.yul\":417:539   */\n    tag_179:\n        /* \"#utility.yul\":490:514   */\n      tag_249\n        /* \"#utility.yul\":508:513   */\n      dup2\n        /* \"#utility.yul\":490:514   */\n      tag_178\n      jump\t// in\n    tag_249:\n        /* \"#utility.yul\":483:488   */\n      dup2\n        /* \"#utility.yul\":480:515   */\n      eq\n        /* \"#utility.yul\":470:533   */\n      tag_250\n      jumpi\n        /* \"#utility.yul\":529:530   */\n      0x00\n        /* \"#utility.yul\":526:527   */\n      dup1\n        /* \"#utility.yul\":519:531   */\n      revert\n        /* \"#utility.yul\":470:533   */\n    tag_250:\n        /* \"#utility.yul\":417:539   */\n      pop\n      jump\t// out\n        /* \"#utility.yul\":545:684   */\n    tag_180:\n        /* \"#utility.yul\":591:596   */\n      0x00\n        /* \"#utility.yul\":629:635   */\n      dup2\n        /* \"#utility.yul\":616:636   */\n      calldataload\n        /* \"#utility.yul\":607:636   */\n      swap1\n      pop\n        /* \"#utility.yul\":645:678   */\n      tag_252\n        /* \"#utility.yul\":672:677   */\n      dup2\n        /* \"#utility.yul\":645:678   */\n      tag_179\n      jump\t// in\n    tag_252:\n        /* \"#utility.yul\":545:684   */\n      swap3\n      swap2\n      pop\n      pop\n      jump\t// out\n        /* \"#utility.yul\":690:1019   */\n    tag_16:\n        /* \"#utility.yul\":749:755   */\n      0x00\n        /* \"#utility.yul\":798:800   */\n      0x20\n        /* \"#utility.yul\":786:795   */\n      dup3\n        /* \"#utility.yul\":777:784   */\n      dup5\n        /* \"#utility.yul\":773:796   */\n      sub\n        /* \"#utility.yul\":769:801   */\n      slt\n        /* \"#utility.yul\":766:885   */\n      iszero\n      tag_254\n      jumpi\n        /* \"#utility.yul\":804:883   */\n      tag_255\n      tag_176\n      jump\t// in\n    tag_255:\n        /* \"#utility.yul\":766:885   */\n    tag_254:\n        /* \"#utility.yul\":924:925   */\n      0x00\n        /* \"#utility.yul\":949:1002   */\n      tag_256\n        /* \"#utility.yul\":994:1001   */\n      dup5\n        /* \"#utility.yul\":985:991   */\n      dup3\n        /* \"#utility.yul\":974:983   */\n      dup6\n        /* \"#utility.yul\":970:992   */\n      add\n        /* \"#utility.yul\":949:1002   */\n      tag_180\n      jump\t// in\n    tag_256:\n        /* \"#utility.yul\":939:1002   */\n      swap2\n      pop\n        /* \"#utility.yul\":895:1012   */\n      pop\n        /* \"#utility.yul\":690:1019   */\n      swap3\n      swap2\n      pop\n      pop\n      jump\t// out\n        /* \"#utility.yul\":1025:1143   */\n    tag_181:\n        /* \"#utility.yul\":1112:1136   */\n      tag_258\n        /* \"#utility.yul\":1130:1135   */\n      dup2\n        /* \"#utility.yul\":1112:1136   */\n      tag_178\n      jump\t// in\n    tag_258:\n        /* \"#utility.yul\":1107:1110   */\n      dup3\n        /* \"#utility.yul\":1100:1137   */\n      mstore\n        /* \"#utility.yul\":1025:1143   */\n      pop\n      pop\n      jump\t// out\n        /* \"#utility.yul\":1149:1248   */\n    tag_182:\n        /* \"#utility.yul\":1201:1207   */\n      0x00\n        /* \"#utility.yul\":1235:1240   */\n      dup2\n        /* \"#utility.yul\":1229:1241   */\n      mload\n        /* \"#utility.yul\":1219:1241   */\n      swap1\n      pop\n        /* \"#utility.yul\":1149:1248   */\n      swap2\n      swap1\n      pop\n      jump\t// out\n        /* \"#utility.yul\":1254:1423   */\n    tag_183:\n        /* \"#utility.yul\":1338:1349   */\n      0x00\n        /* \"#utility.yul\":1372:1378   */\n      dup3\n        /* \"#utility.yul\":1367:1370   */\n      dup3\n        /* \"#utility.yul\":1360:1379   */\n      mstore\n        /* \"#utility.yul\":1412:1416   */\n      0x20\n        /* \"#utility.yul\":1407:1410   */\n      dup3\n        /* \"#utility.yul\":1403:1417   */\n      add\n        /* \"#utility.yul\":1388:1417   */\n      swap1\n      pop\n        /* \"#utility.yul\":1254:1423   */\n      swap3\n      swap2\n      pop\n      pop\n      jump\t// out\n        /* \"#utility.yul\":1429:1675   */\n    tag_184:\n        /* \"#utility.yul\":1510:1511   */\n      0x00\n        /* \"#utility.yul\":1520:1633   */\n    tag_262:\n        /* \"#utility.yul\":1534:1540   */\n      dup4\n        /* \"#utility.yul\":1531:1532   */\n      dup2\n        /* \"#utility.yul\":1528:1541   */\n      lt\n        /* \"#utility.yul\":1520:1633   */\n      iszero\n      tag_264\n      jumpi\n        /* \"#utility.yul\":1619:1620   */\n      dup1\n        /* \"#utility.yul\":1614:1617   */\n      dup3\n        /* \"#utility.yul\":1610:1621   */\n      add\n        /* \"#utility.yul\":1604:1622   */\n      mload\n        /* \"#utility.yul\":1600:1601   */\n      dup2\n        /* \"#utility.yul\":1595:1598   */\n      dup5\n        /* \"#utility.yul\":1591:1602   */\n      add\n        /* \"#utility.yul\":1584:1623   */\n      mstore\n        /* \"#utility.yul\":1556:1558   */\n      0x20\n        /* \"#utility.yul\":1553:1554   */\n      dup2\n        /* \"#utility.yul\":1549:1559   */\n      add\n        /* \"#utility.yul\":1544:1559   */\n      swap1\n      pop\n        /* \"#utility.yul\":1520:1633   */\n      jump(tag_262)\n    tag_264:\n        /* \"#utility.yul\":1667:1668   */\n      0x00\n        /* \"#utility.yul\":1658:1664   */\n      dup5\n        /* \"#utility.yul\":1653:1656   */\n      dup5\n        /* \"#utility.yul\":1649:1665   */\n      add\n        /* \"#utility.yul\":1642:1669   */\n      mstore\n        /* \"#utility.yul\":1491:1675   */\n      pop\n        /* \"#utility.yul\":1429:1675   */\n      pop\n      pop\n      pop\n      jump\t// out\n        /* \"#utility.yul\":1681:1783   */\n    tag_185:\n        /* \"#utility.yul\":1722:1728   */\n      0x00\n        /* \"#utility.yul\":1773:1775   */\n      0x1f\n        /* \"#utility.yul\":1769:1776   */\n      not\n        /* \"#utility.yul\":1764:1766   */\n      0x1f\n        /* \"#utility.yul\":1757:1762   */\n      dup4\n        /* \"#utility.yul\":1753:1767   */\n      add\n        /* \"#utility.yul\":1749:1777   */\n      and\n        /* \"#utility.yul\":1739:1777   */\n      swap1\n      pop\n        /* \"#utility.yul\":1681:1783   */\n      swap2\n      swap1\n      pop\n      jump\t// out\n        /* \"#utility.yul\":1789:2166   */\n    tag_186:\n        /* \"#utility.yul\":1877:1880   */\n      0x00\n        /* \"#utility.yul\":1905:1944   */\n      tag_267\n        /* \"#utility.yul\":1938:1943   */\n      dup3\n        /* \"#utility.yul\":1905:1944   */\n      tag_182\n      jump\t// in\n    tag_267:\n        /* \"#utility.yul\":1960:2031   */\n      tag_268\n        /* \"#utility.yul\":2024:2030   */\n      dup2\n        /* \"#utility.yul\":2019:2022   */\n      dup6\n        /* \"#utility.yul\":1960:2031   */\n      tag_183\n      jump\t// in\n    tag_268:\n        /* \"#utility.yul\":1953:2031   */\n      swap4\n      pop\n        /* \"#utility.yul\":2040:2105   */\n      tag_269\n        /* \"#utility.yul\":2098:2104   */\n      dup2\n        /* \"#utility.yul\":2093:2096   */\n      dup6\n        /* \"#utility.yul\":2086:2090   */\n      0x20\n        /* \"#utility.yul\":2079:2084   */\n      dup7\n        /* \"#utility.yul\":2075:2091   */\n      add\n        /* \"#utility.yul\":2040:2105   */\n      tag_184\n      jump\t// in\n    tag_269:\n        /* \"#utility.yul\":2130:2159   */\n      tag_270\n        /* \"#utility.yul\":2152:2158   */\n      dup2\n        /* \"#utility.yul\":2130:2159   */\n      tag_185\n      jump\t// in\n    tag_270:\n        /* \"#utility.yul\":2125:2128   */\n      dup5\n        /* \"#utility.yul\":2121:2160   */\n      add\n        /* \"#utility.yul\":2114:2160   */\n      swap2\n      pop\n        /* \"#utility.yul\":1881:2166   */\n      pop\n        /* \"#utility.yul\":1789:2166   */\n      swap3\n      swap2\n      pop\n      pop\n      jump\t// out\n        /* \"#utility.yul\":2172:2907   */\n    tag_22:\n        /* \"#utility.yul\":2389:2393   */\n      0x00\n        /* \"#utility.yul\":2427:2430   */\n      0x80\n        /* \"#utility.yul\":2416:2425   */\n      dup3\n        /* \"#utility.yul\":2412:2431   */\n      add\n        /* \"#utility.yul\":2404:2431   */\n      swap1\n      pop\n        /* \"#utility.yul\":2441:2512   */\n      tag_272\n        /* \"#utility.yul\":2509:2510   */\n      0x00\n        /* \"#utility.yul\":2498:2507   */\n      dup4\n        /* \"#utility.yul\":2494:2511   */\n      add\n        /* \"#utility.yul\":2485:2491   */\n      dup8\n        /* \"#utility.yul\":2441:2512   */\n      tag_181\n      jump\t// in\n    tag_272:\n        /* \"#utility.yul\":2559:2568   */\n      dup2\n        /* \"#utility.yul\":2553:2557   */\n      dup2\n        /* \"#utility.yul\":2549:2569   */\n      sub\n        /* \"#utility.yul\":2544:2546   */\n      0x20\n        /* \"#utility.yul\":2533:2542   */\n      dup4\n        /* \"#utility.yul\":2529:2547   */\n      add\n        /* \"#utility.yul\":2522:2570   */\n      mstore\n        /* \"#utility.yul\":2587:2665   */\n      tag_273\n        /* \"#utility.yul\":2660:2664   */\n      dup2\n        /* \"#utility.yul\":2651:2657   */\n      dup7\n        /* \"#utility.yul\":2587:2665   */\n      tag_186\n      jump\t// in\n    tag_273:\n        /* \"#utility.yul\":2579:2665   */\n      swap1\n      pop\n        /* \"#utility.yul\":2712:2721   */\n      dup2\n        /* \"#utility.yul\":2706:2710   */\n      dup2\n        /* \"#utility.yul\":2702:2722   */\n      sub\n        /* \"#utility.yul\":2697:2699   */\n      0x40\n        /* \"#utility.yul\":2686:2695   */\n      dup4\n        /* \"#utility.yul\":2682:2700   */\n      add\n        /* \"#utility.yul\":2675:2723   */\n      mstore\n        /* \"#utility.yul\":2740:2818   */\n      tag_274\n        /* \"#utility.yul\":2813:2817   */\n      dup2\n        /* \"#utility.yul\":2804:2810   */\n      dup6\n        /* \"#utility.yul\":2740:2818   */\n      tag_186\n      jump\t// in\n    tag_274:\n        /* \"#utility.yul\":2732:2818   */\n      swap1\n      pop\n        /* \"#utility.yul\":2828:2900   */\n      tag_275\n        /* \"#utility.yul\":2896:2898   */\n      0x60\n        /* \"#utility.yul\":2885:2894   */\n      dup4\n        /* \"#utility.yul\":2881:2899   */\n      add\n        /* \"#utility.yul\":2872:2878   */\n      dup5\n        /* \"#utility.yul\":2828:2900   */\n      tag_181\n      jump\t// in\n    tag_275:\n        /* \"#utility.yul\":2172:2907   */\n      swap6\n      swap5\n      pop\n      pop\n      pop\n      pop\n      pop\n      jump\t// out\n        /* \"#utility.yul\":2913:3039   */\n    tag_187:\n        /* \"#utility.yul\":2950:2957   */\n      0x00\n        /* \"#utility.yul\":2990:3032   */\n      0xffffffffffffffffffffffffffffffffffffffff\n        /* \"#utility.yul\":2983:2988   */\n      dup3\n        /* \"#utility.yul\":2979:3033   */\n      and\n        /* \"#utility.yul\":2968:3033   */\n      swap1\n      pop\n        /* \"#utility.yul\":2913:3039   */\n      swap2\n      swap1\n      pop\n      jump\t// out\n        /* \"#utility.yul\":3045:3141   */\n    tag_188:\n        /* \"#utility.yul\":3082:3089   */\n      0x00\n        /* \"#utility.yul\":3111:3135   */\n      tag_278\n        /* \"#utility.yul\":3129:3134   */\n      dup3\n        /* \"#utility.yul\":3111:3135   */\n      tag_187\n      jump\t// in\n    tag_278:\n        /* \"#utility.yul\":3100:3135   */\n      swap1\n      pop\n        /* \"#utility.yul\":3045:3141   */\n      swap2\n      swap1\n      pop\n      jump\t// out\n        /* \"#utility.yul\":3147:3265   */\n    tag_189:\n        /* \"#utility.yul\":3234:3258   */\n      tag_280\n        /* \"#utility.yul\":3252:3257   */\n      dup2\n        /* \"#utility.yul\":3234:3258   */\n      tag_188\n      jump\t// in\n    tag_280:\n        /* \"#utility.yul\":3229:3232   */\n      dup3\n        /* \"#utility.yul\":3222:3259   */\n      mstore\n        /* \"#utility.yul\":3147:3265   */\n      pop\n      pop\n      jump\t// out\n        /* \"#utility.yul\":3271:3361   */\n    tag_190:\n        /* \"#utility.yul\":3305:3312   */\n      0x00\n        /* \"#utility.yul\":3348:3353   */\n      dup2\n        /* \"#utility.yul\":3341:3354   */\n      iszero\n        /* \"#utility.yul\":3334:3355   */\n      iszero\n        /* \"#utility.yul\":3323:3355   */\n      swap1\n      pop\n        /* \"#utility.yul\":3271:3361   */\n      swap2\n      swap1\n      pop\n      jump\t// out\n        /* \"#utility.yul\":3367:3476   */\n    tag_191:\n        /* \"#utility.yul\":3448:3469   */\n      tag_283\n        /* \"#utility.yul\":3463:3468   */\n      dup2\n        /* \"#utility.yul\":3448:3469   */\n      tag_190\n      jump\t// in\n    tag_283:\n        /* \"#utility.yul\":3443:3446   */\n      dup3\n        /* \"#utility.yul\":3436:3470   */\n      mstore\n        /* \"#utility.yul\":3367:3476   */\n      pop\n      pop\n      jump\t// out\n        /* \"#utility.yul\":3482:3802   */\n    tag_26:\n        /* \"#utility.yul\":3597:3601   */\n      0x00\n        /* \"#utility.yul\":3635:3637   */\n      0x40\n        /* \"#utility.yul\":3624:3633   */\n      dup3\n        /* \"#utility.yul\":3620:3638   */\n      add\n        /* \"#utility.yul\":3612:3638   */\n      swap1\n      pop\n        /* \"#utility.yul\":3648:3719   */\n      tag_285\n        /* \"#utility.yul\":3716:3717   */\n      0x00\n        /* \"#utility.yul\":3705:3714   */\n      dup4\n        /* \"#utility.yul\":3701:3718   */\n      add\n        /* \"#utility.yul\":3692:3698   */\n      dup6\n        /* \"#utility.yul\":3648:3719   */\n      tag_189\n      jump\t// in\n    tag_285:\n        /* \"#utility.yul\":3729:3795   */\n      tag_286\n        /* \"#utility.yul\":3791:3793   */\n      0x20\n        /* \"#utility.yul\":3780:3789   */\n      dup4\n        /* \"#utility.yul\":3776:3794   */\n      add\n        /* \"#utility.yul\":3767:3773   */\n      dup5\n        /* \"#utility.yul\":3729:3795   */\n      tag_191\n      jump\t// in\n    tag_286:\n        /* \"#utility.yul\":3482:3802   */\n      swap4\n      swap3\n      pop\n      pop\n      pop\n      jump\t// out\n        /* \"#utility.yul\":3808:3922   */\n    tag_192:\n        /* \"#utility.yul\":3875:3881   */\n      0x00\n        /* \"#utility.yul\":3909:3914   */\n      dup2\n        /* \"#utility.yul\":3903:3915   */\n      mload\n        /* \"#utility.yul\":3893:3915   */\n      swap1\n      pop\n        /* \"#utility.yul\":3808:3922   */\n      swap2\n      swap1\n      pop\n      jump\t// out\n        /* \"#utility.yul\":3928:4112   */\n    tag_193:\n        /* \"#utility.yul\":4027:4038   */\n      0x00\n        /* \"#utility.yul\":4061:4067   */\n      dup3\n        /* \"#utility.yul\":4056:4059   */\n      dup3\n        /* \"#utility.yul\":4049:4068   */\n      mstore\n        /* \"#utility.yul\":4101:4105   */\n      0x20\n        /* \"#utility.yul\":4096:4099   */\n      dup3\n        /* \"#utility.yul\":4092:4106   */\n      add\n        /* \"#utility.yul\":4077:4106   */\n      swap1\n      pop\n        /* \"#utility.yul\":3928:4112   */\n      swap3\n      swap2\n      pop\n      pop\n      jump\t// out\n        /* \"#utility.yul\":4118:4250   */\n    tag_194:\n        /* \"#utility.yul\":4185:4189   */\n      0x00\n        /* \"#utility.yul\":4208:4211   */\n      dup2\n        /* \"#utility.yul\":4200:4211   */\n      swap1\n      pop\n        /* \"#utility.yul\":4238:4242   */\n      0x20\n        /* \"#utility.yul\":4233:4236   */\n      dup3\n        /* \"#utility.yul\":4229:4243   */\n      add\n        /* \"#utility.yul\":4221:4243   */\n      swap1\n      pop\n        /* \"#utility.yul\":4118:4250   */\n      swap2\n      swap1\n      pop\n      jump\t// out\n        /* \"#utility.yul\":4256:4364   */\n    tag_195:\n        /* \"#utility.yul\":4333:4357   */\n      tag_291\n        /* \"#utility.yul\":4351:4356   */\n      dup2\n        /* \"#utility.yul\":4333:4357   */\n      tag_178\n      jump\t// in\n    tag_291:\n        /* \"#utility.yul\":4328:4331   */\n      dup3\n        /* \"#utility.yul\":4321:4358   */\n      mstore\n        /* \"#utility.yul\":4256:4364   */\n      pop\n      pop\n      jump\t// out\n        /* \"#utility.yul\":4370:4549   */\n    tag_196:\n        /* \"#utility.yul\":4439:4449   */\n      0x00\n        /* \"#utility.yul\":4460:4506   */\n      tag_293\n        /* \"#utility.yul\":4502:4505   */\n      dup4\n        /* \"#utility.yul\":4494:4500   */\n      dup4\n        /* \"#utility.yul\":4460:4506   */\n      tag_195\n      jump\t// in\n    tag_293:\n        /* \"#utility.yul\":4538:4542   */\n      0x20\n        /* \"#utility.yul\":4533:4536   */\n      dup4\n        /* \"#utility.yul\":4529:4543   */\n      add\n        /* \"#utility.yul\":4515:4543   */\n      swap1\n      pop\n        /* \"#utility.yul\":4370:4549   */\n      swap3\n      swap2\n      pop\n      pop\n      jump\t// out\n        /* \"#utility.yul\":4555:4668   */\n    tag_197:\n        /* \"#utility.yul\":4625:4629   */\n      0x00\n        /* \"#utility.yul\":4657:4661   */\n      0x20\n        /* \"#utility.yul\":4652:4655   */\n      dup3\n        /* \"#utility.yul\":4648:4662   */\n      add\n        /* \"#utility.yul\":4640:4662   */\n      swap1\n      pop\n        /* \"#utility.yul\":4555:4668   */\n      swap2\n      swap1\n      pop\n      jump\t// out\n        /* \"#utility.yul\":4704:5436   */\n    tag_198:\n        /* \"#utility.yul\":4823:4826   */\n      0x00\n        /* \"#utility.yul\":4852:4906   */\n      tag_296\n        /* \"#utility.yul\":4900:4905   */\n      dup3\n        /* \"#utility.yul\":4852:4906   */\n      tag_192\n      jump\t// in\n    tag_296:\n        /* \"#utility.yul\":4922:5008   */\n      tag_297\n        /* \"#utility.yul\":5001:5007   */\n      dup2\n        /* \"#utility.yul\":4996:4999   */\n      dup6\n        /* \"#utility.yul\":4922:5008   */\n      tag_193\n      jump\t// in\n    tag_297:\n        /* \"#utility.yul\":4915:5008   */\n      swap4\n      pop\n        /* \"#utility.yul\":5032:5088   */\n      tag_298\n        /* \"#utility.yul\":5082:5087   */\n      dup4\n        /* \"#utility.yul\":5032:5088   */\n      tag_194\n      jump\t// in\n    tag_298:\n        /* \"#utility.yul\":5111:5118   */\n      dup1\n        /* \"#utility.yul\":5142:5143   */\n      0x00\n        /* \"#utility.yul\":5127:5411   */\n    tag_299:\n        /* \"#utility.yul\":5152:5158   */\n      dup4\n        /* \"#utility.yul\":5149:5150   */\n      dup2\n        /* \"#utility.yul\":5146:5159   */\n      lt\n        /* \"#utility.yul\":5127:5411   */\n      iszero\n      tag_301\n      jumpi\n        /* \"#utility.yul\":5228:5234   */\n      dup2\n        /* \"#utility.yul\":5222:5235   */\n      mload\n        /* \"#utility.yul\":5255:5318   */\n      tag_302\n        /* \"#utility.yul\":5314:5317   */\n      dup9\n        /* \"#utility.yul\":5299:5312   */\n      dup3\n        /* \"#utility.yul\":5255:5318   */\n      tag_196\n      jump\t// in\n    tag_302:\n        /* \"#utility.yul\":5248:5318   */\n      swap8\n      pop\n        /* \"#utility.yul\":5341:5401   */\n      tag_303\n        /* \"#utility.yul\":5394:5400   */\n      dup4\n        /* \"#utility.yul\":5341:5401   */\n      tag_197\n      jump\t// in\n    tag_303:\n        /* \"#utility.yul\":5331:5401   */\n      swap3\n      pop\n        /* \"#utility.yul\":5187:5411   */\n      pop\n        /* \"#utility.yul\":5174:5175   */\n      0x01\n        /* \"#utility.yul\":5171:5172   */\n      dup2\n        /* \"#utility.yul\":5167:5176   */\n      add\n        /* \"#utility.yul\":5162:5176   */\n      swap1\n      pop\n        /* \"#utility.yul\":5127:5411   */\n      jump(tag_299)\n    tag_301:\n        /* \"#utility.yul\":5131:5145   */\n      pop\n        /* \"#utility.yul\":5427:5430   */\n      dup6\n        /* \"#utility.yul\":5420:5430   */\n      swap4\n      pop\n        /* \"#utility.yul\":4828:5436   */\n      pop\n      pop\n      pop\n        /* \"#utility.yul\":4704:5436   */\n      swap3\n      swap2\n      pop\n      pop\n      jump\t// out\n        /* \"#utility.yul\":5442:5566   */\n    tag_199:\n        /* \"#utility.yul\":5519:5525   */\n      0x00\n        /* \"#utility.yul\":5553:5558   */\n      dup2\n        /* \"#utility.yul\":5547:5559   */\n      mload\n        /* \"#utility.yul\":5537:5559   */\n      swap1\n      pop\n        /* \"#utility.yul\":5442:5566   */\n      swap2\n      swap1\n      pop\n      jump\t// out\n        /* \"#utility.yul\":5572:5766   */\n    tag_200:\n        /* \"#utility.yul\":5681:5692   */\n      0x00\n        /* \"#utility.yul\":5715:5721   */\n      dup3\n        /* \"#utility.yul\":5710:5713   */\n      dup3\n        /* \"#utility.yul\":5703:5722   */\n      mstore\n        /* \"#utility.yul\":5755:5759   */\n      0x20\n        /* \"#utility.yul\":5750:5753   */\n      dup3\n        /* \"#utility.yul\":5746:5760   */\n      add\n        /* \"#utility.yul\":5731:5760   */\n      swap1\n      pop\n        /* \"#utility.yul\":5572:5766   */\n      swap3\n      swap2\n      pop\n      pop\n      jump\t// out\n        /* \"#utility.yul\":5772:5914   */\n    tag_201:\n        /* \"#utility.yul\":5849:5853   */\n      0x00\n        /* \"#utility.yul\":5872:5875   */\n      dup2\n        /* \"#utility.yul\":5864:5875   */\n      swap1\n      pop\n        /* \"#utility.yul\":5902:5906   */\n      0x20\n        /* \"#utility.yul\":5897:5900   */\n      dup3\n        /* \"#utility.yul\":5893:5907   */\n      add\n        /* \"#utility.yul\":5885:5907   */\n      swap1\n      pop\n        /* \"#utility.yul\":5772:5914   */\n      swap2\n      swap1\n      pop\n      jump\t// out\n        /* \"#utility.yul\":5920:6079   */\n    tag_202:\n        /* \"#utility.yul\":5994:6005   */\n      0x00\n        /* \"#utility.yul\":6028:6034   */\n      dup3\n        /* \"#utility.yul\":6023:6026   */\n      dup3\n        /* \"#utility.yul\":6016:6035   */\n      mstore\n        /* \"#utility.yul\":6068:6072   */\n      0x20\n        /* \"#utility.yul\":6063:6066   */\n      dup3\n        /* \"#utility.yul\":6059:6073   */\n      add\n        /* \"#utility.yul\":6044:6073   */\n      swap1\n      pop\n        /* \"#utility.yul\":5920:6079   */\n      swap3\n      swap2\n      pop\n      pop\n      jump\t// out\n        /* \"#utility.yul\":6085:6442   */\n    tag_203:\n        /* \"#utility.yul\":6163:6166   */\n      0x00\n        /* \"#utility.yul\":6191:6230   */\n      tag_309\n        /* \"#utility.yul\":6224:6229   */\n      dup3\n        /* \"#utility.yul\":6191:6230   */\n      tag_182\n      jump\t// in\n    tag_309:\n        /* \"#utility.yul\":6246:6307   */\n      tag_310\n        /* \"#utility.yul\":6300:6306   */\n      dup2\n        /* \"#utility.yul\":6295:6298   */\n      dup6\n        /* \"#utility.yul\":6246:6307   */\n      tag_202\n      jump\t// in\n    tag_310:\n        /* \"#utility.yul\":6239:6307   */\n      swap4\n      pop\n        /* \"#utility.yul\":6316:6381   */\n      tag_311\n        /* \"#utility.yul\":6374:6380   */\n      dup2\n        /* \"#utility.yul\":6369:6372   */\n      dup6\n        /* \"#utility.yul\":6362:6366   */\n      0x20\n        /* \"#utility.yul\":6355:6360   */\n      dup7\n        /* \"#utility.yul\":6351:6367   */\n      add\n        /* \"#utility.yul\":6316:6381   */\n      tag_184\n      jump\t// in\n    tag_311:\n        /* \"#utility.yul\":6406:6435   */\n      tag_312\n        /* \"#utility.yul\":6428:6434   */\n      dup2\n        /* \"#utility.yul\":6406:6435   */\n      tag_185\n      jump\t// in\n    tag_312:\n        /* \"#utility.yul\":6401:6404   */\n      dup5\n        /* \"#utility.yul\":6397:6436   */\n      add\n        /* \"#utility.yul\":6390:6436   */\n      swap2\n      pop\n        /* \"#utility.yul\":6167:6442   */\n      pop\n        /* \"#utility.yul\":6085:6442   */\n      swap3\n      swap2\n      pop\n      pop\n      jump\t// out\n        /* \"#utility.yul\":6448:6644   */\n    tag_204:\n        /* \"#utility.yul\":6537:6547   */\n      0x00\n        /* \"#utility.yul\":6572:6638   */\n      tag_314\n        /* \"#utility.yul\":6634:6637   */\n      dup4\n        /* \"#utility.yul\":6626:6632   */\n      dup4\n        /* \"#utility.yul\":6572:6638   */\n      tag_203\n      jump\t// in\n    tag_314:\n        /* \"#utility.yul\":6558:6638   */\n      swap1\n      pop\n        /* \"#utility.yul\":6448:6644   */\n      swap3\n      swap2\n      pop\n      pop\n      jump\t// out\n        /* \"#utility.yul\":6650:6773   */\n    tag_205:\n        /* \"#utility.yul\":6730:6734   */\n      0x00\n        /* \"#utility.yul\":6762:6766   */\n      0x20\n        /* \"#utility.yul\":6757:6760   */\n      dup3\n        /* \"#utility.yul\":6753:6767   */\n      add\n        /* \"#utility.yul\":6745:6767   */\n      swap1\n      pop\n        /* \"#utility.yul\":6650:6773   */\n      swap2\n      swap1\n      pop\n      jump\t// out\n        /* \"#utility.yul\":6807:7798   */\n    tag_206:\n        /* \"#utility.yul\":6946:6949   */\n      0x00\n        /* \"#utility.yul\":6975:7039   */\n      tag_317\n        /* \"#utility.yul\":7033:7038   */\n      dup3\n        /* \"#utility.yul\":6975:7039   */\n      tag_199\n      jump\t// in\n    tag_317:\n        /* \"#utility.yul\":7055:7151   */\n      tag_318\n        /* \"#utility.yul\":7144:7150   */\n      dup2\n        /* \"#utility.yul\":7139:7142   */\n      dup6\n        /* \"#utility.yul\":7055:7151   */\n      tag_200\n      jump\t// in\n    tag_318:\n        /* \"#utility.yul\":7048:7151   */\n      swap4\n      pop\n        /* \"#utility.yul\":7177:7180   */\n      dup4\n        /* \"#utility.yul\":7222:7226   */\n      0x20\n        /* \"#utility.yul\":7214:7220   */\n      dup3\n        /* \"#utility.yul\":7210:7227   */\n      mul\n        /* \"#utility.yul\":7205:7208   */\n      dup6\n        /* \"#utility.yul\":7201:7228   */\n      add\n        /* \"#utility.yul\":7252:7318   */\n      tag_319\n        /* \"#utility.yul\":7312:7317   */\n      dup6\n        /* \"#utility.yul\":7252:7318   */\n      tag_201\n      jump\t// in\n    tag_319:\n        /* \"#utility.yul\":7341:7348   */\n      dup1\n        /* \"#utility.yul\":7372:7373   */\n      0x00\n        /* \"#utility.yul\":7357:7753   */\n    tag_320:\n        /* \"#utility.yul\":7382:7388   */\n      dup6\n        /* \"#utility.yul\":7379:7380   */\n      dup2\n        /* \"#utility.yul\":7376:7389   */\n      lt\n        /* \"#utility.yul\":7357:7753   */\n      iszero\n      tag_322\n      jumpi\n        /* \"#utility.yul\":7453:7462   */\n      dup5\n        /* \"#utility.yul\":7447:7451   */\n      dup5\n        /* \"#utility.yul\":7443:7463   */\n      sub\n        /* \"#utility.yul\":7438:7441   */\n      dup10\n        /* \"#utility.yul\":7431:7464   */\n      mstore\n        /* \"#utility.yul\":7504:7510   */\n      dup2\n        /* \"#utility.yul\":7498:7511   */\n      mload\n        /* \"#utility.yul\":7532:7616   */\n      tag_323\n        /* \"#utility.yul\":7611:7615   */\n      dup6\n        /* \"#utility.yul\":7596:7609   */\n      dup3\n        /* \"#utility.yul\":7532:7616   */\n      tag_204\n      jump\t// in\n    tag_323:\n        /* \"#utility.yul\":7524:7616   */\n      swap5\n      pop\n        /* \"#utility.yul\":7639:7709   */\n      tag_324\n        /* \"#utility.yul\":7702:7708   */\n      dup4\n        /* \"#utility.yul\":7639:7709   */\n      tag_205\n      jump\t// in\n    tag_324:\n        /* \"#utility.yul\":7629:7709   */\n      swap3\n      pop\n        /* \"#utility.yul\":7738:7742   */\n      0x20\n        /* \"#utility.yul\":7733:7736   */\n      dup11\n        /* \"#utility.yul\":7729:7743   */\n      add\n        /* \"#utility.yul\":7722:7743   */\n      swap10\n      pop\n        /* \"#utility.yul\":7417:7753   */\n      pop\n        /* \"#utility.yul\":7404:7405   */\n      0x01\n        /* \"#utility.yul\":7401:7402   */\n      dup2\n        /* \"#utility.yul\":7397:7406   */\n      add\n        /* \"#utility.yul\":7392:7406   */\n      swap1\n      pop\n        /* \"#utility.yul\":7357:7753   */\n      jump(tag_320)\n    tag_322:\n        /* \"#utility.yul\":7361:7375   */\n      pop\n        /* \"#utility.yul\":7769:7773   */\n      dup3\n        /* \"#utility.yul\":7762:7773   */\n      swap8\n      pop\n        /* \"#utility.yul\":7789:7792   */\n      dup8\n        /* \"#utility.yul\":7782:7792   */\n      swap6\n      pop\n        /* \"#utility.yul\":6951:7798   */\n      pop\n      pop\n      pop\n      pop\n      pop\n        /* \"#utility.yul\":6807:7798   */\n      swap3\n      swap2\n      pop\n      pop\n      jump\t// out\n        /* \"#utility.yul\":7804:9041   */\n    tag_30:\n        /* \"#utility.yul\":8221:8225   */\n      0x00\n        /* \"#utility.yul\":8259:8262   */\n      0x80\n        /* \"#utility.yul\":8248:8257   */\n      dup3\n        /* \"#utility.yul\":8244:8263   */\n      add\n        /* \"#utility.yul\":8236:8263   */\n      swap1\n      pop\n        /* \"#utility.yul\":8309:8318   */\n      dup2\n        /* \"#utility.yul\":8303:8307   */\n      dup2\n        /* \"#utility.yul\":8299:8319   */\n      sub\n        /* \"#utility.yul\":8295:8296   */\n      0x00\n        /* \"#utility.yul\":8284:8293   */\n      dup4\n        /* \"#utility.yul\":8280:8297   */\n      add\n        /* \"#utility.yul\":8273:8320   */\n      mstore\n        /* \"#utility.yul\":8337:8445   */\n      tag_326\n        /* \"#utility.yul\":8440:8444   */\n      dup2\n        /* \"#utility.yul\":8431:8437   */\n      dup8\n        /* \"#utility.yul\":8337:8445   */\n      tag_198\n      jump\t// in\n    tag_326:\n        /* \"#utility.yul\":8329:8445   */\n      swap1\n      pop\n        /* \"#utility.yul\":8492:8501   */\n      dup2\n        /* \"#utility.yul\":8486:8490   */\n      dup2\n        /* \"#utility.yul\":8482:8502   */\n      sub\n        /* \"#utility.yul\":8477:8479   */\n      0x20\n        /* \"#utility.yul\":8466:8475   */\n      dup4\n        /* \"#utility.yul\":8462:8480   */\n      add\n        /* \"#utility.yul\":8455:8503   */\n      mstore\n        /* \"#utility.yul\":8520:8648   */\n      tag_327\n        /* \"#utility.yul\":8643:8647   */\n      dup2\n        /* \"#utility.yul\":8634:8640   */\n      dup7\n        /* \"#utility.yul\":8520:8648   */\n      tag_206\n      jump\t// in\n    tag_327:\n        /* \"#utility.yul\":8512:8648   */\n      swap1\n      pop\n        /* \"#utility.yul\":8695:8704   */\n      dup2\n        /* \"#utility.yul\":8689:8693   */\n      dup2\n        /* \"#utility.yul\":8685:8705   */\n      sub\n        /* \"#utility.yul\":8680:8682   */\n      0x40\n        /* \"#utility.yul\":8669:8678   */\n      dup4\n        /* \"#utility.yul\":8665:8683   */\n      add\n        /* \"#utility.yul\":8658:8706   */\n      mstore\n        /* \"#utility.yul\":8723:8851   */\n      tag_328\n        /* \"#utility.yul\":8846:8850   */\n      dup2\n        /* \"#utility.yul\":8837:8843   */\n      dup6\n        /* \"#utility.yul\":8723:8851   */\n      tag_206\n      jump\t// in\n    tag_328:\n        /* \"#utility.yul\":8715:8851   */\n      swap1\n      pop\n        /* \"#utility.yul\":8898:8907   */\n      dup2\n        /* \"#utility.yul\":8892:8896   */\n      dup2\n        /* \"#utility.yul\":8888:8908   */\n      sub\n        /* \"#utility.yul\":8883:8885   */\n      0x60\n        /* \"#utility.yul\":8872:8881   */\n      dup4\n        /* \"#utility.yul\":8868:8886   */\n      add\n        /* \"#utility.yul\":8861:8909   */\n      mstore\n        /* \"#utility.yul\":8926:9034   */\n      tag_329\n        /* \"#utility.yul\":9029:9033   */\n      dup2\n        /* \"#utility.yul\":9020:9026   */\n      dup5\n        /* \"#utility.yul\":8926:9034   */\n      tag_198\n      jump\t// in\n    tag_329:\n        /* \"#utility.yul\":8918:9034   */\n      swap1\n      pop\n        /* \"#utility.yul\":7804:9041   */\n      swap6\n      swap5\n      pop\n      pop\n      pop\n      pop\n      pop\n      jump\t// out\n        /* \"#utility.yul\":9047:9164   */\n    tag_207:\n        /* \"#utility.yul\":9156:9157   */\n      0x00\n        /* \"#utility.yul\":9153:9154   */\n      dup1\n        /* \"#utility.yul\":9146:9158   */\n      revert\n        /* \"#utility.yul\":9170:9287   */\n    tag_208:\n        /* \"#utility.yul\":9279:9280   */\n      0x00\n        /* \"#utility.yul\":9276:9277   */\n      dup1\n        /* \"#utility.yul\":9269:9281   */\n      revert\n        /* \"#utility.yul\":9293:9473   */\n    tag_83:\n        /* \"#utility.yul\":9341:9418   */\n      0x4e487b7100000000000000000000000000000000000000000000000000000000\n        /* \"#utility.yul\":9338:9339   */\n      0x00\n        /* \"#utility.yul\":9331:9419   */\n      mstore\n        /* \"#utility.yul\":9438:9442   */\n      0x41\n        /* \"#utility.yul\":9435:9436   */\n      0x04\n        /* \"#utility.yul\":9428:9443   */\n      mstore\n        /* \"#utility.yul\":9462:9466   */\n      0x24\n        /* \"#utility.yul\":9459:9460   */\n      0x00\n        /* \"#utility.yul\":9452:9467   */\n      revert\n        /* \"#utility.yul\":9479:9760   */\n    tag_209:\n        /* \"#utility.yul\":9562:9589   */\n      tag_334\n        /* \"#utility.yul\":9584:9588   */\n      dup3\n        /* \"#utility.yul\":9562:9589   */\n      tag_185\n      jump\t// in\n    tag_334:\n        /* \"#utility.yul\":9554:9560   */\n      dup2\n        /* \"#utility.yul\":9550:9590   */\n      add\n        /* \"#utility.yul\":9692:9698   */\n      dup2\n        /* \"#utility.yul\":9680:9690   */\n      dup2\n        /* \"#utility.yul\":9677:9699   */\n      lt\n        /* \"#utility.yul\":9656:9674   */\n      0xffffffffffffffff\n        /* \"#utility.yul\":9644:9654   */\n      dup3\n        /* \"#utility.yul\":9641:9675   */\n      gt\n        /* \"#utility.yul\":9638:9700   */\n      or\n        /* \"#utility.yul\":9635:9723   */\n      iszero\n      tag_335\n      jumpi\n        /* \"#utility.yul\":9703:9721   */\n      tag_336\n      tag_83\n      jump\t// in\n    tag_336:\n        /* \"#utility.yul\":9635:9723   */\n    tag_335:\n        /* \"#utility.yul\":9743:9753   */\n      dup1\n        /* \"#utility.yul\":9739:9741   */\n      0x40\n        /* \"#utility.yul\":9732:9754   */\n      mstore\n        /* \"#utility.yul\":9522:9760   */\n      pop\n        /* \"#utility.yul\":9479:9760   */\n      pop\n      pop\n      jump\t// out\n        /* \"#utility.yul\":9766:9895   */\n    tag_210:\n        /* \"#utility.yul\":9800:9806   */\n      0x00\n        /* \"#utility.yul\":9827:9847   */\n      tag_338\n      tag_175\n      jump\t// in\n    tag_338:\n        /* \"#utility.yul\":9817:9847   */\n      swap1\n      pop\n        /* \"#utility.yul\":9856:9889   */\n      tag_339\n        /* \"#utility.yul\":9884:9888   */\n      dup3\n        /* \"#utility.yul\":9876:9882   */\n      dup3\n        /* \"#utility.yul\":9856:9889   */\n      tag_209\n      jump\t// in\n    tag_339:\n        /* \"#utility.yul\":9766:9895   */\n      swap2\n      swap1\n      pop\n      jump\t// out\n        /* \"#utility.yul\":9901:10209   */\n    tag_211:\n        /* \"#utility.yul\":9963:9967   */\n      0x00\n        /* \"#utility.yul\":10053:10071   */\n      0xffffffffffffffff\n        /* \"#utility.yul\":10045:10051   */\n      dup3\n        /* \"#utility.yul\":10042:10072   */\n      gt\n        /* \"#utility.yul\":10039:10095   */\n      iszero\n      tag_341\n      jumpi\n        /* \"#utility.yul\":10075:10093   */\n      tag_342\n      tag_83\n      jump\t// in\n    tag_342:\n        /* \"#utility.yul\":10039:10095   */\n    tag_341:\n        /* \"#utility.yul\":10113:10142   */\n      tag_343\n        /* \"#utility.yul\":10135:10141   */\n      dup3\n        /* \"#utility.yul\":10113:10142   */\n      tag_185\n      jump\t// in\n    tag_343:\n        /* \"#utility.yul\":10105:10142   */\n      swap1\n      pop\n        /* \"#utility.yul\":10197:10201   */\n      0x20\n        /* \"#utility.yul\":10191:10195   */\n      dup2\n        /* \"#utility.yul\":10187:10202   */\n      add\n        /* \"#utility.yul\":10179:10202   */\n      swap1\n      pop\n        /* \"#utility.yul\":9901:10209   */\n      swap2\n      swap1\n      pop\n      jump\t// out\n        /* \"#utility.yul\":10215:10361   */\n    tag_212:\n        /* \"#utility.yul\":10312:10318   */\n      dup3\n        /* \"#utility.yul\":10307:10310   */\n      dup2\n        /* \"#utility.yul\":10302:10305   */\n      dup4\n        /* \"#utility.yul\":10289:10319   */\n      calldatacopy\n        /* \"#utility.yul\":10353:10354   */\n      0x00\n        /* \"#utility.yul\":10344:10350   */\n      dup4\n        /* \"#utility.yul\":10339:10342   */\n      dup4\n        /* \"#utility.yul\":10335:10351   */\n      add\n        /* \"#utility.yul\":10328:10355   */\n      mstore\n        /* \"#utility.yul\":10215:10361   */\n      pop\n      pop\n      pop\n      jump\t// out\n        /* \"#utility.yul\":10367:10792   */\n    tag_213:\n        /* \"#utility.yul\":10445:10450   */\n      0x00\n        /* \"#utility.yul\":10470:10536   */\n      tag_346\n        /* \"#utility.yul\":10486:10535   */\n      tag_347\n        /* \"#utility.yul\":10528:10534   */\n      dup5\n        /* \"#utility.yul\":10486:10535   */\n      tag_211\n      jump\t// in\n    tag_347:\n        /* \"#utility.yul\":10470:10536   */\n      tag_210\n      jump\t// in\n    tag_346:\n        /* \"#utility.yul\":10461:10536   */\n      swap1\n      pop\n        /* \"#utility.yul\":10559:10565   */\n      dup3\n        /* \"#utility.yul\":10552:10557   */\n      dup2\n        /* \"#utility.yul\":10545:10566   */\n      mstore\n        /* \"#utility.yul\":10597:10601   */\n      0x20\n        /* \"#utility.yul\":10590:10595   */\n      dup2\n        /* \"#utility.yul\":10586:10602   */\n      add\n        /* \"#utility.yul\":10635:10638   */\n      dup5\n        /* \"#utility.yul\":10626:10632   */\n      dup5\n        /* \"#utility.yul\":10621:10624   */\n      dup5\n        /* \"#utility.yul\":10617:10633   */\n      add\n        /* \"#utility.yul\":10614:10639   */\n      gt\n        /* \"#utility.yul\":10611:10723   */\n      iszero\n      tag_348\n      jumpi\n        /* \"#utility.yul\":10642:10721   */\n      tag_349\n      tag_208\n      jump\t// in\n    tag_349:\n        /* \"#utility.yul\":10611:10723   */\n    tag_348:\n        /* \"#utility.yul\":10732:10786   */\n      tag_350\n        /* \"#utility.yul\":10779:10785   */\n      dup5\n        /* \"#utility.yul\":10774:10777   */\n      dup3\n        /* \"#utility.yul\":10769:10772   */\n      dup6\n        /* \"#utility.yul\":10732:10786   */\n      tag_212\n      jump\t// in\n    tag_350:\n        /* \"#utility.yul\":10451:10792   */\n      pop\n        /* \"#utility.yul\":10367:10792   */\n      swap4\n      swap3\n      pop\n      pop\n      pop\n      jump\t// out\n        /* \"#utility.yul\":10812:11152   */\n    tag_214:\n        /* \"#utility.yul\":10868:10873   */\n      0x00\n        /* \"#utility.yul\":10917:10920   */\n      dup3\n        /* \"#utility.yul\":10910:10914   */\n      0x1f\n        /* \"#utility.yul\":10902:10908   */\n      dup4\n        /* \"#utility.yul\":10898:10915   */\n      add\n        /* \"#utility.yul\":10894:10921   */\n      slt\n        /* \"#utility.yul\":10884:11006   */\n      tag_352\n      jumpi\n        /* \"#utility.yul\":10925:11004   */\n      tag_353\n      tag_207\n      jump\t// in\n    tag_353:\n        /* \"#utility.yul\":10884:11006   */\n    tag_352:\n        /* \"#utility.yul\":11042:11048   */\n      dup2\n        /* \"#utility.yul\":11029:11049   */\n      calldataload\n        /* \"#utility.yul\":11067:11146   */\n      tag_354\n        /* \"#utility.yul\":11142:11145   */\n      dup5\n        /* \"#utility.yul\":11134:11140   */\n      dup3\n        /* \"#utility.yul\":11127:11131   */\n      0x20\n        /* \"#utility.yul\":11119:11125   */\n      dup7\n        /* \"#utility.yul\":11115:11132   */\n      add\n        /* \"#utility.yul\":11067:11146   */\n      tag_213\n      jump\t// in\n    tag_354:\n        /* \"#utility.yul\":11058:11146   */\n      swap2\n      pop\n        /* \"#utility.yul\":10874:11152   */\n      pop\n        /* \"#utility.yul\":10812:11152   */\n      swap3\n      swap2\n      pop\n      pop\n      jump\t// out\n        /* \"#utility.yul\":11158:11992   */\n    tag_33:\n        /* \"#utility.yul\":11246:11252   */\n      0x00\n        /* \"#utility.yul\":11254:11260   */\n      dup1\n        /* \"#utility.yul\":11303:11305   */\n      0x40\n        /* \"#utility.yul\":11291:11300   */\n      dup4\n        /* \"#utility.yul\":11282:11289   */\n      dup6\n        /* \"#utility.yul\":11278:11301   */\n      sub\n        /* \"#utility.yul\":11274:11306   */\n      slt\n        /* \"#utility.yul\":11271:11390   */\n      iszero\n      tag_356\n      jumpi\n        /* \"#utility.yul\":11309:11388   */\n      tag_357\n      tag_176\n      jump\t// in\n    tag_357:\n        /* \"#utility.yul\":11271:11390   */\n    tag_356:\n        /* \"#utility.yul\":11457:11458   */\n      0x00\n        /* \"#utility.yul\":11446:11455   */\n      dup4\n        /* \"#utility.yul\":11442:11459   */\n      add\n        /* \"#utility.yul\":11429:11460   */\n      calldataload\n        /* \"#utility.yul\":11487:11505   */\n      0xffffffffffffffff\n        /* \"#utility.yul\":11479:11485   */\n      dup2\n        /* \"#utility.yul\":11476:11506   */\n      gt\n        /* \"#utility.yul\":11473:11590   */\n      iszero\n      tag_358\n      jumpi\n        /* \"#utility.yul\":11509:11588   */\n      tag_359\n      tag_177\n      jump\t// in\n    tag_359:\n        /* \"#utility.yul\":11473:11590   */\n    tag_358:\n        /* \"#utility.yul\":11614:11677   */\n      tag_360\n        /* \"#utility.yul\":11669:11676   */\n      dup6\n        /* \"#utility.yul\":11660:11666   */\n      dup3\n        /* \"#utility.yul\":11649:11658   */\n      dup7\n        /* \"#utility.yul\":11645:11667   */\n      add\n        /* \"#utility.yul\":11614:11677   */\n      tag_214\n      jump\t// in\n    tag_360:\n        /* \"#utility.yul\":11604:11677   */\n      swap3\n      pop\n        /* \"#utility.yul\":11400:11687   */\n      pop\n        /* \"#utility.yul\":11754:11756   */\n      0x20\n        /* \"#utility.yul\":11743:11752   */\n      dup4\n        /* \"#utility.yul\":11739:11757   */\n      add\n        /* \"#utility.yul\":11726:11758   */\n      calldataload\n        /* \"#utility.yul\":11785:11803   */\n      0xffffffffffffffff\n        /* \"#utility.yul\":11777:11783   */\n      dup2\n        /* \"#utility.yul\":11774:11804   */\n      gt\n        /* \"#utility.yul\":11771:11888   */\n      iszero\n      tag_361\n      jumpi\n        /* \"#utility.yul\":11807:11886   */\n      tag_362\n      tag_177\n      jump\t// in\n    tag_362:\n        /* \"#utility.yul\":11771:11888   */\n    tag_361:\n        /* \"#utility.yul\":11912:11975   */\n      tag_363\n        /* \"#utility.yul\":11967:11974   */\n      dup6\n        /* \"#utility.yul\":11958:11964   */\n      dup3\n        /* \"#utility.yul\":11947:11956   */\n      dup7\n        /* \"#utility.yul\":11943:11965   */\n      add\n        /* \"#utility.yul\":11912:11975   */\n      tag_214\n      jump\t// in\n    tag_363:\n        /* \"#utility.yul\":11902:11975   */\n      swap2\n      pop\n        /* \"#utility.yul\":11697:11985   */\n      pop\n        /* \"#utility.yul\":11158:11992   */\n      swap3\n      pop\n      swap3\n      swap1\n      pop\n      jump\t// out\n        /* \"#utility.yul\":12070:13099   */\n    tag_215:\n        /* \"#utility.yul\":12185:12188   */\n      0x00\n        /* \"#utility.yul\":12221:12225   */\n      0x80\n        /* \"#utility.yul\":12216:12219   */\n      dup4\n        /* \"#utility.yul\":12212:12226   */\n      add\n        /* \"#utility.yul\":12306:12310   */\n      0x00\n        /* \"#utility.yul\":12299:12304   */\n      dup4\n        /* \"#utility.yul\":12295:12311   */\n      add\n        /* \"#utility.yul\":12289:12312   */\n      mload\n        /* \"#utility.yul\":12325:12388   */\n      tag_365\n        /* \"#utility.yul\":12382:12386   */\n      0x00\n        /* \"#utility.yul\":12377:12380   */\n      dup7\n        /* \"#utility.yul\":12373:12387   */\n      add\n        /* \"#utility.yul\":12359:12371   */\n      dup3\n        /* \"#utility.yul\":12325:12388   */\n      tag_195\n      jump\t// in\n    tag_365:\n        /* \"#utility.yul\":12236:12398   */\n      pop\n        /* \"#utility.yul\":12481:12485   */\n      0x20\n        /* \"#utility.yul\":12474:12479   */\n      dup4\n        /* \"#utility.yul\":12470:12486   */\n      add\n        /* \"#utility.yul\":12464:12487   */\n      mload\n        /* \"#utility.yul\":12534:12537   */\n      dup5\n        /* \"#utility.yul\":12528:12532   */\n      dup3\n        /* \"#utility.yul\":12524:12538   */\n      sub\n        /* \"#utility.yul\":12517:12521   */\n      0x20\n        /* \"#utility.yul\":12512:12515   */\n      dup7\n        /* \"#utility.yul\":12508:12522   */\n      add\n        /* \"#utility.yul\":12501:12539   */\n      mstore\n        /* \"#utility.yul\":12560:12633   */\n      tag_366\n        /* \"#utility.yul\":12628:12632   */\n      dup3\n        /* \"#utility.yul\":12614:12626   */\n      dup3\n        /* \"#utility.yul\":12560:12633   */\n      tag_203\n      jump\t// in\n    tag_366:\n        /* \"#utility.yul\":12552:12633   */\n      swap2\n      pop\n        /* \"#utility.yul\":12408:12644   */\n      pop\n        /* \"#utility.yul\":12731:12735   */\n      0x40\n        /* \"#utility.yul\":12724:12729   */\n      dup4\n        /* \"#utility.yul\":12720:12736   */\n      add\n        /* \"#utility.yul\":12714:12737   */\n      mload\n        /* \"#utility.yul\":12784:12787   */\n      dup5\n        /* \"#utility.yul\":12778:12782   */\n      dup3\n        /* \"#utility.yul\":12774:12788   */\n      sub\n        /* \"#utility.yul\":12767:12771   */\n      0x40\n        /* \"#utility.yul\":12762:12765   */\n      dup7\n        /* \"#utility.yul\":12758:12772   */\n      add\n        /* \"#utility.yul\":12751:12789   */\n      mstore\n        /* \"#utility.yul\":12810:12883   */\n      tag_367\n        /* \"#utility.yul\":12878:12882   */\n      dup3\n        /* \"#utility.yul\":12864:12876   */\n      dup3\n        /* \"#utility.yul\":12810:12883   */\n      tag_203\n      jump\t// in\n    tag_367:\n        /* \"#utility.yul\":12802:12883   */\n      swap2\n      pop\n        /* \"#utility.yul\":12654:12894   */\n      pop\n        /* \"#utility.yul\":12980:12984   */\n      0x60\n        /* \"#utility.yul\":12973:12978   */\n      dup4\n        /* \"#utility.yul\":12969:12985   */\n      add\n        /* \"#utility.yul\":12963:12986   */\n      mload\n        /* \"#utility.yul\":12999:13062   */\n      tag_368\n        /* \"#utility.yul\":13056:13060   */\n      0x60\n        /* \"#utility.yul\":13051:13054   */\n      dup7\n        /* \"#utility.yul\":13047:13061   */\n      add\n        /* \"#utility.yul\":13033:13045   */\n      dup3\n        /* \"#utility.yul\":12999:13062   */\n      tag_195\n      jump\t// in\n    tag_368:\n        /* \"#utility.yul\":12904:13072   */\n      pop\n        /* \"#utility.yul\":13089:13093   */\n      dup1\n        /* \"#utility.yul\":13082:13093   */\n      swap2\n      pop\n        /* \"#utility.yul\":12190:13099   */\n      pop\n        /* \"#utility.yul\":12070:13099   */\n      swap3\n      swap2\n      pop\n      pop\n      jump\t// out\n        /* \"#utility.yul\":13105:13470   */\n    tag_40:\n        /* \"#utility.yul\":13244:13248   */\n      0x00\n        /* \"#utility.yul\":13282:13284   */\n      0x20\n        /* \"#utility.yul\":13271:13280   */\n      dup3\n        /* \"#utility.yul\":13267:13285   */\n      add\n        /* \"#utility.yul\":13259:13285   */\n      swap1\n      pop\n        /* \"#utility.yul\":13331:13340   */\n      dup2\n        /* \"#utility.yul\":13325:13329   */\n      dup2\n        /* \"#utility.yul\":13321:13341   */\n      sub\n        /* \"#utility.yul\":13317:13318   */\n      0x00\n        /* \"#utility.yul\":13306:13315   */\n      dup4\n        /* \"#utility.yul\":13302:13319   */\n      add\n        /* \"#utility.yul\":13295:13342   */\n      mstore\n        /* \"#utility.yul\":13359:13463   */\n      tag_370\n        /* \"#utility.yul\":13458:13462   */\n      dup2\n        /* \"#utility.yul\":13449:13455   */\n      dup5\n        /* \"#utility.yul\":13359:13463   */\n      tag_215\n      jump\t// in\n    tag_370:\n        /* \"#utility.yul\":13351:13463   */\n      swap1\n      pop\n        /* \"#utility.yul\":13105:13470   */\n      swap3\n      swap2\n      pop\n      pop\n      jump\t// out\n        /* \"#utility.yul\":13476:13641   */\n    tag_216:\n        /* \"#utility.yul\":13616:13633   */\n      0x41636365736f2064656e656761646f0000000000000000000000000000000000\n        /* \"#utility.yul\":13612:13613   */\n      0x00\n        /* \"#utility.yul\":13604:13610   */\n      dup3\n        /* \"#utility.yul\":13600:13614   */\n      add\n        /* \"#utility.yul\":13593:13634   */\n      mstore\n        /* \"#utility.yul\":13476:13641   */\n      pop\n      jump\t// out\n        /* \"#utility.yul\":13647:14013   */\n    tag_217:\n        /* \"#utility.yul\":13789:13792   */\n      0x00\n        /* \"#utility.yul\":13810:13877   */\n      tag_373\n        /* \"#utility.yul\":13874:13876   */\n      0x0f\n        /* \"#utility.yul\":13869:13872   */\n      dup4\n        /* \"#utility.yul\":13810:13877   */\n      tag_183\n      jump\t// in\n    tag_373:\n        /* \"#utility.yul\":13803:13877   */\n      swap2\n      pop\n        /* \"#utility.yul\":13886:13979   */\n      tag_374\n        /* \"#utility.yul\":13975:13978   */\n      dup3\n        /* \"#utility.yul\":13886:13979   */\n      tag_216\n      jump\t// in\n    tag_374:\n        /* \"#utility.yul\":14004:14006   */\n      0x20\n        /* \"#utility.yul\":13999:14002   */\n      dup3\n        /* \"#utility.yul\":13995:14007   */\n      add\n        /* \"#utility.yul\":13988:14007   */\n      swap1\n      pop\n        /* \"#utility.yul\":13647:14013   */\n      swap2\n      swap1\n      pop\n      jump\t// out\n        /* \"#utility.yul\":14019:14438   */\n    tag_44:\n        /* \"#utility.yul\":14185:14189   */\n      0x00\n        /* \"#utility.yul\":14223:14225   */\n      0x20\n        /* \"#utility.yul\":14212:14221   */\n      dup3\n        /* \"#utility.yul\":14208:14226   */\n      add\n        /* \"#utility.yul\":14200:14226   */\n      swap1\n      pop\n        /* \"#utility.yul\":14272:14281   */\n      dup2\n        /* \"#utility.yul\":14266:14270   */\n      dup2\n        /* \"#utility.yul\":14262:14282   */\n      sub\n        /* \"#utility.yul\":14258:14259   */\n      0x00\n        /* \"#utility.yul\":14247:14256   */\n      dup4\n        /* \"#utility.yul\":14243:14260   */\n      add\n        /* \"#utility.yul\":14236:14283   */\n      mstore\n        /* \"#utility.yul\":14300:14431   */\n      tag_376\n        /* \"#utility.yul\":14426:14430   */\n      dup2\n        /* \"#utility.yul\":14300:14431   */\n      tag_217\n      jump\t// in\n    tag_376:\n        /* \"#utility.yul\":14292:14431   */\n      swap1\n      pop\n        /* \"#utility.yul\":14019:14438   */\n      swap2\n      swap1\n      pop\n      jump\t// out\n        /* \"#utility.yul\":14444:14668   */\n    tag_218:\n        /* \"#utility.yul\":14584:14618   */\n      0x416363696f6e206e6f2070657274696d6964612c20766f746163696f6e206365\n        /* \"#utility.yul\":14580:14581   */\n      0x00\n        /* \"#utility.yul\":14572:14578   */\n      dup3\n        /* \"#utility.yul\":14568:14582   */\n      add\n        /* \"#utility.yul\":14561:14619   */\n      mstore\n        /* \"#utility.yul\":14653:14660   */\n      0x7272616461000000000000000000000000000000000000000000000000000000\n        /* \"#utility.yul\":14648:14650   */\n      0x20\n        /* \"#utility.yul\":14640:14646   */\n      dup3\n        /* \"#utility.yul\":14636:14651   */\n      add\n        /* \"#utility.yul\":14629:14661   */\n      mstore\n        /* \"#utility.yul\":14444:14668   */\n      pop\n      jump\t// out\n        /* \"#utility.yul\":14674:15040   */\n    tag_219:\n        /* \"#utility.yul\":14816:14819   */\n      0x00\n        /* \"#utility.yul\":14837:14904   */\n      tag_379\n        /* \"#utility.yul\":14901:14903   */\n      0x25\n        /* \"#utility.yul\":14896:14899   */\n      dup4\n        /* \"#utility.yul\":14837:14904   */\n      tag_183\n      jump\t// in\n    tag_379:\n        /* \"#utility.yul\":14830:14904   */\n      swap2\n      pop\n        /* \"#utility.yul\":14913:15006   */\n      tag_380\n        /* \"#utility.yul\":15002:15005   */\n      dup3\n        /* \"#utility.yul\":14913:15006   */\n      tag_218\n      jump\t// in\n    tag_380:\n        /* \"#utility.yul\":15031:15033   */\n      0x40\n        /* \"#utility.yul\":15026:15029   */\n      dup3\n        /* \"#utility.yul\":15022:15034   */\n      add\n        /* \"#utility.yul\":15015:15034   */\n      swap1\n      pop\n        /* \"#utility.yul\":14674:15040   */\n      swap2\n      swap1\n      pop\n      jump\t// out\n        /* \"#utility.yul\":15046:15465   */\n    tag_49:\n        /* \"#utility.yul\":15212:15216   */\n      0x00\n        /* \"#utility.yul\":15250:15252   */\n      0x20\n        /* \"#utility.yul\":15239:15248   */\n      dup3\n        /* \"#utility.yul\":15235:15253   */\n      add\n        /* \"#utility.yul\":15227:15253   */\n      swap1\n      pop\n        /* \"#utility.yul\":15299:15308   */\n      dup2\n        /* \"#utility.yul\":15293:15297   */\n      dup2\n        /* \"#utility.yul\":15289:15309   */\n      sub\n        /* \"#utility.yul\":15285:15286   */\n      0x00\n        /* \"#utility.yul\":15274:15283   */\n      dup4\n        /* \"#utility.yul\":15270:15287   */\n      add\n        /* \"#utility.yul\":15263:15310   */\n      mstore\n        /* \"#utility.yul\":15327:15458   */\n      tag_382\n        /* \"#utility.yul\":15453:15457   */\n      dup2\n        /* \"#utility.yul\":15327:15458   */\n      tag_219\n      jump\t// in\n    tag_382:\n        /* \"#utility.yul\":15319:15458   */\n      swap1\n      pop\n        /* \"#utility.yul\":15046:15465   */\n      swap2\n      swap1\n      pop\n      jump\t// out\n        /* \"#utility.yul\":15471:15638   */\n    tag_220:\n        /* \"#utility.yul\":15611:15630   */\n      0x4572726f722c20796120766f7461737465000000000000000000000000000000\n        /* \"#utility.yul\":15607:15608   */\n      0x00\n        /* \"#utility.yul\":15599:15605   */\n      dup3\n        /* \"#utility.yul\":15595:15609   */\n      add\n        /* \"#utility.yul\":15588:15631   */\n      mstore\n        /* \"#utility.yul\":15471:15638   */\n      pop\n      jump\t// out\n        /* \"#utility.yul\":15644:16010   */\n    tag_221:\n        /* \"#utility.yul\":15786:15789   */\n      0x00\n        /* \"#utility.yul\":15807:15874   */\n      tag_385\n        /* \"#utility.yul\":15871:15873   */\n      0x11\n        /* \"#utility.yul\":15866:15869   */\n      dup4\n        /* \"#utility.yul\":15807:15874   */\n      tag_183\n      jump\t// in\n    tag_385:\n        /* \"#utility.yul\":15800:15874   */\n      swap2\n      pop\n        /* \"#utility.yul\":15883:15976   */\n      tag_386\n        /* \"#utility.yul\":15972:15975   */\n      dup3\n        /* \"#utility.yul\":15883:15976   */\n      tag_220\n      jump\t// in\n    tag_386:\n        /* \"#utility.yul\":16001:16003   */\n      0x20\n        /* \"#utility.yul\":15996:15999   */\n      dup3\n        /* \"#utility.yul\":15992:16004   */\n      add\n        /* \"#utility.yul\":15985:16004   */\n      swap1\n      pop\n        /* \"#utility.yul\":15644:16010   */\n      swap2\n      swap1\n      pop\n      jump\t// out\n        /* \"#utility.yul\":16016:16435   */\n    tag_53:\n        /* \"#utility.yul\":16182:16186   */\n      0x00\n        /* \"#utility.yul\":16220:16222   */\n      0x20\n        /* \"#utility.yul\":16209:16218   */\n      dup3\n        /* \"#utility.yul\":16205:16223   */\n      add\n        /* \"#utility.yul\":16197:16223   */\n      swap1\n      pop\n        /* \"#utility.yul\":16269:16278   */\n      dup2\n        /* \"#utility.yul\":16263:16267   */\n      dup2\n        /* \"#utility.yul\":16259:16279   */\n      sub\n        /* \"#utility.yul\":16255:16256   */\n      0x00\n        /* \"#utility.yul\":16244:16253   */\n      dup4\n        /* \"#utility.yul\":16240:16257   */\n      add\n        /* \"#utility.yul\":16233:16280   */\n      mstore\n        /* \"#utility.yul\":16297:16428   */\n      tag_388\n        /* \"#utility.yul\":16423:16427   */\n      dup2\n        /* \"#utility.yul\":16297:16428   */\n      tag_221\n      jump\t// in\n    tag_388:\n        /* \"#utility.yul\":16289:16428   */\n      swap1\n      pop\n        /* \"#utility.yul\":16016:16435   */\n      swap2\n      swap1\n      pop\n      jump\t// out\n        /* \"#utility.yul\":16441:16617   */\n    tag_222:\n        /* \"#utility.yul\":16581:16609   */\n      0x4572726f722c207061727469646f20696e6578697374656e7465000000000000\n        /* \"#utility.yul\":16577:16578   */\n      0x00\n        /* \"#utility.yul\":16569:16575   */\n      dup3\n        /* \"#utility.yul\":16565:16579   */\n      add\n        /* \"#utility.yul\":16558:16610   */\n      mstore\n        /* \"#utility.yul\":16441:16617   */\n      pop\n      jump\t// out\n        /* \"#utility.yul\":16623:16989   */\n    tag_223:\n        /* \"#utility.yul\":16765:16768   */\n      0x00\n        /* \"#utility.yul\":16786:16853   */\n      tag_391\n        /* \"#utility.yul\":16850:16852   */\n      0x1a\n        /* \"#utility.yul\":16845:16848   */\n      dup4\n        /* \"#utility.yul\":16786:16853   */\n      tag_183\n      jump\t// in\n    tag_391:\n        /* \"#utility.yul\":16779:16853   */\n      swap2\n      pop\n        /* \"#utility.yul\":16862:16955   */\n      tag_392\n        /* \"#utility.yul\":16951:16954   */\n      dup3\n        /* \"#utility.yul\":16862:16955   */\n      tag_222\n      jump\t// in\n    tag_392:\n        /* \"#utility.yul\":16980:16982   */\n      0x20\n        /* \"#utility.yul\":16975:16978   */\n      dup3\n        /* \"#utility.yul\":16971:16983   */\n      add\n        /* \"#utility.yul\":16964:16983   */\n      swap1\n      pop\n        /* \"#utility.yul\":16623:16989   */\n      swap2\n      swap1\n      pop\n      jump\t// out\n        /* \"#utility.yul\":16995:17414   */\n    tag_56:\n        /* \"#utility.yul\":17161:17165   */\n      0x00\n        /* \"#utility.yul\":17199:17201   */\n      0x20\n        /* \"#utility.yul\":17188:17197   */\n      dup3\n        /* \"#utility.yul\":17184:17202   */\n      add\n        /* \"#utility.yul\":17176:17202   */\n      swap1\n      pop\n        /* \"#utility.yul\":17248:17257   */\n      dup2\n        /* \"#utility.yul\":17242:17246   */\n      dup2\n        /* \"#utility.yul\":17238:17258   */\n      sub\n        /* \"#utility.yul\":17234:17235   */\n      0x00\n        /* \"#utility.yul\":17223:17232   */\n      dup4\n        /* \"#utility.yul\":17219:17236   */\n      add\n        /* \"#utility.yul\":17212:17259   */\n      mstore\n        /* \"#utility.yul\":17276:17407   */\n      tag_394\n        /* \"#utility.yul\":17402:17406   */\n      dup2\n        /* \"#utility.yul\":17276:17407   */\n      tag_223\n      jump\t// in\n    tag_394:\n        /* \"#utility.yul\":17268:17407   */\n      swap1\n      pop\n        /* \"#utility.yul\":16995:17414   */\n      swap2\n      swap1\n      pop\n      jump\t// out\n        /* \"#utility.yul\":17420:17600   */\n    tag_59:\n        /* \"#utility.yul\":17468:17545   */\n      0x4e487b7100000000000000000000000000000000000000000000000000000000\n        /* \"#utility.yul\":17465:17466   */\n      0x00\n        /* \"#utility.yul\":17458:17546   */\n      mstore\n        /* \"#utility.yul\":17565:17569   */\n      0x32\n        /* \"#utility.yul\":17562:17563   */\n      0x04\n        /* \"#utility.yul\":17555:17570   */\n      mstore\n        /* \"#utility.yul\":17589:17593   */\n      0x24\n        /* \"#utility.yul\":17586:17587   */\n      0x00\n        /* \"#utility.yul\":17579:17594   */\n      revert\n        /* \"#utility.yul\":17606:17786   */\n    tag_224:\n        /* \"#utility.yul\":17654:17731   */\n      0x4e487b7100000000000000000000000000000000000000000000000000000000\n        /* \"#utility.yul\":17651:17652   */\n      0x00\n        /* \"#utility.yul\":17644:17732   */\n      mstore\n        /* \"#utility.yul\":17751:17755   */\n      0x11\n        /* \"#utility.yul\":17748:17749   */\n      0x04\n        /* \"#utility.yul\":17741:17756   */\n      mstore\n        /* \"#utility.yul\":17775:17779   */\n      0x24\n        /* \"#utility.yul\":17772:17773   */\n      0x00\n        /* \"#utility.yul\":17765:17780   */\n      revert\n        /* \"#utility.yul\":17792:18025   */\n    tag_62:\n        /* \"#utility.yul\":17831:17834   */\n      0x00\n        /* \"#utility.yul\":17854:17878   */\n      tag_398\n        /* \"#utility.yul\":17872:17877   */\n      dup3\n        /* \"#utility.yul\":17854:17878   */\n      tag_178\n      jump\t// in\n    tag_398:\n        /* \"#utility.yul\":17845:17878   */\n      swap2\n      pop\n        /* \"#utility.yul\":17900:17966   */\n      0xffffffffffffffffffffffffffffffffffffffffffffffffffffffffffffffff\n        /* \"#utility.yul\":17893:17898   */\n      dup3\n        /* \"#utility.yul\":17890:17967   */\n      sub\n        /* \"#utility.yul\":17887:17990   */\n      tag_399\n      jumpi\n        /* \"#utility.yul\":17970:17988   */\n      tag_400\n      tag_224\n      jump\t// in\n    tag_400:\n        /* \"#utility.yul\":17887:17990   */\n    tag_399:\n        /* \"#utility.yul\":18017:18018   */\n      0x01\n        /* \"#utility.yul\":18010:18015   */\n      dup3\n        /* \"#utility.yul\":18006:18019   */\n      add\n        /* \"#utility.yul\":17999:18019   */\n      swap1\n      pop\n        /* \"#utility.yul\":17792:18025   */\n      swap2\n      swap1\n      pop\n      jump\t// out\n        /* \"#utility.yul\":18031:18211   */\n    tag_225:\n        /* \"#utility.yul\":18079:18156   */\n      0x4e487b7100000000000000000000000000000000000000000000000000000000\n        /* \"#utility.yul\":18076:18077   */\n      0x00\n        /* \"#utility.yul\":18069:18157   */\n      mstore\n        /* \"#utility.yul\":18176:18180   */\n      0x22\n        /* \"#utility.yul\":18173:18174   */\n      0x04\n        /* \"#utility.yul\":18166:18181   */\n      mstore\n        /* \"#utility.yul\":18200:18204   */\n      0x24\n        /* \"#utility.yul\":18197:18198   */\n      0x00\n        /* \"#utility.yul\":18190:18205   */\n      revert\n        /* \"#utility.yul\":18217:18537   */\n    tag_66:\n        /* \"#utility.yul\":18261:18267   */\n      0x00\n        /* \"#utility.yul\":18298:18299   */\n      0x02\n        /* \"#utility.yul\":18292:18296   */\n      dup3\n        /* \"#utility.yul\":18288:18300   */\n      div\n        /* \"#utility.yul\":18278:18300   */\n      swap1\n      pop\n        /* \"#utility.yul\":18345:18346   */\n      0x01\n        /* \"#utility.yul\":18339:18343   */\n      dup3\n        /* \"#utility.yul\":18335:18347   */\n      and\n        /* \"#utility.yul\":18366:18384   */\n      dup1\n        /* \"#utility.yul\":18356:18437   */\n      tag_403\n      jumpi\n        /* \"#utility.yul\":18422:18426   */\n      0x7f\n        /* \"#utility.yul\":18414:18420   */\n      dup3\n        /* \"#utility.yul\":18410:18427   */\n      and\n        /* \"#utility.yul\":18400:18427   */\n      swap2\n      pop\n        /* \"#utility.yul\":18356:18437   */\n    tag_403:\n        /* \"#utility.yul\":18484:18486   */\n      0x20\n        /* \"#utility.yul\":18476:18482   */\n      dup3\n        /* \"#utility.yul\":18473:18487   */\n      lt\n        /* \"#utility.yul\":18453:18471   */\n      dup2\n        /* \"#utility.yul\":18450:18488   */\n      sub\n        /* \"#utility.yul\":18447:18531   */\n      tag_404\n      jumpi\n        /* \"#utility.yul\":18503:18521   */\n      tag_405\n      tag_225\n      jump\t// in\n    tag_405:\n        /* \"#utility.yul\":18447:18531   */\n    tag_404:\n        /* \"#utility.yul\":18268:18537   */\n      pop\n        /* \"#utility.yul\":18217:18537   */\n      swap2\n      swap1\n      pop\n      jump\t// out\n        /* \"#utility.yul\":18543:18767   */\n    tag_226:\n        /* \"#utility.yul\":18683:18717   */\n      0x416363696f6e206e6f2070657274696d6964612c20766f746163696f6e206162\n        /* \"#utility.yul\":18679:18680   */\n      0x00\n        /* \"#utility.yul\":18671:18677   */\n      dup3\n        /* \"#utility.yul\":18667:18681   */\n      add\n        /* \"#utility.yul\":18660:18718   */\n      mstore\n        /* \"#utility.yul\":18752:18759   */\n      0x6965727461000000000000000000000000000000000000000000000000000000\n        /* \"#utility.yul\":18747:18749   */\n      0x20\n        /* \"#utility.yul\":18739:18745   */\n      dup3\n        /* \"#utility.yul\":18735:18750   */\n      add\n        /* \"#utility.yul\":18728:18760   */\n      mstore\n        /* \"#utility.yul\":18543:18767   */\n      pop\n      jump\t// out\n        /* \"#utility.yul\":18773:19139   */\n    tag_227:\n        /* \"#utility.yul\":18915:18918   */\n      0x00\n        /* \"#utility.yul\":18936:19003   */\n      tag_408\n        /* \"#utility.yul\":19000:19002   */\n      0x25\n        /* \"#utility.yul\":18995:18998   */\n      dup4\n        /* \"#utility.yul\":18936:19003   */\n      tag_183\n      jump\t// in\n    tag_408:\n        /* \"#utility.yul\":18929:19003   */\n      swap2\n      pop\n        /* \"#utility.yul\":19012:19105   */\n      tag_409\n        /* \"#utility.yul\":19101:19104   */\n      dup3\n        /* \"#utility.yul\":19012:19105   */\n      tag_226\n      jump\t// in\n    tag_409:\n        /* \"#utility.yul\":19130:19132   */\n      0x40\n        /* \"#utility.yul\":19125:19128   */\n      dup3\n        /* \"#utility.yul\":19121:19133   */\n      add\n        /* \"#utility.yul\":19114:19133   */\n      swap1\n      pop\n        /* \"#utility.yul\":18773:19139   */\n      swap2\n      swap1\n      pop\n      jump\t// out\n        /* \"#utility.yul\":19145:19564   */\n    tag_79:\n        /* \"#utility.yul\":19311:19315   */\n      0x00\n        /* \"#utility.yul\":19349:19351   */\n      0x20\n        /* \"#utility.yul\":19338:19347   */\n      dup3\n        /* \"#utility.yul\":19334:19352   */\n      add\n        /* \"#utility.yul\":19326:19352   */\n      swap1\n      pop\n        /* \"#utility.yul\":19398:19407   */\n      dup2\n        /* \"#utility.yul\":19392:19396   */\n      dup2\n        /* \"#utility.yul\":19388:19408   */\n      sub\n        /* \"#utility.yul\":19384:19385   */\n      0x00\n        /* \"#utility.yul\":19373:19382   */\n      dup4\n        /* \"#utility.yul\":19369:19386   */\n      add\n        /* \"#utility.yul\":19362:19409   */\n      mstore\n        /* \"#utility.yul\":19426:19557   */\n      tag_411\n        /* \"#utility.yul\":19552:19556   */\n      dup2\n        /* \"#utility.yul\":19426:19557   */\n      tag_227\n      jump\t// in\n    tag_411:\n        /* \"#utility.yul\":19418:19557   */\n      swap1\n      pop\n        /* \"#utility.yul\":19145:19564   */\n      swap2\n      swap1\n      pop\n      jump\t// out\n        /* \"#utility.yul\":19570:19711   */\n    tag_228:\n        /* \"#utility.yul\":19619:19623   */\n      0x00\n        /* \"#utility.yul\":19642:19645   */\n      dup2\n        /* \"#utility.yul\":19634:19645   */\n      swap1\n      pop\n        /* \"#utility.yul\":19665:19668   */\n      dup2\n        /* \"#utility.yul\":19662:19663   */\n      0x00\n        /* \"#utility.yul\":19655:19669   */\n      mstore\n        /* \"#utility.yul\":19699:19703   */\n      0x20\n        /* \"#utility.yul\":19696:19697   */\n      0x00\n        /* \"#utility.yul\":19686:19704   */\n      keccak256\n        /* \"#utility.yul\":19678:19704   */\n      swap1\n      pop\n        /* \"#utility.yul\":19570:19711   */\n      swap2\n      swap1\n      pop\n      jump\t// out\n        /* \"#utility.yul\":19717:19810   */\n    tag_229:\n        /* \"#utility.yul\":19754:19760   */\n      0x00\n        /* \"#utility.yul\":19801:19803   */\n      0x20\n        /* \"#utility.yul\":19796:19798   */\n      0x1f\n        /* \"#utility.yul\":19789:19794   */\n      dup4\n        /* \"#utility.yul\":19785:19799   */\n      add\n        /* \"#utility.yul\":19781:19804   */\n      div\n        /* \"#utility.yul\":19771:19804   */\n      swap1\n      pop\n        /* \"#utility.yul\":19717:19810   */\n      swap2\n      swap1\n      pop\n      jump\t// out\n        /* \"#utility.yul\":19816:19923   */\n    tag_230:\n        /* \"#utility.yul\":19860:19868   */\n      0x00\n        /* \"#utility.yul\":19910:19915   */\n      dup3\n        /* \"#utility.yul\":19904:19908   */\n      dup3\n        /* \"#utility.yul\":19900:19916   */\n      shl\n        /* \"#utility.yul\":19879:19916   */\n      swap1\n      pop\n        /* \"#utility.yul\":19816:19923   */\n      swap3\n      swap2\n      pop\n      pop\n      jump\t// out\n        /* \"#utility.yul\":19929:20322   */\n    tag_231:\n        /* \"#utility.yul\":19998:20004   */\n      0x00\n        /* \"#utility.yul\":20048:20049   */\n      0x08\n        /* \"#utility.yul\":20036:20046   */\n      dup4\n        /* \"#utility.yul\":20032:20050   */\n      mul\n        /* \"#utility.yul\":20071:20168   */\n      tag_416\n        /* \"#utility.yul\":20101:20167   */\n      0xffffffffffffffffffffffffffffffffffffffffffffffffffffffffffffffff\n        /* \"#utility.yul\":20090:20099   */\n      dup3\n        /* \"#utility.yul\":20071:20168   */\n      tag_230\n      jump\t// in\n    tag_416:\n        /* \"#utility.yul\":20189:20228   */\n      tag_417\n        /* \"#utility.yul\":20219:20227   */\n      dup7\n        /* \"#utility.yul\":20208:20217   */\n      dup4\n        /* \"#utility.yul\":20189:20228   */\n      tag_230\n      jump\t// in\n    tag_417:\n        /* \"#utility.yul\":20177:20228   */\n      swap6\n      pop\n        /* \"#utility.yul\":20261:20265   */\n      dup1\n        /* \"#utility.yul\":20257:20266   */\n      not\n        /* \"#utility.yul\":20250:20255   */\n      dup5\n        /* \"#utility.yul\":20246:20267   */\n      and\n        /* \"#utility.yul\":20237:20267   */\n      swap4\n      pop\n        /* \"#utility.yul\":20310:20314   */\n      dup1\n        /* \"#utility.yul\":20300:20308   */\n      dup7\n        /* \"#utility.yul\":20296:20315   */\n      and\n        /* \"#utility.yul\":20289:20294   */\n      dup5\n        /* \"#utility.yul\":20286:20316   */\n      or\n        /* \"#utility.yul\":20276:20316   */\n      swap3\n      pop\n        /* \"#utility.yul\":20005:20322   */\n      pop\n      pop\n        /* \"#utility.yul\":19929:20322   */\n      swap4\n      swap3\n      pop\n      pop\n      pop\n      jump\t// out\n        /* \"#utility.yul\":20328:20388   */\n    tag_232:\n        /* \"#utility.yul\":20356:20359   */\n      0x00\n        /* \"#utility.yul\":20377:20382   */\n      dup2\n        /* \"#utility.yul\":20370:20382   */\n      swap1\n      pop\n        /* \"#utility.yul\":20328:20388   */\n      swap2\n      swap1\n      pop\n      jump\t// out\n        /* \"#utility.yul\":20394:20536   */\n    tag_233:\n        /* \"#utility.yul\":20444:20453   */\n      0x00\n        /* \"#utility.yul\":20477:20530   */\n      tag_420\n        /* \"#utility.yul\":20495:20529   */\n      tag_421\n        /* \"#utility.yul\":20504:20528   */\n      tag_422\n        /* \"#utility.yul\":20522:20527   */\n      dup5\n        /* \"#utility.yul\":20504:20528   */\n      tag_178\n      jump\t// in\n    tag_422:\n        /* \"#utility.yul\":20495:20529   */\n      tag_232\n      jump\t// in\n    tag_421:\n        /* \"#utility.yul\":20477:20530   */\n      tag_178\n      jump\t// in\n    tag_420:\n        /* \"#utility.yul\":20464:20530   */\n      swap1\n      pop\n        /* \"#utility.yul\":20394:20536   */\n      swap2\n      swap1\n      pop\n      jump\t// out\n        /* \"#utility.yul\":20542:20617   */\n    tag_234:\n        /* \"#utility.yul\":20585:20588   */\n      0x00\n        /* \"#utility.yul\":20606:20611   */\n      dup2\n        /* \"#utility.yul\":20599:20611   */\n      swap1\n      pop\n        /* \"#utility.yul\":20542:20617   */\n      swap2\n      swap1\n      pop\n      jump\t// out\n        /* \"#utility.yul\":20623:20892   */\n    tag_235:\n        /* \"#utility.yul\":20733:20772   */\n      tag_425\n        /* \"#utility.yul\":20764:20771   */\n      dup4\n        /* \"#utility.yul\":20733:20772   */\n      tag_233\n      jump\t// in\n    tag_425:\n        /* \"#utility.yul\":20794:20885   */\n      tag_426\n        /* \"#utility.yul\":20843:20884   */\n      tag_427\n        /* \"#utility.yul\":20867:20883   */\n      dup3\n        /* \"#utility.yul\":20843:20884   */\n      tag_234\n      jump\t// in\n    tag_427:\n        /* \"#utility.yul\":20835:20841   */\n      dup5\n        /* \"#utility.yul\":20828:20832   */\n      dup5\n        /* \"#utility.yul\":20822:20833   */\n      sload\n        /* \"#utility.yul\":20794:20885   */\n      tag_231\n      jump\t// in\n    tag_426:\n        /* \"#utility.yul\":20788:20792   */\n      dup3\n        /* \"#utility.yul\":20781:20886   */\n      sstore\n        /* \"#utility.yul\":20699:20892   */\n      pop\n        /* \"#utility.yul\":20623:20892   */\n      pop\n      pop\n      pop\n      jump\t// out\n        /* \"#utility.yul\":20898:20971   */\n    tag_236:\n        /* \"#utility.yul\":20943:20946   */\n      0x00\n        /* \"#utility.yul\":20898:20971   */\n      swap1\n      jump\t// out\n        /* \"#utility.yul\":20977:21166   */\n    tag_237:\n        /* \"#utility.yul\":21054:21086   */\n      tag_430\n      tag_236\n      jump\t// in\n    tag_430:\n        /* \"#utility.yul\":21095:21160   */\n      tag_431\n        /* \"#utility.yul\":21153:21159   */\n      dup2\n        /* \"#utility.yul\":21145:21151   */\n      dup5\n        /* \"#utility.yul\":21139:21143   */\n      dup5\n        /* \"#utility.yul\":21095:21160   */\n      tag_235\n      jump\t// in\n    tag_431:\n        /* \"#utility.yul\":21030:21166   */\n      pop\n        /* \"#utility.yul\":20977:21166   */\n      pop\n      pop\n      jump\t// out\n        /* \"#utility.yul\":21172:21358   */\n    tag_238:\n        /* \"#utility.yul\":21232:21352   */\n    tag_433:\n        /* \"#utility.yul\":21249:21252   */\n      dup2\n        /* \"#utility.yul\":21242:21247   */\n      dup2\n        /* \"#utility.yul\":21239:21253   */\n      lt\n        /* \"#utility.yul\":21232:21352   */\n      iszero\n      tag_435\n      jumpi\n        /* \"#utility.yul\":21303:21342   */\n      tag_436\n        /* \"#utility.yul\":21340:21341   */\n      0x00\n        /* \"#utility.yul\":21333:21338   */\n      dup3\n        /* \"#utility.yul\":21303:21342   */\n      tag_237\n      jump\t// in\n    tag_436:\n        /* \"#utility.yul\":21276:21277   */\n      0x01\n        /* \"#utility.yul\":21269:21274   */\n      dup2\n        /* \"#utility.yul\":21265:21278   */\n      add\n        /* \"#utility.yul\":21256:21278   */\n      swap1\n      pop\n        /* \"#utility.yul\":21232:21352   */\n      jump(tag_433)\n    tag_435:\n        /* \"#utility.yul\":21172:21358   */\n      pop\n      pop\n      jump\t// out\n        /* \"#utility.yul\":21364:21907   */\n    tag_239:\n        /* \"#utility.yul\":21465:21467   */\n      0x1f\n        /* \"#utility.yul\":21460:21463   */\n      dup3\n        /* \"#utility.yul\":21457:21468   */\n      gt\n        /* \"#utility.yul\":21454:21900   */\n      iszero\n      tag_438\n      jumpi\n        /* \"#utility.yul\":21499:21537   */\n      tag_439\n        /* \"#utility.yul\":21531:21536   */\n      dup2\n        /* \"#utility.yul\":21499:21537   */\n      tag_228\n      jump\t// in\n    tag_439:\n        /* \"#utility.yul\":21583:21612   */\n      tag_440\n        /* \"#utility.yul\":21601:21611   */\n      dup5\n        /* \"#utility.yul\":21583:21612   */\n      tag_229\n      jump\t// in\n    tag_440:\n        /* \"#utility.yul\":21573:21581   */\n      dup2\n        /* \"#utility.yul\":21569:21613   */\n      add\n        /* \"#utility.yul\":21766:21768   */\n      0x20\n        /* \"#utility.yul\":21754:21764   */\n      dup6\n        /* \"#utility.yul\":21751:21769   */\n      lt\n        /* \"#utility.yul\":21748:21797   */\n      iszero\n      tag_441\n      jumpi\n        /* \"#utility.yul\":21787:21795   */\n      dup2\n        /* \"#utility.yul\":21772:21795   */\n      swap1\n      pop\n        /* \"#utility.yul\":21748:21797   */\n    tag_441:\n        /* \"#utility.yul\":21810:21890   */\n      tag_442\n        /* \"#utility.yul\":21866:21888   */\n      tag_443\n        /* \"#utility.yul\":21884:21887   */\n      dup6\n        /* \"#utility.yul\":21866:21888   */\n      tag_229\n      jump\t// in\n    tag_443:\n        /* \"#utility.yul\":21856:21864   */\n      dup4\n        /* \"#utility.yul\":21852:21889   */\n      add\n        /* \"#utility.yul\":21839:21850   */\n      dup3\n        /* \"#utility.yul\":21810:21890   */\n      tag_238\n      jump\t// in\n    tag_442:\n        /* \"#utility.yul\":21469:21900   */\n      pop\n      pop\n        /* \"#utility.yul\":21454:21900   */\n    tag_438:\n        /* \"#utility.yul\":21364:21907   */\n      pop\n      pop\n      pop\n      jump\t// out\n        /* \"#utility.yul\":21913:22030   */\n    tag_240:\n        /* \"#utility.yul\":21967:21975   */\n      0x00\n        /* \"#utility.yul\":22017:22022   */\n      dup3\n        /* \"#utility.yul\":22011:22015   */\n      dup3\n        /* \"#utility.yul\":22007:22023   */\n      shr\n        /* \"#utility.yul\":21986:22023   */\n      swap1\n      pop\n        /* \"#utility.yul\":21913:22030   */\n      swap3\n      swap2\n      pop\n      pop\n      jump\t// out\n        /* \"#utility.yul\":22036:22205   */\n    tag_241:\n        /* \"#utility.yul\":22080:22086   */\n      0x00\n        /* \"#utility.yul\":22113:22164   */\n      tag_446\n        /* \"#utility.yul\":22161:22162   */\n      0x00\n        /* \"#utility.yul\":22157:22163   */\n      not\n        /* \"#utility.yul\":22149:22154   */\n      dup5\n        /* \"#utility.yul\":22146:22147   */\n      0x08\n        /* \"#utility.yul\":22142:22155   */\n      mul\n        /* \"#utility.yul\":22113:22164   */\n      tag_240\n      jump\t// in\n    tag_446:\n        /* \"#utility.yul\":22109:22165   */\n      not\n        /* \"#utility.yul\":22194:22198   */\n      dup1\n        /* \"#utility.yul\":22188:22192   */\n      dup4\n        /* \"#utility.yul\":22184:22199   */\n      and\n        /* \"#utility.yul\":22174:22199   */\n      swap2\n      pop\n        /* \"#utility.yul\":22087:22205   */\n      pop\n        /* \"#utility.yul\":22036:22205   */\n      swap3\n      swap2\n      pop\n      pop\n      jump\t// out\n        /* \"#utility.yul\":22210:22505   */\n    tag_242:\n        /* \"#utility.yul\":22286:22290   */\n      0x00\n        /* \"#utility.yul\":22432:22461   */\n      tag_448\n        /* \"#utility.yul\":22457:22460   */\n      dup4\n        /* \"#utility.yul\":22451:22455   */\n      dup4\n        /* \"#utility.yul\":22432:22461   */\n      tag_241\n      jump\t// in\n    tag_448:\n        /* \"#utility.yul\":22424:22461   */\n      swap2\n      pop\n        /* \"#utility.yul\":22494:22497   */\n      dup3\n        /* \"#utility.yul\":22491:22492   */\n      0x02\n        /* \"#utility.yul\":22487:22498   */\n      mul\n        /* \"#utility.yul\":22481:22485   */\n      dup3\n        /* \"#utility.yul\":22478:22499   */\n      or\n        /* \"#utility.yul\":22470:22499   */\n      swap1\n      pop\n        /* \"#utility.yul\":22210:22505   */\n      swap3\n      swap2\n      pop\n      pop\n      jump\t// out\n        /* \"#utility.yul\":22510:23905   */\n    tag_139:\n        /* \"#utility.yul\":22627:22664   */\n      tag_450\n        /* \"#utility.yul\":22660:22663   */\n      dup3\n        /* \"#utility.yul\":22627:22664   */\n      tag_182\n      jump\t// in\n    tag_450:\n        /* \"#utility.yul\":22729:22747   */\n      0xffffffffffffffff\n        /* \"#utility.yul\":22721:22727   */\n      dup2\n        /* \"#utility.yul\":22718:22748   */\n      gt\n        /* \"#utility.yul\":22715:22771   */\n      iszero\n      tag_451\n      jumpi\n        /* \"#utility.yul\":22751:22769   */\n      tag_452\n      tag_83\n      jump\t// in\n    tag_452:\n        /* \"#utility.yul\":22715:22771   */\n    tag_451:\n        /* \"#utility.yul\":22795:22833   */\n      tag_453\n        /* \"#utility.yul\":22827:22831   */\n      dup3\n        /* \"#utility.yul\":22821:22832   */\n      sload\n        /* \"#utility.yul\":22795:22833   */\n      tag_66\n      jump\t// in\n    tag_453:\n        /* \"#utility.yul\":22880:22947   */\n      tag_454\n        /* \"#utility.yul\":22940:22946   */\n      dup3\n        /* \"#utility.yul\":22932:22938   */\n      dup3\n        /* \"#utility.yul\":22926:22930   */\n      dup6\n        /* \"#utility.yul\":22880:22947   */\n      tag_239\n      jump\t// in\n    tag_454:\n        /* \"#utility.yul\":22974:22975   */\n      0x00\n        /* \"#utility.yul\":22998:23002   */\n      0x20\n        /* \"#utility.yul\":22985:23002   */\n      swap1\n      pop\n        /* \"#utility.yul\":23030:23032   */\n      0x1f\n        /* \"#utility.yul\":23022:23028   */\n      dup4\n        /* \"#utility.yul\":23019:23033   */\n      gt\n        /* \"#utility.yul\":23047:23048   */\n      0x01\n        /* \"#utility.yul\":23042:23660   */\n      dup2\n      eq\n      tag_456\n      jumpi\n        /* \"#utility.yul\":23704:23705   */\n      0x00\n        /* \"#utility.yul\":23721:23727   */\n      dup5\n        /* \"#utility.yul\":23718:23795   */\n      iszero\n      tag_457\n      jumpi\n        /* \"#utility.yul\":23770:23779   */\n      dup3\n        /* \"#utility.yul\":23765:23768   */\n      dup8\n        /* \"#utility.yul\":23761:23780   */\n      add\n        /* \"#utility.yul\":23755:23781   */\n      mload\n        /* \"#utility.yul\":23746:23781   */\n      swap1\n      pop\n        /* \"#utility.yul\":23718:23795   */\n    tag_457:\n        /* \"#utility.yul\":23821:23888   */\n      tag_458\n        /* \"#utility.yul\":23881:23887   */\n      dup6\n        /* \"#utility.yul\":23874:23879   */\n      dup3\n        /* \"#utility.yul\":23821:23888   */\n      tag_242\n      jump\t// in\n    tag_458:\n        /* \"#utility.yul\":23815:23819   */\n      dup7\n        /* \"#utility.yul\":23808:23889   */\n      sstore\n        /* \"#utility.yul\":23677:23899   */\n      pop\n        /* \"#utility.yul\":23012:23899   */\n      jump(tag_455)\n        /* \"#utility.yul\":23042:23660   */\n    tag_456:\n        /* \"#utility.yul\":23094:23098   */\n      0x1f\n        /* \"#utility.yul\":23090:23099   */\n      not\n        /* \"#utility.yul\":23082:23088   */\n      dup5\n        /* \"#utility.yul\":23078:23100   */\n      and\n        /* \"#utility.yul\":23128:23165   */\n      tag_459\n        /* \"#utility.yul\":23160:23164   */\n      dup7\n        /* \"#utility.yul\":23128:23165   */\n      tag_228\n      jump\t// in\n    tag_459:\n        /* \"#utility.yul\":23187:23188   */\n      0x00\n        /* \"#utility.yul\":23201:23409   */\n    tag_460:\n        /* \"#utility.yul\":23215:23222   */\n      dup3\n        /* \"#utility.yul\":23212:23213   */\n      dup2\n        /* \"#utility.yul\":23209:23223   */\n      lt\n        /* \"#utility.yul\":23201:23409   */\n      iszero\n      tag_462\n      jumpi\n        /* \"#utility.yul\":23294:23303   */\n      dup5\n        /* \"#utility.yul\":23289:23292   */\n      dup10\n        /* \"#utility.yul\":23285:23304   */\n      add\n        /* \"#utility.yul\":23279:23305   */\n      mload\n        /* \"#utility.yul\":23271:23277   */\n      dup3\n        /* \"#utility.yul\":23264:23306   */\n      sstore\n        /* \"#utility.yul\":23345:23346   */\n      0x01\n        /* \"#utility.yul\":23337:23343   */\n      dup3\n        /* \"#utility.yul\":23333:23347   */\n      add\n        /* \"#utility.yul\":23323:23347   */\n      swap2\n      pop\n        /* \"#utility.yul\":23392:23394   */\n      0x20\n        /* \"#utility.yul\":23381:23390   */\n      dup6\n        /* \"#utility.yul\":23377:23395   */\n      add\n        /* \"#utility.yul\":23364:23395   */\n      swap5\n      pop\n        /* \"#utility.yul\":23238:23242   */\n      0x20\n        /* \"#utility.yul\":23235:23236   */\n      dup2\n        /* \"#utility.yul\":23231:23243   */\n      add\n        /* \"#utility.yul\":23226:23243   */\n      swap1\n      pop\n        /* \"#utility.yul\":23201:23409   */\n      jump(tag_460)\n    tag_462:\n        /* \"#utility.yul\":23437:23443   */\n      dup7\n        /* \"#utility.yul\":23428:23435   */\n      dup4\n        /* \"#utility.yul\":23425:23444   */\n      lt\n        /* \"#utility.yul\":23422:23601   */\n      iszero\n      tag_463\n      jumpi\n        /* \"#utility.yul\":23495:23504   */\n      dup5\n        /* \"#utility.yul\":23490:23493   */\n      dup10\n        /* \"#utility.yul\":23486:23505   */\n      add\n        /* \"#utility.yul\":23480:23506   */\n      mload\n        /* \"#utility.yul\":23538:23586   */\n      tag_464\n        /* \"#utility.yul\":23580:23584   */\n      0x1f\n        /* \"#utility.yul\":23572:23578   */\n      dup10\n        /* \"#utility.yul\":23568:23585   */\n      and\n        /* \"#utility.yul\":23557:23566   */\n      dup3\n        /* \"#utility.yul\":23538:23586   */\n      tag_241\n      jump\t// in\n    tag_464:\n        /* \"#utility.yul\":23530:23536   */\n      dup4\n        /* \"#utility.yul\":23523:23587   */\n      sstore\n        /* \"#utility.yul\":23445:23601   */\n      pop\n        /* \"#utility.yul\":23422:23601   */\n    tag_463:\n        /* \"#utility.yul\":23647:23648   */\n      0x01\n        /* \"#utility.yul\":23643:23644   */\n      0x02\n        /* \"#utility.yul\":23635:23641   */\n      dup9\n        /* \"#utility.yul\":23631:23645   */\n      mul\n        /* \"#utility.yul\":23627:23649   */\n      add\n        /* \"#utility.yul\":23621:23625   */\n      dup9\n        /* \"#utility.yul\":23614:23650   */\n      sstore\n        /* \"#utility.yul\":23049:23660   */\n      pop\n      pop\n      pop\n        /* \"#utility.yul\":23012:23899   */\n    tag_455:\n      pop\n        /* \"#utility.yul\":22602:23905   */\n      pop\n      pop\n      pop\n        /* \"#utility.yul\":22510:23905   */\n      pop\n      pop\n      jump\t// out\n\n    auxdata: 0xa2646970667358221220fa45cd1302f409f6e4e2290c40c18663c6f60119651cea6450ea7fe222613f1664736f6c63430008140033\n}\n",
				"bytecode": {
					"linkReferences": {},
					"object": "608060405234801561000f575f80fd5b50335f80015f6101000a81548173ffffffffffffffffffffffffffffffffffffffff021916908373ffffffffffffffffffffffffffffffffffffffff1602179055505f805f0160146101000a81548160ff021916908315150217905550611a11806100795f395ff3fe608060405234801561000f575f80fd5b5060043610610086575f3560e01c806351dc516b1161005957806351dc516b146101025780636d5964cf14610123578063846b5f7a1461013f5780639114bde81461014957610086565b80631bf488b61461008a578063216068311461009457806340deb070146100b05780634666b679146100e3575b5f80fd5b610092610167565b005b6100ae60048036038101906100a99190610e46565b610214565b005b6100ca60048036038101906100c59190610e46565b610409565b6040516100da9493929190610f0a565b60405180910390f35b6100eb610550565b6040516100f9929190610fb4565b60405180910390f35b61010a61058b565b60405161011a9493929190611195565b60405180910390f35b61013d60048036038101906101389190611320565b61097e565b005b610147610af6565b005b610151610ba4565b60405161015e91906113fd565b60405180910390f35b3373ffffffffffffffffffffffffffffffffffffffff165f80015f9054906101000a900473ffffffffffffffffffffffffffffffffffffffff1673ffffffffffffffffffffffffffffffffffffffff16146101f7576040517f08c379a00000000000000000000000000000000000000000000000000000000081526004016101ee90611467565b60405180910390fd5b5f805f0160146101000a81548160ff021916908315150217905550565b5f800160149054906101000a900460ff16610264576040517f08c379a000000000000000000000000000000000000000000000000000000000815260040161025b906114f5565b60405180910390fd5b60025f3373ffffffffffffffffffffffffffffffffffffffff1673ffffffffffffffffffffffffffffffffffffffff1681526020019081526020015f205f9054906101000a900460ff16156102ee576040517f08c379a00000000000000000000000000000000000000000000000000000000081526004016102e59061155d565b60405180910390fd5b6001805490508110610335576040517f08c379a000000000000000000000000000000000000000000000000000000000815260040161032c906115c5565b60405180910390fd5b600160025f3373ffffffffffffffffffffffffffffffffffffffff1673ffffffffffffffffffffffffffffffffffffffff1681526020019081526020015f205f6101000a81548160ff0219169083151502179055506001818154811061039e5761039d6115e3565b5b905f5260205f2090600402016003015f8154809291906103bd9061163d565b91905055503373ffffffffffffffffffffffffffffffffffffffff16817faea30ee14122d7f77116afd3fb64a61bd3e3a43c88fd92ad575a5ddc164fc97b60405160405180910390a350565b60018181548110610418575f80fd5b905f5260205f2090600402015f91509050805f01549080600101805461043d906116b1565b80601f0160208091040260200160405190810160405280929190818152602001828054610469906116b1565b80156104b45780601f1061048b576101008083540402835291602001916104b4565b820191905f5260205f20905b81548152906001019060200180831161049757829003601f168201915b5050505050908060020180546104c9906116b1565b80601f01602080910402602001604051908101604052809291908181526020018280546104f5906116b1565b80156105405780601f1061051757610100808354040283529160200191610540565b820191905f5260205f20905b81548152906001019060200180831161052357829003601f168201915b5050505050908060030154905084565b5f805f015f9054906101000a900473ffffffffffffffffffffffffffffffffffffffff1690805f0160149054906101000a900460ff16905082565b6060806060805f800160149054906101000a900460ff16156105e2576040517f08c379a00000000000000000000000000000000000000000000000000000000081526004016105d990611751565b60405180910390fd5b5f60018054905067ffffffffffffffff811115610602576106016111fc565b5b6040519080825280602002602001820160405280156106305781602001602082028036833780820191505090505b5090505f60018054905067ffffffffffffffff811115610653576106526111fc565b5b60405190808252806020026020018201604052801561068657816020015b60608152602001906001900390816106715790505b5090505f60018054905067ffffffffffffffff8111156106a9576106a86111fc565b5b6040519080825280602002602001820160405280156106dc57816020015b60608152602001906001900390816106c75790505b5090505f60018054905067ffffffffffffffff8111156106ff576106fe6111fc565b5b60405190808252806020026020018201604052801561072d5781602001602082028036833780820191505090505b5090505f5b6001805490508110156109675760018181548110610753576107526115e3565b5b905f5260205f2090600402015f0154858281518110610775576107746115e3565b5b60200260200101818152505060018181548110610795576107946115e3565b5b905f5260205f20906004020160010180546107af906116b1565b80601f01602080910402602001604051908101604052809291908181526020018280546107db906116b1565b80156108265780601f106107fd57610100808354040283529160200191610826565b820191905f5260205f20905b81548152906001019060200180831161080957829003601f168201915b505050505084828151811061083e5761083d6115e3565b5b60200260200101819052506001818154811061085d5761085c6115e3565b5b905f5260205f2090600402016002018054610877906116b1565b80601f01602080910402602001604051908101604052809291908181526020018280546108a3906116b1565b80156108ee5780601f106108c5576101008083540402835291602001916108ee565b820191905f5260205f20905b8154815290600101906020018083116108d157829003601f168201915b5050505050838281518110610906576109056115e3565b5b602002602001018190525060018181548110610925576109246115e3565b5b905f5260205f20906004020160030154828281518110610948576109476115e3565b5b602002602001018181525050808061095f9061163d565b915050610732565b508383838397509750975097505050505090919293565b3373ffffffffffffffffffffffffffffffffffffffff165f80015f9054906101000a900473ffffffffffffffffffffffffffffffffffffffff1673ffffffffffffffffffffffffffffffffffffffff1614610a0e576040517f08c379a0000000000000000000000000000000000000000000000000000000008152600401610a0590611467565b60405180910390fd5b5f800160149054906101000a900460ff1615610a5f576040517f08c379a0000000000000000000000000000000000000000000000000000000008152600401610a5690611751565b60405180910390fd5b5f6001805490509050600160405180608001604052808381526020018581526020018481526020015f815250908060018154018082558091505060019003905f5260205f2090600402015f909190919091505f820151815f01556020820151816001019081610ace919061190c565b506040820151816002019081610ae4919061190c565b50606082015181600301555050505050565b3373ffffffffffffffffffffffffffffffffffffffff165f80015f9054906101000a900473ffffffffffffffffffffffffffffffffffffffff1673ffffffffffffffffffffffffffffffffffffffff1614610b86576040517f08c379a0000000000000000000000000000000000000000000000000000000008152600401610b7d90611467565b60405180910390fd5b60015f800160146101000a81548160ff021916908315150217905550565b610bac610ddc565b5f800160149054906101000a900460ff1615610bfd576040517f08c379a0000000000000000000000000000000000000000000000000000000008152600401610bf490611751565b60405180910390fd5b5f805f5b600180549050811015610c76578260018281548110610c2357610c226115e3565b5b905f5260205f209060040201600301541115610c635760018181548110610c4d57610c4c6115e3565b5b905f5260205f2090600402016003015492508091505b8080610c6e9061163d565b915050610c01565b5060018181548110610c8b57610c8a6115e3565b5b905f5260205f2090600402016040518060800160405290815f8201548152602001600182018054610cbb906116b1565b80601f0160208091040260200160405190810160405280929190818152602001828054610ce7906116b1565b8015610d325780601f10610d0957610100808354040283529160200191610d32565b820191905f5260205f20905b815481529060010190602001808311610d1557829003601f168201915b50505050508152602001600282018054610d4b906116b1565b80601f0160208091040260200160405190810160405280929190818152602001828054610d77906116b1565b8015610dc25780601f10610d9957610100808354040283529160200191610dc2565b820191905f5260205f20905b815481529060010190602001808311610da557829003601f168201915b505050505081526020016003820154815250509250505090565b60405180608001604052805f815260200160608152602001606081526020015f81525090565b5f604051905090565b5f80fd5b5f80fd5b5f819050919050565b610e2581610e13565b8114610e2f575f80fd5b50565b5f81359050610e4081610e1c565b92915050565b5f60208284031215610e5b57610e5a610e0b565b5b5f610e6884828501610e32565b91505092915050565b610e7a81610e13565b82525050565b5f81519050919050565b5f82825260208201905092915050565b5f5b83811015610eb7578082015181840152602081019050610e9c565b5f8484015250505050565b5f601f19601f8301169050919050565b5f610edc82610e80565b610ee68185610e8a565b9350610ef6818560208601610e9a565b610eff81610ec2565b840191505092915050565b5f608082019050610f1d5f830187610e71565b8181036020830152610f2f8186610ed2565b90508181036040830152610f438185610ed2565b9050610f526060830184610e71565b95945050505050565b5f73ffffffffffffffffffffffffffffffffffffffff82169050919050565b5f610f8482610f5b565b9050919050565b610f9481610f7a565b82525050565b5f8115159050919050565b610fae81610f9a565b82525050565b5f604082019050610fc75f830185610f8b565b610fd46020830184610fa5565b9392505050565b5f81519050919050565b5f82825260208201905092915050565b5f819050602082019050919050565b61100d81610e13565b82525050565b5f61101e8383611004565b60208301905092915050565b5f602082019050919050565b5f61104082610fdb565b61104a8185610fe5565b935061105583610ff5565b805f5b8381101561108557815161106c8882611013565b97506110778361102a565b925050600181019050611058565b5085935050505092915050565b5f81519050919050565b5f82825260208201905092915050565b5f819050602082019050919050565b5f82825260208201905092915050565b5f6110d582610e80565b6110df81856110bb565b93506110ef818560208601610e9a565b6110f881610ec2565b840191505092915050565b5f61110e83836110cb565b905092915050565b5f602082019050919050565b5f61112c82611092565b611136818561109c565b935083602082028501611148856110ac565b805f5b8581101561118357848403895281516111648582611103565b945061116f83611116565b925060208a0199505060018101905061114b565b50829750879550505050505092915050565b5f6080820190508181035f8301526111ad8187611036565b905081810360208301526111c18186611122565b905081810360408301526111d58185611122565b905081810360608301526111e98184611036565b905095945050505050565b5f80fd5b5f80fd5b7f4e487b71000000000000000000000000000000000000000000000000000000005f52604160045260245ffd5b61123282610ec2565b810181811067ffffffffffffffff82111715611251576112506111fc565b5b80604052505050565b5f611263610e02565b905061126f8282611229565b919050565b5f67ffffffffffffffff82111561128e5761128d6111fc565b5b61129782610ec2565b9050602081019050919050565b828183375f83830152505050565b5f6112c46112bf84611274565b61125a565b9050828152602081018484840111156112e0576112df6111f8565b5b6112eb8482856112a4565b509392505050565b5f82601f830112611307576113066111f4565b5b81356113178482602086016112b2565b91505092915050565b5f806040838503121561133657611335610e0b565b5b5f83013567ffffffffffffffff81111561135357611352610e0f565b5b61135f858286016112f3565b925050602083013567ffffffffffffffff8111156113805761137f610e0f565b5b61138c858286016112f3565b9150509250929050565b5f608083015f8301516113ab5f860182611004565b50602083015184820360208601526113c382826110cb565b915050604083015184820360408601526113dd82826110cb565b91505060608301516113f26060860182611004565b508091505092915050565b5f6020820190508181035f8301526114158184611396565b905092915050565b7f41636365736f2064656e656761646f00000000000000000000000000000000005f82015250565b5f611451600f83610e8a565b915061145c8261141d565b602082019050919050565b5f6020820190508181035f83015261147e81611445565b9050919050565b7f416363696f6e206e6f2070657274696d6964612c20766f746163696f6e2063655f8201527f7272616461000000000000000000000000000000000000000000000000000000602082015250565b5f6114df602583610e8a565b91506114ea82611485565b604082019050919050565b5f6020820190508181035f83015261150c816114d3565b9050919050565b7f4572726f722c20796120766f74617374650000000000000000000000000000005f82015250565b5f611547601183610e8a565b915061155282611513565b602082019050919050565b5f6020820190508181035f8301526115748161153b565b9050919050565b7f4572726f722c207061727469646f20696e6578697374656e74650000000000005f82015250565b5f6115af601a83610e8a565b91506115ba8261157b565b602082019050919050565b5f6020820190508181035f8301526115dc816115a3565b9050919050565b7f4e487b71000000000000000000000000000000000000000000000000000000005f52603260045260245ffd5b7f4e487b71000000000000000000000000000000000000000000000000000000005f52601160045260245ffd5b5f61164782610e13565b91507fffffffffffffffffffffffffffffffffffffffffffffffffffffffffffffffff820361167957611678611610565b5b600182019050919050565b7f4e487b71000000000000000000000000000000000000000000000000000000005f52602260045260245ffd5b5f60028204905060018216806116c857607f821691505b6020821081036116db576116da611684565b5b50919050565b7f416363696f6e206e6f2070657274696d6964612c20766f746163696f6e2061625f8201527f6965727461000000000000000000000000000000000000000000000000000000602082015250565b5f61173b602583610e8a565b9150611746826116e1565b604082019050919050565b5f6020820190508181035f8301526117688161172f565b9050919050565b5f819050815f5260205f209050919050565b5f6020601f8301049050919050565b5f82821b905092915050565b5f600883026117cb7fffffffffffffffffffffffffffffffffffffffffffffffffffffffffffffffff82611790565b6117d58683611790565b95508019841693508086168417925050509392505050565b5f819050919050565b5f61181061180b61180684610e13565b6117ed565b610e13565b9050919050565b5f819050919050565b611829836117f6565b61183d61183582611817565b84845461179c565b825550505050565b5f90565b611851611845565b61185c818484611820565b505050565b5b8181101561187f576118745f82611849565b600181019050611862565b5050565b601f8211156118c4576118958161176f565b61189e84611781565b810160208510156118ad578190505b6118c16118b985611781565b830182611861565b50505b505050565b5f82821c905092915050565b5f6118e45f19846008026118c9565b1980831691505092915050565b5f6118fc83836118d5565b9150826002028217905092915050565b61191582610e80565b67ffffffffffffffff81111561192e5761192d6111fc565b5b61193882546116b1565b611943828285611883565b5f60209050601f831160018114611974575f8415611962578287015190505b61196c85826118f1565b8655506119d3565b601f1984166119828661176f565b5f5b828110156119a957848901518255600182019150602085019450602081019050611984565b868310156119c657848901516119c2601f8916826118d5565b8355505b6001600288020188555050505b50505050505056fea2646970667358221220fa45cd1302f409f6e4e2290c40c18663c6f60119651cea6450ea7fe222613f1664736f6c63430008140033",
					"opcodes": "PUSH1 0x80 PUSH1 0x40 MSTORE CALLVALUE DUP1 ISZERO PUSH2 0xF JUMPI PUSH0 DUP1 REVERT JUMPDEST POP CALLER PUSH0 DUP1 ADD PUSH0 PUSH2 0x100 EXP DUP2 SLOAD DUP2 PUSH20 0xFFFFFFFFFFFFFFFFFFFFFFFFFFFFFFFFFFFFFFFF MUL NOT AND SWAP1 DUP4 PUSH20 0xFFFFFFFFFFFFFFFFFFFFFFFFFFFFFFFFFFFFFFFF AND MUL OR SWAP1 SSTORE POP PUSH0 DUP1 PUSH0 ADD PUSH1 0x14 PUSH2 0x100 EXP DUP2 SLOAD DUP2 PUSH1 0xFF MUL NOT AND SWAP1 DUP4 ISZERO ISZERO MUL OR SWAP1 SSTORE POP PUSH2 0x1A11 DUP1 PUSH2 0x79 PUSH0 CODECOPY PUSH0 RETURN INVALID PUSH1 0x80 PUSH1 0x40 MSTORE CALLVALUE DUP1 ISZERO PUSH2 0xF JUMPI PUSH0 DUP1 REVERT JUMPDEST POP PUSH1 0x4 CALLDATASIZE LT PUSH2 0x86 JUMPI PUSH0 CALLDATALOAD PUSH1 0xE0 SHR DUP1 PUSH4 0x51DC516B GT PUSH2 0x59 JUMPI DUP1 PUSH4 0x51DC516B EQ PUSH2 0x102 JUMPI DUP1 PUSH4 0x6D5964CF EQ PUSH2 0x123 JUMPI DUP1 PUSH4 0x846B5F7A EQ PUSH2 0x13F JUMPI DUP1 PUSH4 0x9114BDE8 EQ PUSH2 0x149 JUMPI PUSH2 0x86 JUMP JUMPDEST DUP1 PUSH4 0x1BF488B6 EQ PUSH2 0x8A JUMPI DUP1 PUSH4 0x21606831 EQ PUSH2 0x94 JUMPI DUP1 PUSH4 0x40DEB070 EQ PUSH2 0xB0 JUMPI DUP1 PUSH4 0x4666B679 EQ PUSH2 0xE3 JUMPI JUMPDEST PUSH0 DUP1 REVERT JUMPDEST PUSH2 0x92 PUSH2 0x167 JUMP JUMPDEST STOP JUMPDEST PUSH2 0xAE PUSH1 0x4 DUP1 CALLDATASIZE SUB DUP2 ADD SWAP1 PUSH2 0xA9 SWAP2 SWAP1 PUSH2 0xE46 JUMP JUMPDEST PUSH2 0x214 JUMP JUMPDEST STOP JUMPDEST PUSH2 0xCA PUSH1 0x4 DUP1 CALLDATASIZE SUB DUP2 ADD SWAP1 PUSH2 0xC5 SWAP2 SWAP1 PUSH2 0xE46 JUMP JUMPDEST PUSH2 0x409 JUMP JUMPDEST PUSH1 0x40 MLOAD PUSH2 0xDA SWAP5 SWAP4 SWAP3 SWAP2 SWAP1 PUSH2 0xF0A JUMP JUMPDEST PUSH1 0x40 MLOAD DUP1 SWAP2 SUB SWAP1 RETURN JUMPDEST PUSH2 0xEB PUSH2 0x550 JUMP JUMPDEST PUSH1 0x40 MLOAD PUSH2 0xF9 SWAP3 SWAP2 SWAP1 PUSH2 0xFB4 JUMP JUMPDEST PUSH1 0x40 MLOAD DUP1 SWAP2 SUB SWAP1 RETURN JUMPDEST PUSH2 0x10A PUSH2 0x58B JUMP JUMPDEST PUSH1 0x40 MLOAD PUSH2 0x11A SWAP5 SWAP4 SWAP3 SWAP2 SWAP1 PUSH2 0x1195 JUMP JUMPDEST PUSH1 0x40 MLOAD DUP1 SWAP2 SUB SWAP1 RETURN JUMPDEST PUSH2 0x13D PUSH1 0x4 DUP1 CALLDATASIZE SUB DUP2 ADD SWAP1 PUSH2 0x138 SWAP2 SWAP1 PUSH2 0x1320 JUMP JUMPDEST PUSH2 0x97E JUMP JUMPDEST STOP JUMPDEST PUSH2 0x147 PUSH2 0xAF6 JUMP JUMPDEST STOP JUMPDEST PUSH2 0x151 PUSH2 0xBA4 JUMP JUMPDEST PUSH1 0x40 MLOAD PUSH2 0x15E SWAP2 SWAP1 PUSH2 0x13FD JUMP JUMPDEST PUSH1 0x40 MLOAD DUP1 SWAP2 SUB SWAP1 RETURN JUMPDEST CALLER PUSH20 0xFFFFFFFFFFFFFFFFFFFFFFFFFFFFFFFFFFFFFFFF AND PUSH0 DUP1 ADD PUSH0 SWAP1 SLOAD SWAP1 PUSH2 0x100 EXP SWAP1 DIV PUSH20 0xFFFFFFFFFFFFFFFFFFFFFFFFFFFFFFFFFFFFFFFF AND PUSH20 0xFFFFFFFFFFFFFFFFFFFFFFFFFFFFFFFFFFFFFFFF AND EQ PUSH2 0x1F7 JUMPI PUSH1 0x40 MLOAD PUSH32 0x8C379A000000000000000000000000000000000000000000000000000000000 DUP2 MSTORE PUSH1 0x4 ADD PUSH2 0x1EE SWAP1 PUSH2 0x1467 JUMP JUMPDEST PUSH1 0x40 MLOAD DUP1 SWAP2 SUB SWAP1 REVERT JUMPDEST PUSH0 DUP1 PUSH0 ADD PUSH1 0x14 PUSH2 0x100 EXP DUP2 SLOAD DUP2 PUSH1 0xFF MUL NOT AND SWAP1 DUP4 ISZERO ISZERO MUL OR SWAP1 SSTORE POP JUMP JUMPDEST PUSH0 DUP1 ADD PUSH1 0x14 SWAP1 SLOAD SWAP1 PUSH2 0x100 EXP SWAP1 DIV PUSH1 0xFF AND PUSH2 0x264 JUMPI PUSH1 0x40 MLOAD PUSH32 0x8C379A000000000000000000000000000000000000000000000000000000000 DUP2 MSTORE PUSH1 0x4 ADD PUSH2 0x25B SWAP1 PUSH2 0x14F5 JUMP JUMPDEST PUSH1 0x40 MLOAD DUP1 SWAP2 SUB SWAP1 REVERT JUMPDEST PUSH1 0x2 PUSH0 CALLER PUSH20 0xFFFFFFFFFFFFFFFFFFFFFFFFFFFFFFFFFFFFFFFF AND PUSH20 0xFFFFFFFFFFFFFFFFFFFFFFFFFFFFFFFFFFFFFFFF AND DUP2 MSTORE PUSH1 0x20 ADD SWAP1 DUP2 MSTORE PUSH1 0x20 ADD PUSH0 KECCAK256 PUSH0 SWAP1 SLOAD SWAP1 PUSH2 0x100 EXP SWAP1 DIV PUSH1 0xFF AND ISZERO PUSH2 0x2EE JUMPI PUSH1 0x40 MLOAD PUSH32 0x8C379A000000000000000000000000000000000000000000000000000000000 DUP2 MSTORE PUSH1 0x4 ADD PUSH2 0x2E5 SWAP1 PUSH2 0x155D JUMP JUMPDEST PUSH1 0x40 MLOAD DUP1 SWAP2 SUB SWAP1 REVERT JUMPDEST PUSH1 0x1 DUP1 SLOAD SWAP1 POP DUP2 LT PUSH2 0x335 JUMPI PUSH1 0x40 MLOAD PUSH32 0x8C379A000000000000000000000000000000000000000000000000000000000 DUP2 MSTORE PUSH1 0x4 ADD PUSH2 0x32C SWAP1 PUSH2 0x15C5 JUMP JUMPDEST PUSH1 0x40 MLOAD DUP1 SWAP2 SUB SWAP1 REVERT JUMPDEST PUSH1 0x1 PUSH1 0x2 PUSH0 CALLER PUSH20 0xFFFFFFFFFFFFFFFFFFFFFFFFFFFFFFFFFFFFFFFF AND PUSH20 0xFFFFFFFFFFFFFFFFFFFFFFFFFFFFFFFFFFFFFFFF AND DUP2 MSTORE PUSH1 0x20 ADD SWAP1 DUP2 MSTORE PUSH1 0x20 ADD PUSH0 KECCAK256 PUSH0 PUSH2 0x100 EXP DUP2 SLOAD DUP2 PUSH1 0xFF MUL NOT AND SWAP1 DUP4 ISZERO ISZERO MUL OR SWAP1 SSTORE POP PUSH1 0x1 DUP2 DUP2 SLOAD DUP2 LT PUSH2 0x39E JUMPI PUSH2 0x39D PUSH2 0x15E3 JUMP JUMPDEST JUMPDEST SWAP1 PUSH0 MSTORE PUSH1 0x20 PUSH0 KECCAK256 SWAP1 PUSH1 0x4 MUL ADD PUSH1 0x3 ADD PUSH0 DUP2 SLOAD DUP1 SWAP3 SWAP2 SWAP1 PUSH2 0x3BD SWAP1 PUSH2 0x163D JUMP JUMPDEST SWAP2 SWAP1 POP SSTORE POP CALLER PUSH20 0xFFFFFFFFFFFFFFFFFFFFFFFFFFFFFFFFFFFFFFFF AND DUP2 PUSH32 0xAEA30EE14122D7F77116AFD3FB64A61BD3E3A43C88FD92AD575A5DDC164FC97B PUSH1 0x40 MLOAD PUSH1 0x40 MLOAD DUP1 SWAP2 SUB SWAP1 LOG3 POP JUMP JUMPDEST PUSH1 0x1 DUP2 DUP2 SLOAD DUP2 LT PUSH2 0x418 JUMPI PUSH0 DUP1 REVERT JUMPDEST SWAP1 PUSH0 MSTORE PUSH1 0x20 PUSH0 KECCAK256 SWAP1 PUSH1 0x4 MUL ADD PUSH0 SWAP2 POP SWAP1 POP DUP1 PUSH0 ADD SLOAD SWAP1 DUP1 PUSH1 0x1 ADD DUP1 SLOAD PUSH2 0x43D SWAP1 PUSH2 0x16B1 JUMP JUMPDEST DUP1 PUSH1 0x1F ADD PUSH1 0x20 DUP1 SWAP2 DIV MUL PUSH1 0x20 ADD PUSH1 0x40 MLOAD SWAP1 DUP2 ADD PUSH1 0x40 MSTORE DUP1 SWAP3 SWAP2 SWAP1 DUP2 DUP2 MSTORE PUSH1 0x20 ADD DUP3 DUP1 SLOAD PUSH2 0x469 SWAP1 PUSH2 0x16B1 JUMP JUMPDEST DUP1 ISZERO PUSH2 0x4B4 JUMPI DUP1 PUSH1 0x1F LT PUSH2 0x48B JUMPI PUSH2 0x100 DUP1 DUP4 SLOAD DIV MUL DUP4 MSTORE SWAP2 PUSH1 0x20 ADD SWAP2 PUSH2 0x4B4 JUMP JUMPDEST DUP3 ADD SWAP2 SWAP1 PUSH0 MSTORE PUSH1 0x20 PUSH0 KECCAK256 SWAP1 JUMPDEST DUP2 SLOAD DUP2 MSTORE SWAP1 PUSH1 0x1 ADD SWAP1 PUSH1 0x20 ADD DUP1 DUP4 GT PUSH2 0x497 JUMPI DUP3 SWAP1 SUB PUSH1 0x1F AND DUP3 ADD SWAP2 JUMPDEST POP POP POP POP POP SWAP1 DUP1 PUSH1 0x2 ADD DUP1 SLOAD PUSH2 0x4C9 SWAP1 PUSH2 0x16B1 JUMP JUMPDEST DUP1 PUSH1 0x1F ADD PUSH1 0x20 DUP1 SWAP2 DIV MUL PUSH1 0x20 ADD PUSH1 0x40 MLOAD SWAP1 DUP2 ADD PUSH1 0x40 MSTORE DUP1 SWAP3 SWAP2 SWAP1 DUP2 DUP2 MSTORE PUSH1 0x20 ADD DUP3 DUP1 SLOAD PUSH2 0x4F5 SWAP1 PUSH2 0x16B1 JUMP JUMPDEST DUP1 ISZERO PUSH2 0x540 JUMPI DUP1 PUSH1 0x1F LT PUSH2 0x517 JUMPI PUSH2 0x100 DUP1 DUP4 SLOAD DIV MUL DUP4 MSTORE SWAP2 PUSH1 0x20 ADD SWAP2 PUSH2 0x540 JUMP JUMPDEST DUP3 ADD SWAP2 SWAP1 PUSH0 MSTORE PUSH1 0x20 PUSH0 KECCAK256 SWAP1 JUMPDEST DUP2 SLOAD DUP2 MSTORE SWAP1 PUSH1 0x1 ADD SWAP1 PUSH1 0x20 ADD DUP1 DUP4 GT PUSH2 0x523 JUMPI DUP3 SWAP1 SUB PUSH1 0x1F AND DUP3 ADD SWAP2 JUMPDEST POP POP POP POP POP SWAP1 DUP1 PUSH1 0x3 ADD SLOAD SWAP1 POP DUP5 JUMP JUMPDEST PUSH0 DUP1 PUSH0 ADD PUSH0 SWAP1 SLOAD SWAP1 PUSH2 0x100 EXP SWAP1 DIV PUSH20 0xFFFFFFFFFFFFFFFFFFFFFFFFFFFFFFFFFFFFFFFF AND SWAP1 DUP1 PUSH0 ADD PUSH1 0x14 SWAP1 SLOAD SWAP1 PUSH2 0x100 EXP SWAP1 DIV PUSH1 0xFF AND SWAP1 POP DUP3 JUMP JUMPDEST PUSH1 0x60 DUP1 PUSH1 0x60 DUP1 PUSH0 DUP1 ADD PUSH1 0x14 SWAP1 SLOAD SWAP1 PUSH2 0x100 EXP SWAP1 DIV PUSH1 0xFF AND ISZERO PUSH2 0x5E2 JUMPI PUSH1 0x40 MLOAD PUSH32 0x8C379A000000000000000000000000000000000000000000000000000000000 DUP2 MSTORE PUSH1 0x4 ADD PUSH2 0x5D9 SWAP1 PUSH2 0x1751 JUMP JUMPDEST PUSH1 0x40 MLOAD DUP1 SWAP2 SUB SWAP1 REVERT JUMPDEST PUSH0 PUSH1 0x1 DUP1 SLOAD SWAP1 POP PUSH8 0xFFFFFFFFFFFFFFFF DUP2 GT ISZERO PUSH2 0x602 JUMPI PUSH2 0x601 PUSH2 0x11FC JUMP JUMPDEST JUMPDEST PUSH1 0x40 MLOAD SWAP1 DUP1 DUP3 MSTORE DUP1 PUSH1 0x20 MUL PUSH1 0x20 ADD DUP3 ADD PUSH1 0x40 MSTORE DUP1 ISZERO PUSH2 0x630 JUMPI DUP2 PUSH1 0x20 ADD PUSH1 0x20 DUP3 MUL DUP1 CALLDATASIZE DUP4 CALLDATACOPY DUP1 DUP3 ADD SWAP2 POP POP SWAP1 POP JUMPDEST POP SWAP1 POP PUSH0 PUSH1 0x1 DUP1 SLOAD SWAP1 POP PUSH8 0xFFFFFFFFFFFFFFFF DUP2 GT ISZERO PUSH2 0x653 JUMPI PUSH2 0x652 PUSH2 0x11FC JUMP JUMPDEST JUMPDEST PUSH1 0x40 MLOAD SWAP1 DUP1 DUP3 MSTORE DUP1 PUSH1 0x20 MUL PUSH1 0x20 ADD DUP3 ADD PUSH1 0x40 MSTORE DUP1 ISZERO PUSH2 0x686 JUMPI DUP2 PUSH1 0x20 ADD JUMPDEST PUSH1 0x60 DUP2 MSTORE PUSH1 0x20 ADD SWAP1 PUSH1 0x1 SWAP1 SUB SWAP1 DUP2 PUSH2 0x671 JUMPI SWAP1 POP JUMPDEST POP SWAP1 POP PUSH0 PUSH1 0x1 DUP1 SLOAD SWAP1 POP PUSH8 0xFFFFFFFFFFFFFFFF DUP2 GT ISZERO PUSH2 0x6A9 JUMPI PUSH2 0x6A8 PUSH2 0x11FC JUMP JUMPDEST JUMPDEST PUSH1 0x40 MLOAD SWAP1 DUP1 DUP3 MSTORE DUP1 PUSH1 0x20 MUL PUSH1 0x20 ADD DUP3 ADD PUSH1 0x40 MSTORE DUP1 ISZERO PUSH2 0x6DC JUMPI DUP2 PUSH1 0x20 ADD JUMPDEST PUSH1 0x60 DUP2 MSTORE PUSH1 0x20 ADD SWAP1 PUSH1 0x1 SWAP1 SUB SWAP1 DUP2 PUSH2 0x6C7 JUMPI SWAP1 POP JUMPDEST POP SWAP1 POP PUSH0 PUSH1 0x1 DUP1 SLOAD SWAP1 POP PUSH8 0xFFFFFFFFFFFFFFFF DUP2 GT ISZERO PUSH2 0x6FF JUMPI PUSH2 0x6FE PUSH2 0x11FC JUMP JUMPDEST JUMPDEST PUSH1 0x40 MLOAD SWAP1 DUP1 DUP3 MSTORE DUP1 PUSH1 0x20 MUL PUSH1 0x20 ADD DUP3 ADD PUSH1 0x40 MSTORE DUP1 ISZERO PUSH2 0x72D JUMPI DUP2 PUSH1 0x20 ADD PUSH1 0x20 DUP3 MUL DUP1 CALLDATASIZE DUP4 CALLDATACOPY DUP1 DUP3 ADD SWAP2 POP POP SWAP1 POP JUMPDEST POP SWAP1 POP PUSH0 JUMPDEST PUSH1 0x1 DUP1 SLOAD SWAP1 POP DUP2 LT ISZERO PUSH2 0x967 JUMPI PUSH1 0x1 DUP2 DUP2 SLOAD DUP2 LT PUSH2 0x753 JUMPI PUSH2 0x752 PUSH2 0x15E3 JUMP JUMPDEST JUMPDEST SWAP1 PUSH0 MSTORE PUSH1 0x20 PUSH0 KECCAK256 SWAP1 PUSH1 0x4 MUL ADD PUSH0 ADD SLOAD DUP6 DUP3 DUP2 MLOAD DUP2 LT PUSH2 0x775 JUMPI PUSH2 0x774 PUSH2 0x15E3 JUMP JUMPDEST JUMPDEST PUSH1 0x20 MUL PUSH1 0x20 ADD ADD DUP2 DUP2 MSTORE POP POP PUSH1 0x1 DUP2 DUP2 SLOAD DUP2 LT PUSH2 0x795 JUMPI PUSH2 0x794 PUSH2 0x15E3 JUMP JUMPDEST JUMPDEST SWAP1 PUSH0 MSTORE PUSH1 0x20 PUSH0 KECCAK256 SWAP1 PUSH1 0x4 MUL ADD PUSH1 0x1 ADD DUP1 SLOAD PUSH2 0x7AF SWAP1 PUSH2 0x16B1 JUMP JUMPDEST DUP1 PUSH1 0x1F ADD PUSH1 0x20 DUP1 SWAP2 DIV MUL PUSH1 0x20 ADD PUSH1 0x40 MLOAD SWAP1 DUP2 ADD PUSH1 0x40 MSTORE DUP1 SWAP3 SWAP2 SWAP1 DUP2 DUP2 MSTORE PUSH1 0x20 ADD DUP3 DUP1 SLOAD PUSH2 0x7DB SWAP1 PUSH2 0x16B1 JUMP JUMPDEST DUP1 ISZERO PUSH2 0x826 JUMPI DUP1 PUSH1 0x1F LT PUSH2 0x7FD JUMPI PUSH2 0x100 DUP1 DUP4 SLOAD DIV MUL DUP4 MSTORE SWAP2 PUSH1 0x20 ADD SWAP2 PUSH2 0x826 JUMP JUMPDEST DUP3 ADD SWAP2 SWAP1 PUSH0 MSTORE PUSH1 0x20 PUSH0 KECCAK256 SWAP1 JUMPDEST DUP2 SLOAD DUP2 MSTORE SWAP1 PUSH1 0x1 ADD SWAP1 PUSH1 0x20 ADD DUP1 DUP4 GT PUSH2 0x809 JUMPI DUP3 SWAP1 SUB PUSH1 0x1F AND DUP3 ADD SWAP2 JUMPDEST POP POP POP POP POP DUP5 DUP3 DUP2 MLOAD DUP2 LT PUSH2 0x83E JUMPI PUSH2 0x83D PUSH2 0x15E3 JUMP JUMPDEST JUMPDEST PUSH1 0x20 MUL PUSH1 0x20 ADD ADD DUP2 SWAP1 MSTORE POP PUSH1 0x1 DUP2 DUP2 SLOAD DUP2 LT PUSH2 0x85D JUMPI PUSH2 0x85C PUSH2 0x15E3 JUMP JUMPDEST JUMPDEST SWAP1 PUSH0 MSTORE PUSH1 0x20 PUSH0 KECCAK256 SWAP1 PUSH1 0x4 MUL ADD PUSH1 0x2 ADD DUP1 SLOAD PUSH2 0x877 SWAP1 PUSH2 0x16B1 JUMP JUMPDEST DUP1 PUSH1 0x1F ADD PUSH1 0x20 DUP1 SWAP2 DIV MUL PUSH1 0x20 ADD PUSH1 0x40 MLOAD SWAP1 DUP2 ADD PUSH1 0x40 MSTORE DUP1 SWAP3 SWAP2 SWAP1 DUP2 DUP2 MSTORE PUSH1 0x20 ADD DUP3 DUP1 SLOAD PUSH2 0x8A3 SWAP1 PUSH2 0x16B1 JUMP JUMPDEST DUP1 ISZERO PUSH2 0x8EE JUMPI DUP1 PUSH1 0x1F LT PUSH2 0x8C5 JUMPI PUSH2 0x100 DUP1 DUP4 SLOAD DIV MUL DUP4 MSTORE SWAP2 PUSH1 0x20 ADD SWAP2 PUSH2 0x8EE JUMP JUMPDEST DUP3 ADD SWAP2 SWAP1 PUSH0 MSTORE PUSH1 0x20 PUSH0 KECCAK256 SWAP1 JUMPDEST DUP2 SLOAD DUP2 MSTORE SWAP1 PUSH1 0x1 ADD SWAP1 PUSH1 0x20 ADD DUP1 DUP4 GT PUSH2 0x8D1 JUMPI DUP3 SWAP1 SUB PUSH1 0x1F AND DUP3 ADD SWAP2 JUMPDEST POP POP POP POP POP DUP4 DUP3 DUP2 MLOAD DUP2 LT PUSH2 0x906 JUMPI PUSH2 0x905 PUSH2 0x15E3 JUMP JUMPDEST JUMPDEST PUSH1 0x20 MUL PUSH1 0x20 ADD ADD DUP2 SWAP1 MSTORE POP PUSH1 0x1 DUP2 DUP2 SLOAD DUP2 LT PUSH2 0x925 JUMPI PUSH2 0x924 PUSH2 0x15E3 JUMP JUMPDEST JUMPDEST SWAP1 PUSH0 MSTORE PUSH1 0x20 PUSH0 KECCAK256 SWAP1 PUSH1 0x4 MUL ADD PUSH1 0x3 ADD SLOAD DUP3 DUP3 DUP2 MLOAD DUP2 LT PUSH2 0x948 JUMPI PUSH2 0x947 PUSH2 0x15E3 JUMP JUMPDEST JUMPDEST PUSH1 0x20 MUL PUSH1 0x20 ADD ADD DUP2 DUP2 MSTORE POP POP DUP1 DUP1 PUSH2 0x95F SWAP1 PUSH2 0x163D JUMP JUMPDEST SWAP2 POP POP PUSH2 0x732 JUMP JUMPDEST POP DUP4 DUP4 DUP4 DUP4 SWAP8 POP SWAP8 POP SWAP8 POP SWAP8 POP POP POP POP POP SWAP1 SWAP2 SWAP3 SWAP4 JUMP JUMPDEST CALLER PUSH20 0xFFFFFFFFFFFFFFFFFFFFFFFFFFFFFFFFFFFFFFFF AND PUSH0 DUP1 ADD PUSH0 SWAP1 SLOAD SWAP1 PUSH2 0x100 EXP SWAP1 DIV PUSH20 0xFFFFFFFFFFFFFFFFFFFFFFFFFFFFFFFFFFFFFFFF AND PUSH20 0xFFFFFFFFFFFFFFFFFFFFFFFFFFFFFFFFFFFFFFFF AND EQ PUSH2 0xA0E JUMPI PUSH1 0x40 MLOAD PUSH32 0x8C379A000000000000000000000000000000000000000000000000000000000 DUP2 MSTORE PUSH1 0x4 ADD PUSH2 0xA05 SWAP1 PUSH2 0x1467 JUMP JUMPDEST PUSH1 0x40 MLOAD DUP1 SWAP2 SUB SWAP1 REVERT JUMPDEST PUSH0 DUP1 ADD PUSH1 0x14 SWAP1 SLOAD SWAP1 PUSH2 0x100 EXP SWAP1 DIV PUSH1 0xFF AND ISZERO PUSH2 0xA5F JUMPI PUSH1 0x40 MLOAD PUSH32 0x8C379A000000000000000000000000000000000000000000000000000000000 DUP2 MSTORE PUSH1 0x4 ADD PUSH2 0xA56 SWAP1 PUSH2 0x1751 JUMP JUMPDEST PUSH1 0x40 MLOAD DUP1 SWAP2 SUB SWAP1 REVERT JUMPDEST PUSH0 PUSH1 0x1 DUP1 SLOAD SWAP1 POP SWAP1 POP PUSH1 0x1 PUSH1 0x40 MLOAD DUP1 PUSH1 0x80 ADD PUSH1 0x40 MSTORE DUP1 DUP4 DUP2 MSTORE PUSH1 0x20 ADD DUP6 DUP2 MSTORE PUSH1 0x20 ADD DUP5 DUP2 MSTORE PUSH1 0x20 ADD PUSH0 DUP2 MSTORE POP SWAP1 DUP1 PUSH1 0x1 DUP2 SLOAD ADD DUP1 DUP3 SSTORE DUP1 SWAP2 POP POP PUSH1 0x1 SWAP1 SUB SWAP1 PUSH0 MSTORE PUSH1 0x20 PUSH0 KECCAK256 SWAP1 PUSH1 0x4 MUL ADD PUSH0 SWAP1 SWAP2 SWAP1 SWAP2 SWAP1 SWAP2 POP PUSH0 DUP3 ADD MLOAD DUP2 PUSH0 ADD SSTORE PUSH1 0x20 DUP3 ADD MLOAD DUP2 PUSH1 0x1 ADD SWAP1 DUP2 PUSH2 0xACE SWAP2 SWAP1 PUSH2 0x190C JUMP JUMPDEST POP PUSH1 0x40 DUP3 ADD MLOAD DUP2 PUSH1 0x2 ADD SWAP1 DUP2 PUSH2 0xAE4 SWAP2 SWAP1 PUSH2 0x190C JUMP JUMPDEST POP PUSH1 0x60 DUP3 ADD MLOAD DUP2 PUSH1 0x3 ADD SSTORE POP POP POP POP POP JUMP JUMPDEST CALLER PUSH20 0xFFFFFFFFFFFFFFFFFFFFFFFFFFFFFFFFFFFFFFFF AND PUSH0 DUP1 ADD PUSH0 SWAP1 SLOAD SWAP1 PUSH2 0x100 EXP SWAP1 DIV PUSH20 0xFFFFFFFFFFFFFFFFFFFFFFFFFFFFFFFFFFFFFFFF AND PUSH20 0xFFFFFFFFFFFFFFFFFFFFFFFFFFFFFFFFFFFFFFFF AND EQ PUSH2 0xB86 JUMPI PUSH1 0x40 MLOAD PUSH32 0x8C379A000000000000000000000000000000000000000000000000000000000 DUP2 MSTORE PUSH1 0x4 ADD PUSH2 0xB7D SWAP1 PUSH2 0x1467 JUMP JUMPDEST PUSH1 0x40 MLOAD DUP1 SWAP2 SUB SWAP1 REVERT JUMPDEST PUSH1 0x1 PUSH0 DUP1 ADD PUSH1 0x14 PUSH2 0x100 EXP DUP2 SLOAD DUP2 PUSH1 0xFF MUL NOT AND SWAP1 DUP4 ISZERO ISZERO MUL OR SWAP1 SSTORE POP JUMP JUMPDEST PUSH2 0xBAC PUSH2 0xDDC JUMP JUMPDEST PUSH0 DUP1 ADD PUSH1 0x14 SWAP1 SLOAD SWAP1 PUSH2 0x100 EXP SWAP1 DIV PUSH1 0xFF AND ISZERO PUSH2 0xBFD JUMPI PUSH1 0x40 MLOAD PUSH32 0x8C379A000000000000000000000000000000000000000000000000000000000 DUP2 MSTORE PUSH1 0x4 ADD PUSH2 0xBF4 SWAP1 PUSH2 0x1751 JUMP JUMPDEST PUSH1 0x40 MLOAD DUP1 SWAP2 SUB SWAP1 REVERT JUMPDEST PUSH0 DUP1 PUSH0 JUMPDEST PUSH1 0x1 DUP1 SLOAD SWAP1 POP DUP2 LT ISZERO PUSH2 0xC76 JUMPI DUP3 PUSH1 0x1 DUP3 DUP2 SLOAD DUP2 LT PUSH2 0xC23 JUMPI PUSH2 0xC22 PUSH2 0x15E3 JUMP JUMPDEST JUMPDEST SWAP1 PUSH0 MSTORE PUSH1 0x20 PUSH0 KECCAK256 SWAP1 PUSH1 0x4 MUL ADD PUSH1 0x3 ADD SLOAD GT ISZERO PUSH2 0xC63 JUMPI PUSH1 0x1 DUP2 DUP2 SLOAD DUP2 LT PUSH2 0xC4D JUMPI PUSH2 0xC4C PUSH2 0x15E3 JUMP JUMPDEST JUMPDEST SWAP1 PUSH0 MSTORE PUSH1 0x20 PUSH0 KECCAK256 SWAP1 PUSH1 0x4 MUL ADD PUSH1 0x3 ADD SLOAD SWAP3 POP DUP1 SWAP2 POP JUMPDEST DUP1 DUP1 PUSH2 0xC6E SWAP1 PUSH2 0x163D JUMP JUMPDEST SWAP2 POP POP PUSH2 0xC01 JUMP JUMPDEST POP PUSH1 0x1 DUP2 DUP2 SLOAD DUP2 LT PUSH2 0xC8B JUMPI PUSH2 0xC8A PUSH2 0x15E3 JUMP JUMPDEST JUMPDEST SWAP1 PUSH0 MSTORE PUSH1 0x20 PUSH0 KECCAK256 SWAP1 PUSH1 0x4 MUL ADD PUSH1 0x40 MLOAD DUP1 PUSH1 0x80 ADD PUSH1 0x40 MSTORE SWAP1 DUP2 PUSH0 DUP3 ADD SLOAD DUP2 MSTORE PUSH1 0x20 ADD PUSH1 0x1 DUP3 ADD DUP1 SLOAD PUSH2 0xCBB SWAP1 PUSH2 0x16B1 JUMP JUMPDEST DUP1 PUSH1 0x1F ADD PUSH1 0x20 DUP1 SWAP2 DIV MUL PUSH1 0x20 ADD PUSH1 0x40 MLOAD SWAP1 DUP2 ADD PUSH1 0x40 MSTORE DUP1 SWAP3 SWAP2 SWAP1 DUP2 DUP2 MSTORE PUSH1 0x20 ADD DUP3 DUP1 SLOAD PUSH2 0xCE7 SWAP1 PUSH2 0x16B1 JUMP JUMPDEST DUP1 ISZERO PUSH2 0xD32 JUMPI DUP1 PUSH1 0x1F LT PUSH2 0xD09 JUMPI PUSH2 0x100 DUP1 DUP4 SLOAD DIV MUL DUP4 MSTORE SWAP2 PUSH1 0x20 ADD SWAP2 PUSH2 0xD32 JUMP JUMPDEST DUP3 ADD SWAP2 SWAP1 PUSH0 MSTORE PUSH1 0x20 PUSH0 KECCAK256 SWAP1 JUMPDEST DUP2 SLOAD DUP2 MSTORE SWAP1 PUSH1 0x1 ADD SWAP1 PUSH1 0x20 ADD DUP1 DUP4 GT PUSH2 0xD15 JUMPI DUP3 SWAP1 SUB PUSH1 0x1F AND DUP3 ADD SWAP2 JUMPDEST POP POP POP POP POP DUP2 MSTORE PUSH1 0x20 ADD PUSH1 0x2 DUP3 ADD DUP1 SLOAD PUSH2 0xD4B SWAP1 PUSH2 0x16B1 JUMP JUMPDEST DUP1 PUSH1 0x1F ADD PUSH1 0x20 DUP1 SWAP2 DIV MUL PUSH1 0x20 ADD PUSH1 0x40 MLOAD SWAP1 DUP2 ADD PUSH1 0x40 MSTORE DUP1 SWAP3 SWAP2 SWAP1 DUP2 DUP2 MSTORE PUSH1 0x20 ADD DUP3 DUP1 SLOAD PUSH2 0xD77 SWAP1 PUSH2 0x16B1 JUMP JUMPDEST DUP1 ISZERO PUSH2 0xDC2 JUMPI DUP1 PUSH1 0x1F LT PUSH2 0xD99 JUMPI PUSH2 0x100 DUP1 DUP4 SLOAD DIV MUL DUP4 MSTORE SWAP2 PUSH1 0x20 ADD SWAP2 PUSH2 0xDC2 JUMP JUMPDEST DUP3 ADD SWAP2 SWAP1 PUSH0 MSTORE PUSH1 0x20 PUSH0 KECCAK256 SWAP1 JUMPDEST DUP2 SLOAD DUP2 MSTORE SWAP1 PUSH1 0x1 ADD SWAP1 PUSH1 0x20 ADD DUP1 DUP4 GT PUSH2 0xDA5 JUMPI DUP3 SWAP1 SUB PUSH1 0x1F AND DUP3 ADD SWAP2 JUMPDEST POP POP POP POP POP DUP2 MSTORE PUSH1 0x20 ADD PUSH1 0x3 DUP3 ADD SLOAD DUP2 MSTORE POP POP SWAP3 POP POP POP SWAP1 JUMP JUMPDEST PUSH1 0x40 MLOAD DUP1 PUSH1 0x80 ADD PUSH1 0x40 MSTORE DUP1 PUSH0 DUP2 MSTORE PUSH1 0x20 ADD PUSH1 0x60 DUP2 MSTORE PUSH1 0x20 ADD PUSH1 0x60 DUP2 MSTORE PUSH1 0x20 ADD PUSH0 DUP2 MSTORE POP SWAP1 JUMP JUMPDEST PUSH0 PUSH1 0x40 MLOAD SWAP1 POP SWAP1 JUMP JUMPDEST PUSH0 DUP1 REVERT JUMPDEST PUSH0 DUP1 REVERT JUMPDEST PUSH0 DUP2 SWAP1 POP SWAP2 SWAP1 POP JUMP JUMPDEST PUSH2 0xE25 DUP2 PUSH2 0xE13 JUMP JUMPDEST DUP2 EQ PUSH2 0xE2F JUMPI PUSH0 DUP1 REVERT JUMPDEST POP JUMP JUMPDEST PUSH0 DUP2 CALLDATALOAD SWAP1 POP PUSH2 0xE40 DUP2 PUSH2 0xE1C JUMP JUMPDEST SWAP3 SWAP2 POP POP JUMP JUMPDEST PUSH0 PUSH1 0x20 DUP3 DUP5 SUB SLT ISZERO PUSH2 0xE5B JUMPI PUSH2 0xE5A PUSH2 0xE0B JUMP JUMPDEST JUMPDEST PUSH0 PUSH2 0xE68 DUP5 DUP3 DUP6 ADD PUSH2 0xE32 JUMP JUMPDEST SWAP2 POP POP SWAP3 SWAP2 POP POP JUMP JUMPDEST PUSH2 0xE7A DUP2 PUSH2 0xE13 JUMP JUMPDEST DUP3 MSTORE POP POP JUMP JUMPDEST PUSH0 DUP2 MLOAD SWAP1 POP SWAP2 SWAP1 POP JUMP JUMPDEST PUSH0 DUP3 DUP3 MSTORE PUSH1 0x20 DUP3 ADD SWAP1 POP SWAP3 SWAP2 POP POP JUMP JUMPDEST PUSH0 JUMPDEST DUP4 DUP2 LT ISZERO PUSH2 0xEB7 JUMPI DUP1 DUP3 ADD MLOAD DUP2 DUP5 ADD MSTORE PUSH1 0x20 DUP2 ADD SWAP1 POP PUSH2 0xE9C JUMP JUMPDEST PUSH0 DUP5 DUP5 ADD MSTORE POP POP POP POP JUMP JUMPDEST PUSH0 PUSH1 0x1F NOT PUSH1 0x1F DUP4 ADD AND SWAP1 POP SWAP2 SWAP1 POP JUMP JUMPDEST PUSH0 PUSH2 0xEDC DUP3 PUSH2 0xE80 JUMP JUMPDEST PUSH2 0xEE6 DUP2 DUP6 PUSH2 0xE8A JUMP JUMPDEST SWAP4 POP PUSH2 0xEF6 DUP2 DUP6 PUSH1 0x20 DUP7 ADD PUSH2 0xE9A JUMP JUMPDEST PUSH2 0xEFF DUP2 PUSH2 0xEC2 JUMP JUMPDEST DUP5 ADD SWAP2 POP POP SWAP3 SWAP2 POP POP JUMP JUMPDEST PUSH0 PUSH1 0x80 DUP3 ADD SWAP1 POP PUSH2 0xF1D PUSH0 DUP4 ADD DUP8 PUSH2 0xE71 JUMP JUMPDEST DUP2 DUP2 SUB PUSH1 0x20 DUP4 ADD MSTORE PUSH2 0xF2F DUP2 DUP7 PUSH2 0xED2 JUMP JUMPDEST SWAP1 POP DUP2 DUP2 SUB PUSH1 0x40 DUP4 ADD MSTORE PUSH2 0xF43 DUP2 DUP6 PUSH2 0xED2 JUMP JUMPDEST SWAP1 POP PUSH2 0xF52 PUSH1 0x60 DUP4 ADD DUP5 PUSH2 0xE71 JUMP JUMPDEST SWAP6 SWAP5 POP POP POP POP POP JUMP JUMPDEST PUSH0 PUSH20 0xFFFFFFFFFFFFFFFFFFFFFFFFFFFFFFFFFFFFFFFF DUP3 AND SWAP1 POP SWAP2 SWAP1 POP JUMP JUMPDEST PUSH0 PUSH2 0xF84 DUP3 PUSH2 0xF5B JUMP JUMPDEST SWAP1 POP SWAP2 SWAP1 POP JUMP JUMPDEST PUSH2 0xF94 DUP2 PUSH2 0xF7A JUMP JUMPDEST DUP3 MSTORE POP POP JUMP JUMPDEST PUSH0 DUP2 ISZERO ISZERO SWAP1 POP SWAP2 SWAP1 POP JUMP JUMPDEST PUSH2 0xFAE DUP2 PUSH2 0xF9A JUMP JUMPDEST DUP3 MSTORE POP POP JUMP JUMPDEST PUSH0 PUSH1 0x40 DUP3 ADD SWAP1 POP PUSH2 0xFC7 PUSH0 DUP4 ADD DUP6 PUSH2 0xF8B JUMP JUMPDEST PUSH2 0xFD4 PUSH1 0x20 DUP4 ADD DUP5 PUSH2 0xFA5 JUMP JUMPDEST SWAP4 SWAP3 POP POP POP JUMP JUMPDEST PUSH0 DUP2 MLOAD SWAP1 POP SWAP2 SWAP1 POP JUMP JUMPDEST PUSH0 DUP3 DUP3 MSTORE PUSH1 0x20 DUP3 ADD SWAP1 POP SWAP3 SWAP2 POP POP JUMP JUMPDEST PUSH0 DUP2 SWAP1 POP PUSH1 0x20 DUP3 ADD SWAP1 POP SWAP2 SWAP1 POP JUMP JUMPDEST PUSH2 0x100D DUP2 PUSH2 0xE13 JUMP JUMPDEST DUP3 MSTORE POP POP JUMP JUMPDEST PUSH0 PUSH2 0x101E DUP4 DUP4 PUSH2 0x1004 JUMP JUMPDEST PUSH1 0x20 DUP4 ADD SWAP1 POP SWAP3 SWAP2 POP POP JUMP JUMPDEST PUSH0 PUSH1 0x20 DUP3 ADD SWAP1 POP SWAP2 SWAP1 POP JUMP JUMPDEST PUSH0 PUSH2 0x1040 DUP3 PUSH2 0xFDB JUMP JUMPDEST PUSH2 0x104A DUP2 DUP6 PUSH2 0xFE5 JUMP JUMPDEST SWAP4 POP PUSH2 0x1055 DUP4 PUSH2 0xFF5 JUMP JUMPDEST DUP1 PUSH0 JUMPDEST DUP4 DUP2 LT ISZERO PUSH2 0x1085 JUMPI DUP2 MLOAD PUSH2 0x106C DUP9 DUP3 PUSH2 0x1013 JUMP JUMPDEST SWAP8 POP PUSH2 0x1077 DUP4 PUSH2 0x102A JUMP JUMPDEST SWAP3 POP POP PUSH1 0x1 DUP2 ADD SWAP1 POP PUSH2 0x1058 JUMP JUMPDEST POP DUP6 SWAP4 POP POP POP POP SWAP3 SWAP2 POP POP JUMP JUMPDEST PUSH0 DUP2 MLOAD SWAP1 POP SWAP2 SWAP1 POP JUMP JUMPDEST PUSH0 DUP3 DUP3 MSTORE PUSH1 0x20 DUP3 ADD SWAP1 POP SWAP3 SWAP2 POP POP JUMP JUMPDEST PUSH0 DUP2 SWAP1 POP PUSH1 0x20 DUP3 ADD SWAP1 POP SWAP2 SWAP1 POP JUMP JUMPDEST PUSH0 DUP3 DUP3 MSTORE PUSH1 0x20 DUP3 ADD SWAP1 POP SWAP3 SWAP2 POP POP JUMP JUMPDEST PUSH0 PUSH2 0x10D5 DUP3 PUSH2 0xE80 JUMP JUMPDEST PUSH2 0x10DF DUP2 DUP6 PUSH2 0x10BB JUMP JUMPDEST SWAP4 POP PUSH2 0x10EF DUP2 DUP6 PUSH1 0x20 DUP7 ADD PUSH2 0xE9A JUMP JUMPDEST PUSH2 0x10F8 DUP2 PUSH2 0xEC2 JUMP JUMPDEST DUP5 ADD SWAP2 POP POP SWAP3 SWAP2 POP POP JUMP JUMPDEST PUSH0 PUSH2 0x110E DUP4 DUP4 PUSH2 0x10CB JUMP JUMPDEST SWAP1 POP SWAP3 SWAP2 POP POP JUMP JUMPDEST PUSH0 PUSH1 0x20 DUP3 ADD SWAP1 POP SWAP2 SWAP1 POP JUMP JUMPDEST PUSH0 PUSH2 0x112C DUP3 PUSH2 0x1092 JUMP JUMPDEST PUSH2 0x1136 DUP2 DUP6 PUSH2 0x109C JUMP JUMPDEST SWAP4 POP DUP4 PUSH1 0x20 DUP3 MUL DUP6 ADD PUSH2 0x1148 DUP6 PUSH2 0x10AC JUMP JUMPDEST DUP1 PUSH0 JUMPDEST DUP6 DUP2 LT ISZERO PUSH2 0x1183 JUMPI DUP5 DUP5 SUB DUP10 MSTORE DUP2 MLOAD PUSH2 0x1164 DUP6 DUP3 PUSH2 0x1103 JUMP JUMPDEST SWAP5 POP PUSH2 0x116F DUP4 PUSH2 0x1116 JUMP JUMPDEST SWAP3 POP PUSH1 0x20 DUP11 ADD SWAP10 POP POP PUSH1 0x1 DUP2 ADD SWAP1 POP PUSH2 0x114B JUMP JUMPDEST POP DUP3 SWAP8 POP DUP8 SWAP6 POP POP POP POP POP POP SWAP3 SWAP2 POP POP JUMP JUMPDEST PUSH0 PUSH1 0x80 DUP3 ADD SWAP1 POP DUP2 DUP2 SUB PUSH0 DUP4 ADD MSTORE PUSH2 0x11AD DUP2 DUP8 PUSH2 0x1036 JUMP JUMPDEST SWAP1 POP DUP2 DUP2 SUB PUSH1 0x20 DUP4 ADD MSTORE PUSH2 0x11C1 DUP2 DUP7 PUSH2 0x1122 JUMP JUMPDEST SWAP1 POP DUP2 DUP2 SUB PUSH1 0x40 DUP4 ADD MSTORE PUSH2 0x11D5 DUP2 DUP6 PUSH2 0x1122 JUMP JUMPDEST SWAP1 POP DUP2 DUP2 SUB PUSH1 0x60 DUP4 ADD MSTORE PUSH2 0x11E9 DUP2 DUP5 PUSH2 0x1036 JUMP JUMPDEST SWAP1 POP SWAP6 SWAP5 POP POP POP POP POP JUMP JUMPDEST PUSH0 DUP1 REVERT JUMPDEST PUSH0 DUP1 REVERT JUMPDEST PUSH32 0x4E487B7100000000000000000000000000000000000000000000000000000000 PUSH0 MSTORE PUSH1 0x41 PUSH1 0x4 MSTORE PUSH1 0x24 PUSH0 REVERT JUMPDEST PUSH2 0x1232 DUP3 PUSH2 0xEC2 JUMP JUMPDEST DUP2 ADD DUP2 DUP2 LT PUSH8 0xFFFFFFFFFFFFFFFF DUP3 GT OR ISZERO PUSH2 0x1251 JUMPI PUSH2 0x1250 PUSH2 0x11FC JUMP JUMPDEST JUMPDEST DUP1 PUSH1 0x40 MSTORE POP POP POP JUMP JUMPDEST PUSH0 PUSH2 0x1263 PUSH2 0xE02 JUMP JUMPDEST SWAP1 POP PUSH2 0x126F DUP3 DUP3 PUSH2 0x1229 JUMP JUMPDEST SWAP2 SWAP1 POP JUMP JUMPDEST PUSH0 PUSH8 0xFFFFFFFFFFFFFFFF DUP3 GT ISZERO PUSH2 0x128E JUMPI PUSH2 0x128D PUSH2 0x11FC JUMP JUMPDEST JUMPDEST PUSH2 0x1297 DUP3 PUSH2 0xEC2 JUMP JUMPDEST SWAP1 POP PUSH1 0x20 DUP2 ADD SWAP1 POP SWAP2 SWAP1 POP JUMP JUMPDEST DUP3 DUP2 DUP4 CALLDATACOPY PUSH0 DUP4 DUP4 ADD MSTORE POP POP POP JUMP JUMPDEST PUSH0 PUSH2 0x12C4 PUSH2 0x12BF DUP5 PUSH2 0x1274 JUMP JUMPDEST PUSH2 0x125A JUMP JUMPDEST SWAP1 POP DUP3 DUP2 MSTORE PUSH1 0x20 DUP2 ADD DUP5 DUP5 DUP5 ADD GT ISZERO PUSH2 0x12E0 JUMPI PUSH2 0x12DF PUSH2 0x11F8 JUMP JUMPDEST JUMPDEST PUSH2 0x12EB DUP5 DUP3 DUP6 PUSH2 0x12A4 JUMP JUMPDEST POP SWAP4 SWAP3 POP POP POP JUMP JUMPDEST PUSH0 DUP3 PUSH1 0x1F DUP4 ADD SLT PUSH2 0x1307 JUMPI PUSH2 0x1306 PUSH2 0x11F4 JUMP JUMPDEST JUMPDEST DUP2 CALLDATALOAD PUSH2 0x1317 DUP5 DUP3 PUSH1 0x20 DUP7 ADD PUSH2 0x12B2 JUMP JUMPDEST SWAP2 POP POP SWAP3 SWAP2 POP POP JUMP JUMPDEST PUSH0 DUP1 PUSH1 0x40 DUP4 DUP6 SUB SLT ISZERO PUSH2 0x1336 JUMPI PUSH2 0x1335 PUSH2 0xE0B JUMP JUMPDEST JUMPDEST PUSH0 DUP4 ADD CALLDATALOAD PUSH8 0xFFFFFFFFFFFFFFFF DUP2 GT ISZERO PUSH2 0x1353 JUMPI PUSH2 0x1352 PUSH2 0xE0F JUMP JUMPDEST JUMPDEST PUSH2 0x135F DUP6 DUP3 DUP7 ADD PUSH2 0x12F3 JUMP JUMPDEST SWAP3 POP POP PUSH1 0x20 DUP4 ADD CALLDATALOAD PUSH8 0xFFFFFFFFFFFFFFFF DUP2 GT ISZERO PUSH2 0x1380 JUMPI PUSH2 0x137F PUSH2 0xE0F JUMP JUMPDEST JUMPDEST PUSH2 0x138C DUP6 DUP3 DUP7 ADD PUSH2 0x12F3 JUMP JUMPDEST SWAP2 POP POP SWAP3 POP SWAP3 SWAP1 POP JUMP JUMPDEST PUSH0 PUSH1 0x80 DUP4 ADD PUSH0 DUP4 ADD MLOAD PUSH2 0x13AB PUSH0 DUP7 ADD DUP3 PUSH2 0x1004 JUMP JUMPDEST POP PUSH1 0x20 DUP4 ADD MLOAD DUP5 DUP3 SUB PUSH1 0x20 DUP7 ADD MSTORE PUSH2 0x13C3 DUP3 DUP3 PUSH2 0x10CB JUMP JUMPDEST SWAP2 POP POP PUSH1 0x40 DUP4 ADD MLOAD DUP5 DUP3 SUB PUSH1 0x40 DUP7 ADD MSTORE PUSH2 0x13DD DUP3 DUP3 PUSH2 0x10CB JUMP JUMPDEST SWAP2 POP POP PUSH1 0x60 DUP4 ADD MLOAD PUSH2 0x13F2 PUSH1 0x60 DUP7 ADD DUP3 PUSH2 0x1004 JUMP JUMPDEST POP DUP1 SWAP2 POP POP SWAP3 SWAP2 POP POP JUMP JUMPDEST PUSH0 PUSH1 0x20 DUP3 ADD SWAP1 POP DUP2 DUP2 SUB PUSH0 DUP4 ADD MSTORE PUSH2 0x1415 DUP2 DUP5 PUSH2 0x1396 JUMP JUMPDEST SWAP1 POP SWAP3 SWAP2 POP POP JUMP JUMPDEST PUSH32 0x41636365736F2064656E656761646F0000000000000000000000000000000000 PUSH0 DUP3 ADD MSTORE POP JUMP JUMPDEST PUSH0 PUSH2 0x1451 PUSH1 0xF DUP4 PUSH2 0xE8A JUMP JUMPDEST SWAP2 POP PUSH2 0x145C DUP3 PUSH2 0x141D JUMP JUMPDEST PUSH1 0x20 DUP3 ADD SWAP1 POP SWAP2 SWAP1 POP JUMP JUMPDEST PUSH0 PUSH1 0x20 DUP3 ADD SWAP1 POP DUP2 DUP2 SUB PUSH0 DUP4 ADD MSTORE PUSH2 0x147E DUP2 PUSH2 0x1445 JUMP JUMPDEST SWAP1 POP SWAP2 SWAP1 POP JUMP JUMPDEST PUSH32 0x416363696F6E206E6F2070657274696D6964612C20766F746163696F6E206365 PUSH0 DUP3 ADD MSTORE PUSH32 0x7272616461000000000000000000000000000000000000000000000000000000 PUSH1 0x20 DUP3 ADD MSTORE POP JUMP JUMPDEST PUSH0 PUSH2 0x14DF PUSH1 0x25 DUP4 PUSH2 0xE8A JUMP JUMPDEST SWAP2 POP PUSH2 0x14EA DUP3 PUSH2 0x1485 JUMP JUMPDEST PUSH1 0x40 DUP3 ADD SWAP1 POP SWAP2 SWAP1 POP JUMP JUMPDEST PUSH0 PUSH1 0x20 DUP3 ADD SWAP1 POP DUP2 DUP2 SUB PUSH0 DUP4 ADD MSTORE PUSH2 0x150C DUP2 PUSH2 0x14D3 JUMP JUMPDEST SWAP1 POP SWAP2 SWAP1 POP JUMP JUMPDEST PUSH32 0x4572726F722C20796120766F7461737465000000000000000000000000000000 PUSH0 DUP3 ADD MSTORE POP JUMP JUMPDEST PUSH0 PUSH2 0x1547 PUSH1 0x11 DUP4 PUSH2 0xE8A JUMP JUMPDEST SWAP2 POP PUSH2 0x1552 DUP3 PUSH2 0x1513 JUMP JUMPDEST PUSH1 0x20 DUP3 ADD SWAP1 POP SWAP2 SWAP1 POP JUMP JUMPDEST PUSH0 PUSH1 0x20 DUP3 ADD SWAP1 POP DUP2 DUP2 SUB PUSH0 DUP4 ADD MSTORE PUSH2 0x1574 DUP2 PUSH2 0x153B JUMP JUMPDEST SWAP1 POP SWAP2 SWAP1 POP JUMP JUMPDEST PUSH32 0x4572726F722C207061727469646F20696E6578697374656E7465000000000000 PUSH0 DUP3 ADD MSTORE POP JUMP JUMPDEST PUSH0 PUSH2 0x15AF PUSH1 0x1A DUP4 PUSH2 0xE8A JUMP JUMPDEST SWAP2 POP PUSH2 0x15BA DUP3 PUSH2 0x157B JUMP JUMPDEST PUSH1 0x20 DUP3 ADD SWAP1 POP SWAP2 SWAP1 POP JUMP JUMPDEST PUSH0 PUSH1 0x20 DUP3 ADD SWAP1 POP DUP2 DUP2 SUB PUSH0 DUP4 ADD MSTORE PUSH2 0x15DC DUP2 PUSH2 0x15A3 JUMP JUMPDEST SWAP1 POP SWAP2 SWAP1 POP JUMP JUMPDEST PUSH32 0x4E487B7100000000000000000000000000000000000000000000000000000000 PUSH0 MSTORE PUSH1 0x32 PUSH1 0x4 MSTORE PUSH1 0x24 PUSH0 REVERT JUMPDEST PUSH32 0x4E487B7100000000000000000000000000000000000000000000000000000000 PUSH0 MSTORE PUSH1 0x11 PUSH1 0x4 MSTORE PUSH1 0x24 PUSH0 REVERT JUMPDEST PUSH0 PUSH2 0x1647 DUP3 PUSH2 0xE13 JUMP JUMPDEST SWAP2 POP PUSH32 0xFFFFFFFFFFFFFFFFFFFFFFFFFFFFFFFFFFFFFFFFFFFFFFFFFFFFFFFFFFFFFFFF DUP3 SUB PUSH2 0x1679 JUMPI PUSH2 0x1678 PUSH2 0x1610 JUMP JUMPDEST JUMPDEST PUSH1 0x1 DUP3 ADD SWAP1 POP SWAP2 SWAP1 POP JUMP JUMPDEST PUSH32 0x4E487B7100000000000000000000000000000000000000000000000000000000 PUSH0 MSTORE PUSH1 0x22 PUSH1 0x4 MSTORE PUSH1 0x24 PUSH0 REVERT JUMPDEST PUSH0 PUSH1 0x2 DUP3 DIV SWAP1 POP PUSH1 0x1 DUP3 AND DUP1 PUSH2 0x16C8 JUMPI PUSH1 0x7F DUP3 AND SWAP2 POP JUMPDEST PUSH1 0x20 DUP3 LT DUP2 SUB PUSH2 0x16DB JUMPI PUSH2 0x16DA PUSH2 0x1684 JUMP JUMPDEST JUMPDEST POP SWAP2 SWAP1 POP JUMP JUMPDEST PUSH32 0x416363696F6E206E6F2070657274696D6964612C20766F746163696F6E206162 PUSH0 DUP3 ADD MSTORE PUSH32 0x6965727461000000000000000000000000000000000000000000000000000000 PUSH1 0x20 DUP3 ADD MSTORE POP JUMP JUMPDEST PUSH0 PUSH2 0x173B PUSH1 0x25 DUP4 PUSH2 0xE8A JUMP JUMPDEST SWAP2 POP PUSH2 0x1746 DUP3 PUSH2 0x16E1 JUMP JUMPDEST PUSH1 0x40 DUP3 ADD SWAP1 POP SWAP2 SWAP1 POP JUMP JUMPDEST PUSH0 PUSH1 0x20 DUP3 ADD SWAP1 POP DUP2 DUP2 SUB PUSH0 DUP4 ADD MSTORE PUSH2 0x1768 DUP2 PUSH2 0x172F JUMP JUMPDEST SWAP1 POP SWAP2 SWAP1 POP JUMP JUMPDEST PUSH0 DUP2 SWAP1 POP DUP2 PUSH0 MSTORE PUSH1 0x20 PUSH0 KECCAK256 SWAP1 POP SWAP2 SWAP1 POP JUMP JUMPDEST PUSH0 PUSH1 0x20 PUSH1 0x1F DUP4 ADD DIV SWAP1 POP SWAP2 SWAP1 POP JUMP JUMPDEST PUSH0 DUP3 DUP3 SHL SWAP1 POP SWAP3 SWAP2 POP POP JUMP JUMPDEST PUSH0 PUSH1 0x8 DUP4 MUL PUSH2 0x17CB PUSH32 0xFFFFFFFFFFFFFFFFFFFFFFFFFFFFFFFFFFFFFFFFFFFFFFFFFFFFFFFFFFFFFFFF DUP3 PUSH2 0x1790 JUMP JUMPDEST PUSH2 0x17D5 DUP7 DUP4 PUSH2 0x1790 JUMP JUMPDEST SWAP6 POP DUP1 NOT DUP5 AND SWAP4 POP DUP1 DUP7 AND DUP5 OR SWAP3 POP POP POP SWAP4 SWAP3 POP POP POP JUMP JUMPDEST PUSH0 DUP2 SWAP1 POP SWAP2 SWAP1 POP JUMP JUMPDEST PUSH0 PUSH2 0x1810 PUSH2 0x180B PUSH2 0x1806 DUP5 PUSH2 0xE13 JUMP JUMPDEST PUSH2 0x17ED JUMP JUMPDEST PUSH2 0xE13 JUMP JUMPDEST SWAP1 POP SWAP2 SWAP1 POP JUMP JUMPDEST PUSH0 DUP2 SWAP1 POP SWAP2 SWAP1 POP JUMP JUMPDEST PUSH2 0x1829 DUP4 PUSH2 0x17F6 JUMP JUMPDEST PUSH2 0x183D PUSH2 0x1835 DUP3 PUSH2 0x1817 JUMP JUMPDEST DUP5 DUP5 SLOAD PUSH2 0x179C JUMP JUMPDEST DUP3 SSTORE POP POP POP POP JUMP JUMPDEST PUSH0 SWAP1 JUMP JUMPDEST PUSH2 0x1851 PUSH2 0x1845 JUMP JUMPDEST PUSH2 0x185C DUP2 DUP5 DUP5 PUSH2 0x1820 JUMP JUMPDEST POP POP POP JUMP JUMPDEST JUMPDEST DUP2 DUP2 LT ISZERO PUSH2 0x187F JUMPI PUSH2 0x1874 PUSH0 DUP3 PUSH2 0x1849 JUMP JUMPDEST PUSH1 0x1 DUP2 ADD SWAP1 POP PUSH2 0x1862 JUMP JUMPDEST POP POP JUMP JUMPDEST PUSH1 0x1F DUP3 GT ISZERO PUSH2 0x18C4 JUMPI PUSH2 0x1895 DUP2 PUSH2 0x176F JUMP JUMPDEST PUSH2 0x189E DUP5 PUSH2 0x1781 JUMP JUMPDEST DUP2 ADD PUSH1 0x20 DUP6 LT ISZERO PUSH2 0x18AD JUMPI DUP2 SWAP1 POP JUMPDEST PUSH2 0x18C1 PUSH2 0x18B9 DUP6 PUSH2 0x1781 JUMP JUMPDEST DUP4 ADD DUP3 PUSH2 0x1861 JUMP JUMPDEST POP POP JUMPDEST POP POP POP JUMP JUMPDEST PUSH0 DUP3 DUP3 SHR SWAP1 POP SWAP3 SWAP2 POP POP JUMP JUMPDEST PUSH0 PUSH2 0x18E4 PUSH0 NOT DUP5 PUSH1 0x8 MUL PUSH2 0x18C9 JUMP JUMPDEST NOT DUP1 DUP4 AND SWAP2 POP POP SWAP3 SWAP2 POP POP JUMP JUMPDEST PUSH0 PUSH2 0x18FC DUP4 DUP4 PUSH2 0x18D5 JUMP JUMPDEST SWAP2 POP DUP3 PUSH1 0x2 MUL DUP3 OR SWAP1 POP SWAP3 SWAP2 POP POP JUMP JUMPDEST PUSH2 0x1915 DUP3 PUSH2 0xE80 JUMP JUMPDEST PUSH8 0xFFFFFFFFFFFFFFFF DUP2 GT ISZERO PUSH2 0x192E JUMPI PUSH2 0x192D PUSH2 0x11FC JUMP JUMPDEST JUMPDEST PUSH2 0x1938 DUP3 SLOAD PUSH2 0x16B1 JUMP JUMPDEST PUSH2 0x1943 DUP3 DUP3 DUP6 PUSH2 0x1883 JUMP JUMPDEST PUSH0 PUSH1 0x20 SWAP1 POP PUSH1 0x1F DUP4 GT PUSH1 0x1 DUP2 EQ PUSH2 0x1974 JUMPI PUSH0 DUP5 ISZERO PUSH2 0x1962 JUMPI DUP3 DUP8 ADD MLOAD SWAP1 POP JUMPDEST PUSH2 0x196C DUP6 DUP3 PUSH2 0x18F1 JUMP JUMPDEST DUP7 SSTORE POP PUSH2 0x19D3 JUMP JUMPDEST PUSH1 0x1F NOT DUP5 AND PUSH2 0x1982 DUP7 PUSH2 0x176F JUMP JUMPDEST PUSH0 JUMPDEST DUP3 DUP2 LT ISZERO PUSH2 0x19A9 JUMPI DUP5 DUP10 ADD MLOAD DUP3 SSTORE PUSH1 0x1 DUP3 ADD SWAP2 POP PUSH1 0x20 DUP6 ADD SWAP5 POP PUSH1 0x20 DUP2 ADD SWAP1 POP PUSH2 0x1984 JUMP JUMPDEST DUP7 DUP4 LT ISZERO PUSH2 0x19C6 JUMPI DUP5 DUP10 ADD MLOAD PUSH2 0x19C2 PUSH1 0x1F DUP10 AND DUP3 PUSH2 0x18D5 JUMP JUMPDEST DUP4 SSTORE POP JUMPDEST PUSH1 0x1 PUSH1 0x2 DUP9 MUL ADD DUP9 SSTORE POP POP POP JUMPDEST POP POP POP POP POP POP JUMP INVALID LOG2 PUSH5 0x6970667358 0x22 SLT KECCAK256 STATICCALL GASLIMIT 0xCD SGT MUL DELEGATECALL MULMOD 0xF6 0xE4 0xE2 0x29 0xC BLOCKHASH 0xC1 DUP7 PUSH4 0xC6F60119 PUSH6 0x1CEA6450EA7F 0xE2 0x22 PUSH2 0x3F16 PUSH5 0x736F6C6343 STOP ADDMOD EQ STOP CALLER "
				},
				"gasEstimates": {
					"creation": {
						"codeDepositCost": "1334600",
						"executionCost": "49979",
						"totalCost": "1384579"
					},
					"external": {
						"abrirVotacion()": "26683",
						"cerrarVotacion()": "26639",
						"ganador()": "infinite",
						"nuevoPartido(string,string)": "infinite",
						"parametros()": "4889",
						"partidos(uint256)": "infinite",
						"resultados()": "infinite",
						"votar(uint256)": "infinite"
					}
				},
				"methodIdentifiers": {
					"abrirVotacion()": "846b5f7a",
					"cerrarVotacion()": "1bf488b6",
					"ganador()": "9114bde8",
					"nuevoPartido(string,string)": "6d5964cf",
					"parametros()": "4666b679",
					"partidos(uint256)": "40deb070",
					"resultados()": "51dc516b",
					"votar(uint256)": "21606831"
				}
			},
			"storageLayout": {
				"storage": [
					{
						"astId": 18,
						"contract": "contracts/sistemaVotacion.sol:sistemaVotacion",
						"label": "parametros",
						"offset": 0,
						"slot": "0",
						"type": "t_struct(Parametros)15_storage"
					},
					{
						"astId": 22,
						"contract": "contracts/sistemaVotacion.sol:sistemaVotacion",
						"label": "partidos",
						"offset": 0,
						"slot": "1",
						"type": "t_array(t_struct(Partido)10_storage)dyn_storage"
					},
					{
						"astId": 26,
						"contract": "contracts/sistemaVotacion.sol:sistemaVotacion",
						"label": "votantes",
						"offset": 0,
						"slot": "2",
						"type": "t_mapping(t_address,t_bool)"
					}
				],
				"types": {
					"t_address": {
						"encoding": "inplace",
						"label": "address",
						"numberOfBytes": "20"
					},
					"t_array(t_struct(Partido)10_storage)dyn_storage": {
						"base": "t_struct(Partido)10_storage",
						"encoding": "dynamic_array",
						"label": "struct sistemaVotacion.Partido[]",
						"numberOfBytes": "32"
					},
					"t_bool": {
						"encoding": "inplace",
						"label": "bool",
						"numberOfBytes": "1"
					},
					"t_mapping(t_address,t_bool)": {
						"encoding": "mapping",
						"key": "t_address",
						"label": "mapping(address => bool)",
						"numberOfBytes": "32",
						"value": "t_bool"
					},
					"t_string_storage": {
						"encoding": "bytes",
						"label": "string",
						"numberOfBytes": "32"
					},
					"t_struct(Parametros)15_storage": {
						"encoding": "inplace",
						"label": "struct sistemaVotacion.Parametros",
						"members": [
							{
								"astId": 12,
								"contract": "contracts/sistemaVotacion.sol:sistemaVotacion",
								"label": "autoridadAddress",
								"offset": 0,
								"slot": "0",
								"type": "t_address"
							},
							{
								"astId": 14,
								"contract": "contracts/sistemaVotacion.sol:sistemaVotacion",
								"label": "inscripcionAbierta",
								"offset": 20,
								"slot": "0",
								"type": "t_bool"
							}
						],
						"numberOfBytes": "32"
					},
					"t_struct(Partido)10_storage": {
						"encoding": "inplace",
						"label": "struct sistemaVotacion.Partido",
						"members": [
							{
								"astId": 3,
								"contract": "contracts/sistemaVotacion.sol:sistemaVotacion",
								"label": "id",
								"offset": 0,
								"slot": "0",
								"type": "t_uint256"
							},
							{
								"astId": 5,
								"contract": "contracts/sistemaVotacion.sol:sistemaVotacion",
								"label": "sigla",
								"offset": 0,
								"slot": "1",
								"type": "t_string_storage"
							},
							{
								"astId": 7,
								"contract": "contracts/sistemaVotacion.sol:sistemaVotacion",
								"label": "candidato",
								"offset": 0,
								"slot": "2",
								"type": "t_string_storage"
							},
							{
								"astId": 9,
								"contract": "contracts/sistemaVotacion.sol:sistemaVotacion",
								"label": "nroVotos",
								"offset": 0,
								"slot": "3",
								"type": "t_uint256"
							}
						],
						"numberOfBytes": "128"
					},
					"t_uint256": {
						"encoding": "inplace",
						"label": "uint256",
						"numberOfBytes": "32"
					}
				}
			},
			"userdoc": {
				"kind": "user",
				"methods": {},
				"version": 1
			}
		}
	}
}