{
	"contracts/tarea 1.sol": {
		"ArithmeticOperator": {
			"abi": [
				{
					"inputs": [],
					"name": "add",
					"outputs": [
						{
							"internalType": "uint256",
							"name": "",
							"type": "uint256"
						}
					],
					"stateMutability": "view",
					"type": "function"
				},
				{
					"inputs": [],
					"name": "div",
					"outputs": [
						{
							"internalType": "uint256",
							"name": "",
							"type": "uint256"
						}
					],
					"stateMutability": "view",
					"type": "function"
				},
				{
					"inputs": [],
					"name": "incrementado",
					"outputs": [
						{
							"internalType": "uint256",
							"name": "",
							"type": "uint256"
						}
					],
					"stateMutability": "view",
					"type": "function"
				},
				{
					"inputs": [],
					"name": "modulo",
					"outputs": [
						{
							"internalType": "uint256",
							"name": "",
							"type": "uint256"
						}
					],
					"stateMutability": "view",
					"type": "function"
				},
				{
					"inputs": [],
					"name": "mul",
					"outputs": [
						{
							"internalType": "uint256",
							"name": "",
							"type": "uint256"
						}
					],
					"stateMutability": "view",
					"type": "function"
				},
				{
					"inputs": [],
					"name": "reducido",
					"outputs": [
						{
							"internalType": "uint256",
							"name": "",
							"type": "uint256"
						}
					],
					"stateMutability": "view",
					"type": "function"
				},
				{
					"inputs": [],
					"name": "sub",
					"outputs": [
						{
							"internalType": "uint256",
							"name": "",
							"type": "uint256"
						}
					],
					"stateMutability": "view",
					"type": "function"
				},
				{
					"inputs": [],
					"name": "x",
					"outputs": [
						{
							"internalType": "uint16",
							"name": "",
							"type": "uint16"
						}
					],
					"stateMutability": "view",
					"type": "function"
				},
				{
					"inputs": [],
					"name": "y",
					"outputs": [
						{
							"internalType": "uint16",
							"name": "",
							"type": "uint16"
						}
					],
					"stateMutability": "view",
					"type": "function"
				}
			],
			"devdoc": {
				"kind": "dev",
				"methods": {},
				"version": 1
			},
			"evm": {
				"assembly": "    /* \"contracts/tarea 1.sol\":60:739  contract ArithmeticOperator {... */\n  mstore(0x40, 0x80)\n    /* \"contracts/tarea 1.sol\":113:115  30 */\n  0x1e\n    /* \"contracts/tarea 1.sol\":95:115  uint16 public x = 30 */\n  0x00\n  dup1\n  0x0100\n  exp\n  dup2\n  sload\n  dup2\n  0xffff\n  mul\n  not\n  and\n  swap1\n  dup4\n  0xffff\n  and\n  mul\n  or\n  swap1\n  sstore\n  pop\n    /* \"contracts/tarea 1.sol\":140:142  10 */\n  0x0a\n    /* \"contracts/tarea 1.sol\":122:142  uint16 public y = 10 */\n  0x00\n  exp(0x0100, 0x02)\n  dup2\n  sload\n  dup2\n  0xffff\n  mul\n  not\n  and\n  swap1\n  dup4\n  0xffff\n  and\n  mul\n  or\n  swap1\n  sstore\n  pop\n    /* \"contracts/tarea 1.sol\":60:739  contract ArithmeticOperator {... */\n  callvalue\n  dup1\n  iszero\n  tag_1\n  jumpi\n  0x00\n  dup1\n  revert\ntag_1:\n  pop\n  dataSize(sub_0)\n  dup1\n  dataOffset(sub_0)\n  0x00\n  codecopy\n  0x00\n  return\nstop\n\nsub_0: assembly {\n        /* \"contracts/tarea 1.sol\":60:739  contract ArithmeticOperator {... */\n      mstore(0x40, 0x80)\n      callvalue\n      dup1\n      iszero\n      tag_1\n      jumpi\n      0x00\n      dup1\n      revert\n    tag_1:\n      pop\n      jumpi(tag_2, lt(calldatasize, 0x04))\n      shr(0xe0, calldataload(0x00))\n      dup1\n      0x683706b8\n      gt\n      tag_12\n      jumpi\n      dup1\n      0x683706b8\n      eq\n      tag_7\n      jumpi\n      dup1\n      0xa56dfe4a\n      eq\n      tag_8\n      jumpi\n      dup1\n      0xb8ddc958\n      eq\n      tag_9\n      jumpi\n      dup1\n      0xc54124be\n      eq\n      tag_10\n      jumpi\n      dup1\n      0xf9fa48c3\n      eq\n      tag_11\n      jumpi\n      jump(tag_2)\n    tag_12:\n      dup1\n      0x0c55699c\n      eq\n      tag_3\n      jumpi\n      dup1\n      0x29745262\n      eq\n      tag_4\n      jumpi\n      dup1\n      0x4f2be91f\n      eq\n      tag_5\n      jumpi\n      dup1\n      0x58931c46\n      eq\n      tag_6\n      jumpi\n    tag_2:\n      0x00\n      dup1\n      revert\n        /* \"contracts/tarea 1.sol\":95:115  uint16 public x = 30 */\n    tag_3:\n      tag_13\n      tag_14\n      jump\t// in\n    tag_13:\n      mload(0x40)\n      tag_15\n      swap2\n      swap1\n      tag_16\n      jump\t// in\n    tag_15:\n      mload(0x40)\n      dup1\n      swap2\n      sub\n      swap1\n      return\n        /* \"contracts/tarea 1.sol\":475:554  function modulo() public view returns (uint256) {... */\n    tag_4:\n      tag_17\n      tag_18\n      jump\t// in\n    tag_17:\n      mload(0x40)\n      tag_19\n      swap2\n      swap1\n      tag_20\n      jump\t// in\n    tag_19:\n      mload(0x40)\n      dup1\n      swap2\n      sub\n      swap1\n      return\n        /* \"contracts/tarea 1.sol\":151:224  function add() public view returns (uint) {... */\n    tag_5:\n      tag_21\n      tag_22\n      jump\t// in\n    tag_21:\n      mload(0x40)\n      tag_23\n      swap2\n      swap1\n      tag_20\n      jump\t// in\n    tag_23:\n      mload(0x40)\n      dup1\n      swap2\n      sub\n      swap1\n      return\n        /* \"contracts/tarea 1.sol\":313:386  function mul() public view returns (uint) {... */\n    tag_6:\n      tag_24\n      tag_25\n      jump\t// in\n    tag_24:\n      mload(0x40)\n      tag_26\n      swap2\n      swap1\n      tag_20\n      jump\t// in\n    tag_26:\n      mload(0x40)\n      dup1\n      swap2\n      sub\n      swap1\n      return\n        /* \"contracts/tarea 1.sol\":562:643  function reducido() public view returns (uint256) {... */\n    tag_7:\n      tag_27\n      tag_28\n      jump\t// in\n    tag_27:\n      mload(0x40)\n      tag_29\n      swap2\n      swap1\n      tag_20\n      jump\t// in\n    tag_29:\n      mload(0x40)\n      dup1\n      swap2\n      sub\n      swap1\n      return\n        /* \"contracts/tarea 1.sol\":122:142  uint16 public y = 10 */\n    tag_8:\n      tag_30\n      tag_31\n      jump\t// in\n    tag_30:\n      mload(0x40)\n      tag_32\n      swap2\n      swap1\n      tag_16\n      jump\t// in\n    tag_32:\n      mload(0x40)\n      dup1\n      swap2\n      sub\n      swap1\n      return\n        /* \"contracts/tarea 1.sol\":651:736  function incrementado() public view returns (uint256) {... */\n    tag_9:\n      tag_33\n      tag_34\n      jump\t// in\n    tag_33:\n      mload(0x40)\n      tag_35\n      swap2\n      swap1\n      tag_20\n      jump\t// in\n    tag_35:\n      mload(0x40)\n      dup1\n      swap2\n      sub\n      swap1\n      return\n        /* \"contracts/tarea 1.sol\":232:305  function sub() public view returns (uint) {... */\n    tag_10:\n      tag_36\n      tag_37\n      jump\t// in\n    tag_36:\n      mload(0x40)\n      tag_38\n      swap2\n      swap1\n      tag_20\n      jump\t// in\n    tag_38:\n      mload(0x40)\n      dup1\n      swap2\n      sub\n      swap1\n      return\n        /* \"contracts/tarea 1.sol\":394:467  function div() public view returns (uint) {... */\n    tag_11:\n      tag_39\n      tag_40\n      jump\t// in\n    tag_39:\n      mload(0x40)\n      tag_41\n      swap2\n      swap1\n      tag_20\n      jump\t// in\n    tag_41:\n      mload(0x40)\n      dup1\n      swap2\n      sub\n      swap1\n      return\n        /* \"contracts/tarea 1.sol\":95:115  uint16 public x = 30 */\n    tag_14:\n      0x00\n      dup1\n      sload\n      swap1\n      0x0100\n      exp\n      swap1\n      div\n      0xffff\n      and\n      dup2\n      jump\t// out\n        /* \"contracts/tarea 1.sol\":475:554  function modulo() public view returns (uint256) {... */\n    tag_18:\n        /* \"contracts/tarea 1.sol\":514:521  uint256 */\n      0x00\n        /* \"contracts/tarea 1.sol\":545:546  y */\n      dup1\n      0x02\n      swap1\n      sload\n      swap1\n      0x0100\n      exp\n      swap1\n      div\n      0xffff\n      and\n        /* \"contracts/tarea 1.sol\":541:542  x */\n      0x00\n      dup1\n      sload\n      swap1\n      0x0100\n      exp\n      swap1\n      div\n      0xffff\n      and\n        /* \"contracts/tarea 1.sol\":541:546  x % y */\n      tag_43\n      swap2\n      swap1\n      tag_44\n      jump\t// in\n    tag_43:\n        /* \"contracts/tarea 1.sol\":534:546  return x % y */\n      0xffff\n      and\n      swap1\n      pop\n        /* \"contracts/tarea 1.sol\":475:554  function modulo() public view returns (uint256) {... */\n      swap1\n      jump\t// out\n        /* \"contracts/tarea 1.sol\":151:224  function add() public view returns (uint) {... */\n    tag_22:\n        /* \"contracts/tarea 1.sol\":187:191  uint */\n      0x00\n        /* \"contracts/tarea 1.sol\":215:216  y */\n      dup1\n      0x02\n      swap1\n      sload\n      swap1\n      0x0100\n      exp\n      swap1\n      div\n      0xffff\n      and\n        /* \"contracts/tarea 1.sol\":211:212  x */\n      0x00\n      dup1\n      sload\n      swap1\n      0x0100\n      exp\n      swap1\n      div\n      0xffff\n      and\n        /* \"contracts/tarea 1.sol\":211:216  x + y */\n      tag_46\n      swap2\n      swap1\n      tag_47\n      jump\t// in\n    tag_46:\n        /* \"contracts/tarea 1.sol\":204:216  return x + y */\n      0xffff\n      and\n      swap1\n      pop\n        /* \"contracts/tarea 1.sol\":151:224  function add() public view returns (uint) {... */\n      swap1\n      jump\t// out\n        /* \"contracts/tarea 1.sol\":313:386  function mul() public view returns (uint) {... */\n    tag_25:\n        /* \"contracts/tarea 1.sol\":349:353  uint */\n      0x00\n        /* \"contracts/tarea 1.sol\":377:378  y */\n      dup1\n      0x02\n      swap1\n      sload\n      swap1\n      0x0100\n      exp\n      swap1\n      div\n      0xffff\n      and\n        /* \"contracts/tarea 1.sol\":373:374  x */\n      0x00\n      dup1\n      sload\n      swap1\n      0x0100\n      exp\n      swap1\n      div\n      0xffff\n      and\n        /* \"contracts/tarea 1.sol\":373:378  x * y */\n      tag_49\n      swap2\n      swap1\n      tag_50\n      jump\t// in\n    tag_49:\n        /* \"contracts/tarea 1.sol\":366:378  return x * y */\n      0xffff\n      and\n      swap1\n      pop\n        /* \"contracts/tarea 1.sol\":313:386  function mul() public view returns (uint) {... */\n      swap1\n      jump\t// out\n        /* \"contracts/tarea 1.sol\":562:643  function reducido() public view returns (uint256) {... */\n    tag_28:\n        /* \"contracts/tarea 1.sol\":603:610  uint256 */\n      0x00\n        /* \"contracts/tarea 1.sol\":634:635  1 */\n      0x01\n        /* \"contracts/tarea 1.sol\":630:631  x */\n      0x00\n      dup1\n      sload\n      swap1\n      0x0100\n      exp\n      swap1\n      div\n      0xffff\n      and\n        /* \"contracts/tarea 1.sol\":630:635  x - 1 */\n      tag_52\n      swap2\n      swap1\n      tag_53\n      jump\t// in\n    tag_52:\n        /* \"contracts/tarea 1.sol\":623:635  return x - 1 */\n      0xffff\n      and\n      swap1\n      pop\n        /* \"contracts/tarea 1.sol\":562:643  function reducido() public view returns (uint256) {... */\n      swap1\n      jump\t// out\n        /* \"contracts/tarea 1.sol\":122:142  uint16 public y = 10 */\n    tag_31:\n      0x00\n      0x02\n      swap1\n      sload\n      swap1\n      0x0100\n      exp\n      swap1\n      div\n      0xffff\n      and\n      dup2\n      jump\t// out\n        /* \"contracts/tarea 1.sol\":651:736  function incrementado() public view returns (uint256) {... */\n    tag_34:\n        /* \"contracts/tarea 1.sol\":696:703  uint256 */\n      0x00\n        /* \"contracts/tarea 1.sol\":727:728  1 */\n      0x01\n        /* \"contracts/tarea 1.sol\":723:724  x */\n      0x00\n      dup1\n      sload\n      swap1\n      0x0100\n      exp\n      swap1\n      div\n      0xffff\n      and\n        /* \"contracts/tarea 1.sol\":723:728  x + 1 */\n      tag_55\n      swap2\n      swap1\n      tag_47\n      jump\t// in\n    tag_55:\n        /* \"contracts/tarea 1.sol\":716:728  return x + 1 */\n      0xffff\n      and\n      swap1\n      pop\n        /* \"contracts/tarea 1.sol\":651:736  function incrementado() public view returns (uint256) {... */\n      swap1\n      jump\t// out\n        /* \"contracts/tarea 1.sol\":232:305  function sub() public view returns (uint) {... */\n    tag_37:\n        /* \"contracts/tarea 1.sol\":268:272  uint */\n      0x00\n        /* \"contracts/tarea 1.sol\":296:297  y */\n      dup1\n      0x02\n      swap1\n      sload\n      swap1\n      0x0100\n      exp\n      swap1\n      div\n      0xffff\n      and\n        /* \"contracts/tarea 1.sol\":292:293  x */\n      0x00\n      dup1\n      sload\n      swap1\n      0x0100\n      exp\n      swap1\n      div\n      0xffff\n      and\n        /* \"contracts/tarea 1.sol\":292:297  x - y */\n      tag_57\n      swap2\n      swap1\n      tag_53\n      jump\t// in\n    tag_57:\n        /* \"contracts/tarea 1.sol\":285:297  return x - y */\n      0xffff\n      and\n      swap1\n      pop\n        /* \"contracts/tarea 1.sol\":232:305  function sub() public view returns (uint) {... */\n      swap1\n      jump\t// out\n        /* \"contracts/tarea 1.sol\":394:467  function div() public view returns (uint) {... */\n    tag_40:\n        /* \"contracts/tarea 1.sol\":430:434  uint */\n      0x00\n        /* \"contracts/tarea 1.sol\":458:459  y */\n      dup1\n      0x02\n      swap1\n      sload\n      swap1\n      0x0100\n      exp\n      swap1\n      div\n      0xffff\n      and\n        /* \"contracts/tarea 1.sol\":454:455  x */\n      0x00\n      dup1\n      sload\n      swap1\n      0x0100\n      exp\n      swap1\n      div\n      0xffff\n      and\n        /* \"contracts/tarea 1.sol\":454:459  x / y */\n      tag_59\n      swap2\n      swap1\n      tag_60\n      jump\t// in\n    tag_59:\n        /* \"contracts/tarea 1.sol\":447:459  return x / y */\n      0xffff\n      and\n      swap1\n      pop\n        /* \"contracts/tarea 1.sol\":394:467  function div() public view returns (uint) {... */\n      swap1\n      jump\t// out\n        /* \"#utility.yul\":7:96   */\n    tag_61:\n        /* \"#utility.yul\":43:50   */\n      0x00\n        /* \"#utility.yul\":83:89   */\n      0xffff\n        /* \"#utility.yul\":76:81   */\n      dup3\n        /* \"#utility.yul\":72:90   */\n      and\n        /* \"#utility.yul\":61:90   */\n      swap1\n      pop\n        /* \"#utility.yul\":7:96   */\n      swap2\n      swap1\n      pop\n      jump\t// out\n        /* \"#utility.yul\":102:217   */\n    tag_62:\n        /* \"#utility.yul\":187:210   */\n      tag_70\n        /* \"#utility.yul\":204:209   */\n      dup2\n        /* \"#utility.yul\":187:210   */\n      tag_61\n      jump\t// in\n    tag_70:\n        /* \"#utility.yul\":182:185   */\n      dup3\n        /* \"#utility.yul\":175:211   */\n      mstore\n        /* \"#utility.yul\":102:217   */\n      pop\n      pop\n      jump\t// out\n        /* \"#utility.yul\":223:441   */\n    tag_16:\n        /* \"#utility.yul\":314:318   */\n      0x00\n        /* \"#utility.yul\":352:354   */\n      0x20\n        /* \"#utility.yul\":341:350   */\n      dup3\n        /* \"#utility.yul\":337:355   */\n      add\n        /* \"#utility.yul\":329:355   */\n      swap1\n      pop\n        /* \"#utility.yul\":365:434   */\n      tag_72\n        /* \"#utility.yul\":431:432   */\n      0x00\n        /* \"#utility.yul\":420:429   */\n      dup4\n        /* \"#utility.yul\":416:433   */\n      add\n        /* \"#utility.yul\":407:413   */\n      dup5\n        /* \"#utility.yul\":365:434   */\n      tag_62\n      jump\t// in\n    tag_72:\n        /* \"#utility.yul\":223:441   */\n      swap3\n      swap2\n      pop\n      pop\n      jump\t// out\n        /* \"#utility.yul\":447:524   */\n    tag_63:\n        /* \"#utility.yul\":484:491   */\n      0x00\n        /* \"#utility.yul\":513:518   */\n      dup2\n        /* \"#utility.yul\":502:518   */\n      swap1\n      pop\n        /* \"#utility.yul\":447:524   */\n      swap2\n      swap1\n      pop\n      jump\t// out\n        /* \"#utility.yul\":530:648   */\n    tag_64:\n        /* \"#utility.yul\":617:641   */\n      tag_75\n        /* \"#utility.yul\":635:640   */\n      dup2\n        /* \"#utility.yul\":617:641   */\n      tag_63\n      jump\t// in\n    tag_75:\n        /* \"#utility.yul\":612:615   */\n      dup3\n        /* \"#utility.yul\":605:642   */\n      mstore\n        /* \"#utility.yul\":530:648   */\n      pop\n      pop\n      jump\t// out\n        /* \"#utility.yul\":654:876   */\n    tag_20:\n        /* \"#utility.yul\":747:751   */\n      0x00\n        /* \"#utility.yul\":785:787   */\n      0x20\n        /* \"#utility.yul\":774:783   */\n      dup3\n        /* \"#utility.yul\":770:788   */\n      add\n        /* \"#utility.yul\":762:788   */\n      swap1\n      pop\n        /* \"#utility.yul\":798:869   */\n      tag_77\n        /* \"#utility.yul\":866:867   */\n      0x00\n        /* \"#utility.yul\":855:864   */\n      dup4\n        /* \"#utility.yul\":851:868   */\n      add\n        /* \"#utility.yul\":842:848   */\n      dup5\n        /* \"#utility.yul\":798:869   */\n      tag_64\n      jump\t// in\n    tag_77:\n        /* \"#utility.yul\":654:876   */\n      swap3\n      swap2\n      pop\n      pop\n      jump\t// out\n        /* \"#utility.yul\":882:1062   */\n    tag_65:\n        /* \"#utility.yul\":930:1007   */\n      0x4e487b7100000000000000000000000000000000000000000000000000000000\n        /* \"#utility.yul\":927:928   */\n      0x00\n        /* \"#utility.yul\":920:1008   */\n      mstore\n        /* \"#utility.yul\":1027:1031   */\n      0x12\n        /* \"#utility.yul\":1024:1025   */\n      0x04\n        /* \"#utility.yul\":1017:1032   */\n      mstore\n        /* \"#utility.yul\":1051:1055   */\n      0x24\n        /* \"#utility.yul\":1048:1049   */\n      0x00\n        /* \"#utility.yul\":1041:1056   */\n      revert\n        /* \"#utility.yul\":1068:1241   */\n    tag_44:\n        /* \"#utility.yul\":1099:1100   */\n      0x00\n        /* \"#utility.yul\":1116:1135   */\n      tag_80\n        /* \"#utility.yul\":1133:1134   */\n      dup3\n        /* \"#utility.yul\":1116:1135   */\n      tag_61\n      jump\t// in\n    tag_80:\n        /* \"#utility.yul\":1111:1135   */\n      swap2\n      pop\n        /* \"#utility.yul\":1149:1168   */\n      tag_81\n        /* \"#utility.yul\":1166:1167   */\n      dup4\n        /* \"#utility.yul\":1149:1168   */\n      tag_61\n      jump\t// in\n    tag_81:\n        /* \"#utility.yul\":1144:1168   */\n      swap3\n      pop\n        /* \"#utility.yul\":1187:1188   */\n      dup3\n        /* \"#utility.yul\":1177:1212   */\n      tag_82\n      jumpi\n        /* \"#utility.yul\":1192:1210   */\n      tag_83\n      tag_65\n      jump\t// in\n    tag_83:\n        /* \"#utility.yul\":1177:1212   */\n    tag_82:\n        /* \"#utility.yul\":1233:1234   */\n      dup3\n        /* \"#utility.yul\":1230:1231   */\n      dup3\n        /* \"#utility.yul\":1226:1235   */\n      mod\n        /* \"#utility.yul\":1221:1235   */\n      swap1\n      pop\n        /* \"#utility.yul\":1068:1241   */\n      swap3\n      swap2\n      pop\n      pop\n      jump\t// out\n        /* \"#utility.yul\":1247:1427   */\n    tag_66:\n        /* \"#utility.yul\":1295:1372   */\n      0x4e487b7100000000000000000000000000000000000000000000000000000000\n        /* \"#utility.yul\":1292:1293   */\n      0x00\n        /* \"#utility.yul\":1285:1373   */\n      mstore\n        /* \"#utility.yul\":1392:1396   */\n      0x11\n        /* \"#utility.yul\":1389:1390   */\n      0x04\n        /* \"#utility.yul\":1382:1397   */\n      mstore\n        /* \"#utility.yul\":1416:1420   */\n      0x24\n        /* \"#utility.yul\":1413:1414   */\n      0x00\n        /* \"#utility.yul\":1406:1421   */\n      revert\n        /* \"#utility.yul\":1433:1626   */\n    tag_47:\n        /* \"#utility.yul\":1472:1475   */\n      0x00\n        /* \"#utility.yul\":1491:1510   */\n      tag_86\n        /* \"#utility.yul\":1508:1509   */\n      dup3\n        /* \"#utility.yul\":1491:1510   */\n      tag_61\n      jump\t// in\n    tag_86:\n        /* \"#utility.yul\":1486:1510   */\n      swap2\n      pop\n        /* \"#utility.yul\":1524:1543   */\n      tag_87\n        /* \"#utility.yul\":1541:1542   */\n      dup4\n        /* \"#utility.yul\":1524:1543   */\n      tag_61\n      jump\t// in\n    tag_87:\n        /* \"#utility.yul\":1519:1543   */\n      swap3\n      pop\n        /* \"#utility.yul\":1566:1567   */\n      dup3\n        /* \"#utility.yul\":1563:1564   */\n      dup3\n        /* \"#utility.yul\":1559:1568   */\n      add\n        /* \"#utility.yul\":1552:1568   */\n      swap1\n      pop\n        /* \"#utility.yul\":1589:1595   */\n      0xffff\n        /* \"#utility.yul\":1584:1587   */\n      dup2\n        /* \"#utility.yul\":1581:1596   */\n      gt\n        /* \"#utility.yul\":1578:1619   */\n      iszero\n      tag_88\n      jumpi\n        /* \"#utility.yul\":1599:1617   */\n      tag_89\n      tag_66\n      jump\t// in\n    tag_89:\n        /* \"#utility.yul\":1578:1619   */\n    tag_88:\n        /* \"#utility.yul\":1433:1626   */\n      swap3\n      swap2\n      pop\n      pop\n      jump\t// out\n        /* \"#utility.yul\":1632:1907   */\n    tag_50:\n        /* \"#utility.yul\":1671:1678   */\n      0x00\n        /* \"#utility.yul\":1694:1713   */\n      tag_91\n        /* \"#utility.yul\":1711:1712   */\n      dup3\n        /* \"#utility.yul\":1694:1713   */\n      tag_61\n      jump\t// in\n    tag_91:\n        /* \"#utility.yul\":1689:1713   */\n      swap2\n      pop\n        /* \"#utility.yul\":1727:1746   */\n      tag_92\n        /* \"#utility.yul\":1744:1745   */\n      dup4\n        /* \"#utility.yul\":1727:1746   */\n      tag_61\n      jump\t// in\n    tag_92:\n        /* \"#utility.yul\":1722:1746   */\n      swap3\n      pop\n        /* \"#utility.yul\":1781:1782   */\n      dup3\n        /* \"#utility.yul\":1778:1779   */\n      dup3\n        /* \"#utility.yul\":1774:1783   */\n      mul\n        /* \"#utility.yul\":1803:1832   */\n      tag_93\n        /* \"#utility.yul\":1820:1831   */\n      dup2\n        /* \"#utility.yul\":1803:1832   */\n      tag_61\n      jump\t// in\n    tag_93:\n        /* \"#utility.yul\":1792:1832   */\n      swap2\n      pop\n        /* \"#utility.yul\":1864:1875   */\n      dup1\n        /* \"#utility.yul\":1855:1862   */\n      dup3\n        /* \"#utility.yul\":1852:1876   */\n      eq\n        /* \"#utility.yul\":1842:1900   */\n      tag_94\n      jumpi\n        /* \"#utility.yul\":1880:1898   */\n      tag_95\n      tag_66\n      jump\t// in\n    tag_95:\n        /* \"#utility.yul\":1842:1900   */\n    tag_94:\n        /* \"#utility.yul\":1679:1907   */\n      pop\n        /* \"#utility.yul\":1632:1907   */\n      swap3\n      swap2\n      pop\n      pop\n      jump\t// out\n        /* \"#utility.yul\":1913:2109   */\n    tag_53:\n        /* \"#utility.yul\":1952:1956   */\n      0x00\n        /* \"#utility.yul\":1972:1991   */\n      tag_97\n        /* \"#utility.yul\":1989:1990   */\n      dup3\n        /* \"#utility.yul\":1972:1991   */\n      tag_61\n      jump\t// in\n    tag_97:\n        /* \"#utility.yul\":1967:1991   */\n      swap2\n      pop\n        /* \"#utility.yul\":2005:2024   */\n      tag_98\n        /* \"#utility.yul\":2022:2023   */\n      dup4\n        /* \"#utility.yul\":2005:2024   */\n      tag_61\n      jump\t// in\n    tag_98:\n        /* \"#utility.yul\":2000:2024   */\n      swap3\n      pop\n        /* \"#utility.yul\":2048:2049   */\n      dup3\n        /* \"#utility.yul\":2045:2046   */\n      dup3\n        /* \"#utility.yul\":2041:2050   */\n      sub\n        /* \"#utility.yul\":2033:2050   */\n      swap1\n      pop\n        /* \"#utility.yul\":2072:2078   */\n      0xffff\n        /* \"#utility.yul\":2066:2070   */\n      dup2\n        /* \"#utility.yul\":2063:2079   */\n      gt\n        /* \"#utility.yul\":2060:2102   */\n      iszero\n      tag_99\n      jumpi\n        /* \"#utility.yul\":2082:2100   */\n      tag_100\n      tag_66\n      jump\t// in\n    tag_100:\n        /* \"#utility.yul\":2060:2102   */\n    tag_99:\n        /* \"#utility.yul\":1913:2109   */\n      swap3\n      swap2\n      pop\n      pop\n      jump\t// out\n        /* \"#utility.yul\":2115:2297   */\n    tag_60:\n        /* \"#utility.yul\":2154:2155   */\n      0x00\n        /* \"#utility.yul\":2171:2190   */\n      tag_102\n        /* \"#utility.yul\":2188:2189   */\n      dup3\n        /* \"#utility.yul\":2171:2190   */\n      tag_61\n      jump\t// in\n    tag_102:\n        /* \"#utility.yul\":2166:2190   */\n      swap2\n      pop\n        /* \"#utility.yul\":2204:2223   */\n      tag_103\n        /* \"#utility.yul\":2221:2222   */\n      dup4\n        /* \"#utility.yul\":2204:2223   */\n      tag_61\n      jump\t// in\n    tag_103:\n        /* \"#utility.yul\":2199:2223   */\n      swap3\n      pop\n        /* \"#utility.yul\":2242:2243   */\n      dup3\n        /* \"#utility.yul\":2232:2267   */\n      tag_104\n      jumpi\n        /* \"#utility.yul\":2247:2265   */\n      tag_105\n      tag_65\n      jump\t// in\n    tag_105:\n        /* \"#utility.yul\":2232:2267   */\n    tag_104:\n        /* \"#utility.yul\":2289:2290   */\n      dup3\n        /* \"#utility.yul\":2286:2287   */\n      dup3\n        /* \"#utility.yul\":2282:2291   */\n      div\n        /* \"#utility.yul\":2277:2291   */\n      swap1\n      pop\n        /* \"#utility.yul\":2115:2297   */\n      swap3\n      swap2\n      pop\n      pop\n      jump\t// out\n\n    auxdata: 0xa26469706673582212207040eda498234815943b741481e2a9f1f9a1bd244a26d1630a4faf8091d22af464736f6c63430008140033\n}\n",
				"bytecode": {
					"linkReferences": {},
					"object": "6080604052601e5f806101000a81548161ffff021916908361ffff160217905550600a5f60026101000a81548161ffff021916908361ffff160217905550348015610048575f80fd5b50610505806100565f395ff3fe608060405234801561000f575f80fd5b5060043610610091575f3560e01c8063683706b811610064578063683706b81461010d578063a56dfe4a1461012b578063b8ddc95814610149578063c54124be14610167578063f9fa48c31461018557610091565b80630c55699c1461009557806329745262146100b35780634f2be91f146100d157806358931c46146100ef575b5f80fd5b61009d6101a3565b6040516100aa9190610325565b60405180910390f35b6100bb6101b4565b6040516100c89190610356565b60405180910390f35b6100d96101e6565b6040516100e69190610356565b60405180910390f35b6100f7610218565b6040516101049190610356565b60405180910390f35b61011561024a565b6040516101229190610356565b60405180910390f35b61013361026e565b6040516101409190610325565b60405180910390f35b610151610281565b60405161015e9190610356565b60405180910390f35b61016f6102a5565b60405161017c9190610356565b60405180910390f35b61018d6102d7565b60405161019a9190610356565b60405180910390f35b5f8054906101000a900461ffff1681565b5f8060029054906101000a900461ffff165f8054906101000a900461ffff166101dd919061039c565b61ffff16905090565b5f8060029054906101000a900461ffff165f8054906101000a900461ffff1661020f91906103f9565b61ffff16905090565b5f8060029054906101000a900461ffff165f8054906101000a900461ffff16610241919061042e565b61ffff16905090565b5f60015f8054906101000a900461ffff16610265919061046a565b61ffff16905090565b5f60029054906101000a900461ffff1681565b5f60015f8054906101000a900461ffff1661029c91906103f9565b61ffff16905090565b5f8060029054906101000a900461ffff165f8054906101000a900461ffff166102ce919061046a565b61ffff16905090565b5f8060029054906101000a900461ffff165f8054906101000a900461ffff16610300919061049f565b61ffff16905090565b5f61ffff82169050919050565b61031f81610309565b82525050565b5f6020820190506103385f830184610316565b92915050565b5f819050919050565b6103508161033e565b82525050565b5f6020820190506103695f830184610347565b92915050565b7f4e487b71000000000000000000000000000000000000000000000000000000005f52601260045260245ffd5b5f6103a682610309565b91506103b183610309565b9250826103c1576103c061036f565b5b828206905092915050565b7f4e487b71000000000000000000000000000000000000000000000000000000005f52601160045260245ffd5b5f61040382610309565b915061040e83610309565b9250828201905061ffff811115610428576104276103cc565b5b92915050565b5f61043882610309565b915061044383610309565b925082820261045181610309565b9150808214610463576104626103cc565b5b5092915050565b5f61047482610309565b915061047f83610309565b9250828203905061ffff811115610499576104986103cc565b5b92915050565b5f6104a982610309565b91506104b483610309565b9250826104c4576104c361036f565b5b82820490509291505056fea26469706673582212207040eda498234815943b741481e2a9f1f9a1bd244a26d1630a4faf8091d22af464736f6c63430008140033",
					"opcodes": "PUSH1 0x80 PUSH1 0x40 MSTORE PUSH1 0x1E PUSH0 DUP1 PUSH2 0x100 EXP DUP2 SLOAD DUP2 PUSH2 0xFFFF MUL NOT AND SWAP1 DUP4 PUSH2 0xFFFF AND MUL OR SWAP1 SSTORE POP PUSH1 0xA PUSH0 PUSH1 0x2 PUSH2 0x100 EXP DUP2 SLOAD DUP2 PUSH2 0xFFFF MUL NOT AND SWAP1 DUP4 PUSH2 0xFFFF AND MUL OR SWAP1 SSTORE POP CALLVALUE DUP1 ISZERO PUSH2 0x48 JUMPI PUSH0 DUP1 REVERT JUMPDEST POP PUSH2 0x505 DUP1 PUSH2 0x56 PUSH0 CODECOPY PUSH0 RETURN INVALID PUSH1 0x80 PUSH1 0x40 MSTORE CALLVALUE DUP1 ISZERO PUSH2 0xF JUMPI PUSH0 DUP1 REVERT JUMPDEST POP PUSH1 0x4 CALLDATASIZE LT PUSH2 0x91 JUMPI PUSH0 CALLDATALOAD PUSH1 0xE0 SHR DUP1 PUSH4 0x683706B8 GT PUSH2 0x64 JUMPI DUP1 PUSH4 0x683706B8 EQ PUSH2 0x10D JUMPI DUP1 PUSH4 0xA56DFE4A EQ PUSH2 0x12B JUMPI DUP1 PUSH4 0xB8DDC958 EQ PUSH2 0x149 JUMPI DUP1 PUSH4 0xC54124BE EQ PUSH2 0x167 JUMPI DUP1 PUSH4 0xF9FA48C3 EQ PUSH2 0x185 JUMPI PUSH2 0x91 JUMP JUMPDEST DUP1 PUSH4 0xC55699C EQ PUSH2 0x95 JUMPI DUP1 PUSH4 0x29745262 EQ PUSH2 0xB3 JUMPI DUP1 PUSH4 0x4F2BE91F EQ PUSH2 0xD1 JUMPI DUP1 PUSH4 0x58931C46 EQ PUSH2 0xEF JUMPI JUMPDEST PUSH0 DUP1 REVERT JUMPDEST PUSH2 0x9D PUSH2 0x1A3 JUMP JUMPDEST PUSH1 0x40 MLOAD PUSH2 0xAA SWAP2 SWAP1 PUSH2 0x325 JUMP JUMPDEST PUSH1 0x40 MLOAD DUP1 SWAP2 SUB SWAP1 RETURN JUMPDEST PUSH2 0xBB PUSH2 0x1B4 JUMP JUMPDEST PUSH1 0x40 MLOAD PUSH2 0xC8 SWAP2 SWAP1 PUSH2 0x356 JUMP JUMPDEST PUSH1 0x40 MLOAD DUP1 SWAP2 SUB SWAP1 RETURN JUMPDEST PUSH2 0xD9 PUSH2 0x1E6 JUMP JUMPDEST PUSH1 0x40 MLOAD PUSH2 0xE6 SWAP2 SWAP1 PUSH2 0x356 JUMP JUMPDEST PUSH1 0x40 MLOAD DUP1 SWAP2 SUB SWAP1 RETURN JUMPDEST PUSH2 0xF7 PUSH2 0x218 JUMP JUMPDEST PUSH1 0x40 MLOAD PUSH2 0x104 SWAP2 SWAP1 PUSH2 0x356 JUMP JUMPDEST PUSH1 0x40 MLOAD DUP1 SWAP2 SUB SWAP1 RETURN JUMPDEST PUSH2 0x115 PUSH2 0x24A JUMP JUMPDEST PUSH1 0x40 MLOAD PUSH2 0x122 SWAP2 SWAP1 PUSH2 0x356 JUMP JUMPDEST PUSH1 0x40 MLOAD DUP1 SWAP2 SUB SWAP1 RETURN JUMPDEST PUSH2 0x133 PUSH2 0x26E JUMP JUMPDEST PUSH1 0x40 MLOAD PUSH2 0x140 SWAP2 SWAP1 PUSH2 0x325 JUMP JUMPDEST PUSH1 0x40 MLOAD DUP1 SWAP2 SUB SWAP1 RETURN JUMPDEST PUSH2 0x151 PUSH2 0x281 JUMP JUMPDEST PUSH1 0x40 MLOAD PUSH2 0x15E SWAP2 SWAP1 PUSH2 0x356 JUMP JUMPDEST PUSH1 0x40 MLOAD DUP1 SWAP2 SUB SWAP1 RETURN JUMPDEST PUSH2 0x16F PUSH2 0x2A5 JUMP JUMPDEST PUSH1 0x40 MLOAD PUSH2 0x17C SWAP2 SWAP1 PUSH2 0x356 JUMP JUMPDEST PUSH1 0x40 MLOAD DUP1 SWAP2 SUB SWAP1 RETURN JUMPDEST PUSH2 0x18D PUSH2 0x2D7 JUMP JUMPDEST PUSH1 0x40 MLOAD PUSH2 0x19A SWAP2 SWAP1 PUSH2 0x356 JUMP JUMPDEST PUSH1 0x40 MLOAD DUP1 SWAP2 SUB SWAP1 RETURN JUMPDEST PUSH0 DUP1 SLOAD SWAP1 PUSH2 0x100 EXP SWAP1 DIV PUSH2 0xFFFF AND DUP2 JUMP JUMPDEST PUSH0 DUP1 PUSH1 0x2 SWAP1 SLOAD SWAP1 PUSH2 0x100 EXP SWAP1 DIV PUSH2 0xFFFF AND PUSH0 DUP1 SLOAD SWAP1 PUSH2 0x100 EXP SWAP1 DIV PUSH2 0xFFFF AND PUSH2 0x1DD SWAP2 SWAP1 PUSH2 0x39C JUMP JUMPDEST PUSH2 0xFFFF AND SWAP1 POP SWAP1 JUMP JUMPDEST PUSH0 DUP1 PUSH1 0x2 SWAP1 SLOAD SWAP1 PUSH2 0x100 EXP SWAP1 DIV PUSH2 0xFFFF AND PUSH0 DUP1 SLOAD SWAP1 PUSH2 0x100 EXP SWAP1 DIV PUSH2 0xFFFF AND PUSH2 0x20F SWAP2 SWAP1 PUSH2 0x3F9 JUMP JUMPDEST PUSH2 0xFFFF AND SWAP1 POP SWAP1 JUMP JUMPDEST PUSH0 DUP1 PUSH1 0x2 SWAP1 SLOAD SWAP1 PUSH2 0x100 EXP SWAP1 DIV PUSH2 0xFFFF AND PUSH0 DUP1 SLOAD SWAP1 PUSH2 0x100 EXP SWAP1 DIV PUSH2 0xFFFF AND PUSH2 0x241 SWAP2 SWAP1 PUSH2 0x42E JUMP JUMPDEST PUSH2 0xFFFF AND SWAP1 POP SWAP1 JUMP JUMPDEST PUSH0 PUSH1 0x1 PUSH0 DUP1 SLOAD SWAP1 PUSH2 0x100 EXP SWAP1 DIV PUSH2 0xFFFF AND PUSH2 0x265 SWAP2 SWAP1 PUSH2 0x46A JUMP JUMPDEST PUSH2 0xFFFF AND SWAP1 POP SWAP1 JUMP JUMPDEST PUSH0 PUSH1 0x2 SWAP1 SLOAD SWAP1 PUSH2 0x100 EXP SWAP1 DIV PUSH2 0xFFFF AND DUP2 JUMP JUMPDEST PUSH0 PUSH1 0x1 PUSH0 DUP1 SLOAD SWAP1 PUSH2 0x100 EXP SWAP1 DIV PUSH2 0xFFFF AND PUSH2 0x29C SWAP2 SWAP1 PUSH2 0x3F9 JUMP JUMPDEST PUSH2 0xFFFF AND SWAP1 POP SWAP1 JUMP JUMPDEST PUSH0 DUP1 PUSH1 0x2 SWAP1 SLOAD SWAP1 PUSH2 0x100 EXP SWAP1 DIV PUSH2 0xFFFF AND PUSH0 DUP1 SLOAD SWAP1 PUSH2 0x100 EXP SWAP1 DIV PUSH2 0xFFFF AND PUSH2 0x2CE SWAP2 SWAP1 PUSH2 0x46A JUMP JUMPDEST PUSH2 0xFFFF AND SWAP1 POP SWAP1 JUMP JUMPDEST PUSH0 DUP1 PUSH1 0x2 SWAP1 SLOAD SWAP1 PUSH2 0x100 EXP SWAP1 DIV PUSH2 0xFFFF AND PUSH0 DUP1 SLOAD SWAP1 PUSH2 0x100 EXP SWAP1 DIV PUSH2 0xFFFF AND PUSH2 0x300 SWAP2 SWAP1 PUSH2 0x49F JUMP JUMPDEST PUSH2 0xFFFF AND SWAP1 POP SWAP1 JUMP JUMPDEST PUSH0 PUSH2 0xFFFF DUP3 AND SWAP1 POP SWAP2 SWAP1 POP JUMP JUMPDEST PUSH2 0x31F DUP2 PUSH2 0x309 JUMP JUMPDEST DUP3 MSTORE POP POP JUMP JUMPDEST PUSH0 PUSH1 0x20 DUP3 ADD SWAP1 POP PUSH2 0x338 PUSH0 DUP4 ADD DUP5 PUSH2 0x316 JUMP JUMPDEST SWAP3 SWAP2 POP POP JUMP JUMPDEST PUSH0 DUP2 SWAP1 POP SWAP2 SWAP1 POP JUMP JUMPDEST PUSH2 0x350 DUP2 PUSH2 0x33E JUMP JUMPDEST DUP3 MSTORE POP POP JUMP JUMPDEST PUSH0 PUSH1 0x20 DUP3 ADD SWAP1 POP PUSH2 0x369 PUSH0 DUP4 ADD DUP5 PUSH2 0x347 JUMP JUMPDEST SWAP3 SWAP2 POP POP JUMP JUMPDEST PUSH32 0x4E487B7100000000000000000000000000000000000000000000000000000000 PUSH0 MSTORE PUSH1 0x12 PUSH1 0x4 MSTORE PUSH1 0x24 PUSH0 REVERT JUMPDEST PUSH0 PUSH2 0x3A6 DUP3 PUSH2 0x309 JUMP JUMPDEST SWAP2 POP PUSH2 0x3B1 DUP4 PUSH2 0x309 JUMP JUMPDEST SWAP3 POP DUP3 PUSH2 0x3C1 JUMPI PUSH2 0x3C0 PUSH2 0x36F JUMP JUMPDEST JUMPDEST DUP3 DUP3 MOD SWAP1 POP SWAP3 SWAP2 POP POP JUMP JUMPDEST PUSH32 0x4E487B7100000000000000000000000000000000000000000000000000000000 PUSH0 MSTORE PUSH1 0x11 PUSH1 0x4 MSTORE PUSH1 0x24 PUSH0 REVERT JUMPDEST PUSH0 PUSH2 0x403 DUP3 PUSH2 0x309 JUMP JUMPDEST SWAP2 POP PUSH2 0x40E DUP4 PUSH2 0x309 JUMP JUMPDEST SWAP3 POP DUP3 DUP3 ADD SWAP1 POP PUSH2 0xFFFF DUP2 GT ISZERO PUSH2 0x428 JUMPI PUSH2 0x427 PUSH2 0x3CC JUMP JUMPDEST JUMPDEST SWAP3 SWAP2 POP POP JUMP JUMPDEST PUSH0 PUSH2 0x438 DUP3 PUSH2 0x309 JUMP JUMPDEST SWAP2 POP PUSH2 0x443 DUP4 PUSH2 0x309 JUMP JUMPDEST SWAP3 POP DUP3 DUP3 MUL PUSH2 0x451 DUP2 PUSH2 0x309 JUMP JUMPDEST SWAP2 POP DUP1 DUP3 EQ PUSH2 0x463 JUMPI PUSH2 0x462 PUSH2 0x3CC JUMP JUMPDEST JUMPDEST POP SWAP3 SWAP2 POP POP JUMP JUMPDEST PUSH0 PUSH2 0x474 DUP3 PUSH2 0x309 JUMP JUMPDEST SWAP2 POP PUSH2 0x47F DUP4 PUSH2 0x309 JUMP JUMPDEST SWAP3 POP DUP3 DUP3 SUB SWAP1 POP PUSH2 0xFFFF DUP2 GT ISZERO PUSH2 0x499 JUMPI PUSH2 0x498 PUSH2 0x3CC JUMP JUMPDEST JUMPDEST SWAP3 SWAP2 POP POP JUMP JUMPDEST PUSH0 PUSH2 0x4A9 DUP3 PUSH2 0x309 JUMP JUMPDEST SWAP2 POP PUSH2 0x4B4 DUP4 PUSH2 0x309 JUMP JUMPDEST SWAP3 POP DUP3 PUSH2 0x4C4 JUMPI PUSH2 0x4C3 PUSH2 0x36F JUMP JUMPDEST JUMPDEST DUP3 DUP3 DIV SWAP1 POP SWAP3 SWAP2 POP POP JUMP INVALID LOG2 PUSH5 0x6970667358 0x22 SLT KECCAK256 PUSH17 0x40EDA498234815943B741481E2A9F1F9A1 0xBD 0x24 0x4A 0x26 0xD1 PUSH4 0xA4FAF80 SWAP2 0xD2 0x2A DELEGATECALL PUSH5 0x736F6C6343 STOP ADDMOD EQ STOP CALLER "
				},
				"gasEstimates": {
					"creation": {
						"codeDepositCost": "257000",
						"executionCost": "48880",
						"totalCost": "305880"
					},
					"external": {
						"add()": "infinite",
						"div()": "infinite",
						"incrementado()": "infinite",
						"modulo()": "infinite",
						"mul()": "infinite",
						"reducido()": "infinite",
						"sub()": "infinite",
						"x()": "2464",
						"y()": "2538"
					}
				},
				"methodIdentifiers": {
					"add()": "4f2be91f",
					"div()": "f9fa48c3",
					"incrementado()": "b8ddc958",
					"modulo()": "29745262",
					"mul()": "58931c46",
					"reducido()": "683706b8",
					"sub()": "c54124be",
					"x()": "0c55699c",
					"y()": "a56dfe4a"
				}
			},
			"storageLayout": {
				"storage": [
					{
						"astId": 4,
						"contract": "contracts/tarea 1.sol:ArithmeticOperator",
						"label": "x",
						"offset": 0,
						"slot": "0",
						"type": "t_uint16"
					},
					{
						"astId": 7,
						"contract": "contracts/tarea 1.sol:ArithmeticOperator",
						"label": "y",
						"offset": 2,
						"slot": "0",
						"type": "t_uint16"
					}
				],
				"types": {
					"t_uint16": {
						"encoding": "inplace",
						"label": "uint16",
						"numberOfBytes": "2"
					}
				}
			},
			"userdoc": {
				"kind": "user",
				"methods": {},
				"version": 1
			}
		}
	}
}