{
	"contracts/artifacts/operadorRelacional.sol": {
		"OperadorRelacional": {
			"abi": [
				{
					"inputs": [],
					"name": "a",
					"outputs": [
						{
							"internalType": "uint16",
							"name": "",
							"type": "uint16"
						}
					],
					"stateMutability": "view",
					"type": "function"
				},
				{
					"inputs": [],
					"name": "b",
					"outputs": [
						{
							"internalType": "uint16",
							"name": "",
							"type": "uint16"
						}
					],
					"stateMutability": "view",
					"type": "function"
				},
				{
					"inputs": [],
					"name": "equal",
					"outputs": [
						{
							"internalType": "bool",
							"name": "",
							"type": "bool"
						}
					],
					"stateMutability": "view",
					"type": "function"
				},
				{
					"inputs": [],
					"name": "greaterOrEqual",
					"outputs": [
						{
							"internalType": "bool",
							"name": "",
							"type": "bool"
						}
					],
					"stateMutability": "view",
					"type": "function"
				},
				{
					"inputs": [],
					"name": "greaterThan",
					"outputs": [
						{
							"internalType": "bool",
							"name": "",
							"type": "bool"
						}
					],
					"stateMutability": "view",
					"type": "function"
				},
				{
					"inputs": [],
					"name": "lessOrEqual",
					"outputs": [
						{
							"internalType": "bool",
							"name": "",
							"type": "bool"
						}
					],
					"stateMutability": "view",
					"type": "function"
				},
				{
					"inputs": [],
					"name": "lessThan",
					"outputs": [
						{
							"internalType": "bool",
							"name": "",
							"type": "bool"
						}
					],
					"stateMutability": "view",
					"type": "function"
				},
				{
					"inputs": [],
					"name": "notEqual",
					"outputs": [
						{
							"internalType": "bool",
							"name": "",
							"type": "bool"
						}
					],
					"stateMutability": "view",
					"type": "function"
				}
			],
			"devdoc": {
				"kind": "dev",
				"methods": {},
				"version": 1
			},
			"evm": {
				"assembly": "    /* \"contracts/artifacts/operadorRelacional.sol\":60:675  contract OperadorRelacional {... */\n  mstore(0x40, 0x80)\n    /* \"contracts/artifacts/operadorRelacional.sol\":113:115  10 */\n  0x0a\n    /* \"contracts/artifacts/operadorRelacional.sol\":95:115  uint16 public a = 10 */\n  0x00\n  dup1\n  0x0100\n  exp\n  dup2\n  sload\n  dup2\n  0xffff\n  mul\n  not\n  and\n  swap1\n  dup4\n  0xffff\n  and\n  mul\n  or\n  swap1\n  sstore\n  pop\n    /* \"contracts/artifacts/operadorRelacional.sol\":140:142  30 */\n  0x1e\n    /* \"contracts/artifacts/operadorRelacional.sol\":122:142  uint16 public b = 30 */\n  0x00\n  exp(0x0100, 0x02)\n  dup2\n  sload\n  dup2\n  0xffff\n  mul\n  not\n  and\n  swap1\n  dup4\n  0xffff\n  and\n  mul\n  or\n  swap1\n  sstore\n  pop\n    /* \"contracts/artifacts/operadorRelacional.sol\":60:675  contract OperadorRelacional {... */\n  callvalue\n  dup1\n  iszero\n  tag_1\n  jumpi\n  0x00\n  dup1\n  revert\ntag_1:\n  pop\n  dataSize(sub_0)\n  dup1\n  dataOffset(sub_0)\n  0x00\n  codecopy\n  0x00\n  return\nstop\n\nsub_0: assembly {\n        /* \"contracts/artifacts/operadorRelacional.sol\":60:675  contract OperadorRelacional {... */\n      mstore(0x40, 0x80)\n      callvalue\n      dup1\n      iszero\n      tag_1\n      jumpi\n      0x00\n      dup1\n      revert\n    tag_1:\n      pop\n      jumpi(tag_2, lt(calldatasize, 0x04))\n      shr(0xe0, calldataload(0x00))\n      dup1\n      0x68644659\n      gt\n      tag_11\n      jumpi\n      dup1\n      0x68644659\n      eq\n      tag_7\n      jumpi\n      dup1\n      0x7295959a\n      eq\n      tag_8\n      jumpi\n      dup1\n      0xc8d0ca48\n      eq\n      tag_9\n      jumpi\n      dup1\n      0xe1ad5fbb\n      eq\n      tag_10\n      jumpi\n      jump(tag_2)\n    tag_11:\n      dup1\n      0x0dbe671f\n      eq\n      tag_3\n      jumpi\n      dup1\n      0x1e228514\n      eq\n      tag_4\n      jumpi\n      dup1\n      0x4df7e3d0\n      eq\n      tag_5\n      jumpi\n      dup1\n      0x5ba0b6e8\n      eq\n      tag_6\n      jumpi\n    tag_2:\n      0x00\n      dup1\n      revert\n        /* \"contracts/artifacts/operadorRelacional.sol\":95:115  uint16 public a = 10 */\n    tag_3:\n      tag_12\n      tag_13\n      jump\t// in\n    tag_12:\n      mload(0x40)\n      tag_14\n      swap2\n      swap1\n      tag_15\n      jump\t// in\n    tag_14:\n      mload(0x40)\n      dup1\n      swap2\n      sub\n      swap1\n      return\n        /* \"contracts/artifacts/operadorRelacional.sol\":151:227  function equal() public view returns (bool) {... */\n    tag_4:\n      tag_16\n      tag_17\n      jump\t// in\n    tag_16:\n      mload(0x40)\n      tag_18\n      swap2\n      swap1\n      tag_19\n      jump\t// in\n    tag_18:\n      mload(0x40)\n      dup1\n      swap2\n      sub\n      swap1\n      return\n        /* \"contracts/artifacts/operadorRelacional.sol\":122:142  uint16 public b = 30 */\n    tag_5:\n      tag_20\n      tag_21\n      jump\t// in\n    tag_20:\n      mload(0x40)\n      tag_22\n      swap2\n      swap1\n      tag_15\n      jump\t// in\n    tag_22:\n      mload(0x40)\n      dup1\n      swap2\n      sub\n      swap1\n      return\n        /* \"contracts/artifacts/operadorRelacional.sol\":411:489  function lessThan() public view returns (bool) {... */\n    tag_6:\n      tag_23\n      tag_24\n      jump\t// in\n    tag_23:\n      mload(0x40)\n      tag_25\n      swap2\n      swap1\n      tag_19\n      jump\t// in\n    tag_25:\n      mload(0x40)\n      dup1\n      swap2\n      sub\n      swap1\n      return\n        /* \"contracts/artifacts/operadorRelacional.sol\":235:314  function notEqual() public view returns (bool) {... */\n    tag_7:\n      tag_26\n      tag_27\n      jump\t// in\n    tag_26:\n      mload(0x40)\n      tag_28\n      swap2\n      swap1\n      tag_19\n      jump\t// in\n    tag_28:\n      mload(0x40)\n      dup1\n      swap2\n      sub\n      swap1\n      return\n        /* \"contracts/artifacts/operadorRelacional.sol\":590:672  function lessOrEqual() public view returns (bool) {... */\n    tag_8:\n      tag_29\n      tag_30\n      jump\t// in\n    tag_29:\n      mload(0x40)\n      tag_31\n      swap2\n      swap1\n      tag_19\n      jump\t// in\n    tag_31:\n      mload(0x40)\n      dup1\n      swap2\n      sub\n      swap1\n      return\n        /* \"contracts/artifacts/operadorRelacional.sol\":497:582  function greaterOrEqual() public view returns (bool) {... */\n    tag_9:\n      tag_32\n      tag_33\n      jump\t// in\n    tag_32:\n      mload(0x40)\n      tag_34\n      swap2\n      swap1\n      tag_19\n      jump\t// in\n    tag_34:\n      mload(0x40)\n      dup1\n      swap2\n      sub\n      swap1\n      return\n        /* \"contracts/artifacts/operadorRelacional.sol\":322:403  function greaterThan() public view returns (bool) {... */\n    tag_10:\n      tag_35\n      tag_36\n      jump\t// in\n    tag_35:\n      mload(0x40)\n      tag_37\n      swap2\n      swap1\n      tag_19\n      jump\t// in\n    tag_37:\n      mload(0x40)\n      dup1\n      swap2\n      sub\n      swap1\n      return\n        /* \"contracts/artifacts/operadorRelacional.sol\":95:115  uint16 public a = 10 */\n    tag_13:\n      0x00\n      dup1\n      sload\n      swap1\n      0x0100\n      exp\n      swap1\n      div\n      0xffff\n      and\n      dup2\n      jump\t// out\n        /* \"contracts/artifacts/operadorRelacional.sol\":151:227  function equal() public view returns (bool) {... */\n    tag_17:\n        /* \"contracts/artifacts/operadorRelacional.sol\":189:193  bool */\n      0x00\n        /* \"contracts/artifacts/operadorRelacional.sol\":218:219  b */\n      dup1\n      0x02\n      swap1\n      sload\n      swap1\n      0x0100\n      exp\n      swap1\n      div\n      0xffff\n      and\n        /* \"contracts/artifacts/operadorRelacional.sol\":213:219  a == b */\n      0xffff\n      and\n        /* \"contracts/artifacts/operadorRelacional.sol\":213:214  a */\n      0x00\n      dup1\n      sload\n      swap1\n      0x0100\n      exp\n      swap1\n      div\n      0xffff\n      and\n        /* \"contracts/artifacts/operadorRelacional.sol\":213:219  a == b */\n      0xffff\n      and\n      eq\n        /* \"contracts/artifacts/operadorRelacional.sol\":206:219  return a == b */\n      swap1\n      pop\n        /* \"contracts/artifacts/operadorRelacional.sol\":151:227  function equal() public view returns (bool) {... */\n      swap1\n      jump\t// out\n        /* \"contracts/artifacts/operadorRelacional.sol\":122:142  uint16 public b = 30 */\n    tag_21:\n      0x00\n      0x02\n      swap1\n      sload\n      swap1\n      0x0100\n      exp\n      swap1\n      div\n      0xffff\n      and\n      dup2\n      jump\t// out\n        /* \"contracts/artifacts/operadorRelacional.sol\":411:489  function lessThan() public view returns (bool) {... */\n    tag_24:\n        /* \"contracts/artifacts/operadorRelacional.sol\":452:456  bool */\n      0x00\n        /* \"contracts/artifacts/operadorRelacional.sol\":480:481  b */\n      dup1\n      0x02\n      swap1\n      sload\n      swap1\n      0x0100\n      exp\n      swap1\n      div\n      0xffff\n      and\n        /* \"contracts/artifacts/operadorRelacional.sol\":476:481  a < b */\n      0xffff\n      and\n        /* \"contracts/artifacts/operadorRelacional.sol\":476:477  a */\n      0x00\n      dup1\n      sload\n      swap1\n      0x0100\n      exp\n      swap1\n      div\n      0xffff\n      and\n        /* \"contracts/artifacts/operadorRelacional.sol\":476:481  a < b */\n      0xffff\n      and\n      lt\n        /* \"contracts/artifacts/operadorRelacional.sol\":469:481  return a < b */\n      swap1\n      pop\n        /* \"contracts/artifacts/operadorRelacional.sol\":411:489  function lessThan() public view returns (bool) {... */\n      swap1\n      jump\t// out\n        /* \"contracts/artifacts/operadorRelacional.sol\":235:314  function notEqual() public view returns (bool) {... */\n    tag_27:\n        /* \"contracts/artifacts/operadorRelacional.sol\":276:280  bool */\n      0x00\n        /* \"contracts/artifacts/operadorRelacional.sol\":305:306  b */\n      dup1\n      0x02\n      swap1\n      sload\n      swap1\n      0x0100\n      exp\n      swap1\n      div\n      0xffff\n      and\n        /* \"contracts/artifacts/operadorRelacional.sol\":300:306  a != b */\n      0xffff\n      and\n        /* \"contracts/artifacts/operadorRelacional.sol\":300:301  a */\n      0x00\n      dup1\n      sload\n      swap1\n      0x0100\n      exp\n      swap1\n      div\n      0xffff\n      and\n        /* \"contracts/artifacts/operadorRelacional.sol\":300:306  a != b */\n      0xffff\n      and\n      eq\n      iszero\n        /* \"contracts/artifacts/operadorRelacional.sol\":293:306  return a != b */\n      swap1\n      pop\n        /* \"contracts/artifacts/operadorRelacional.sol\":235:314  function notEqual() public view returns (bool) {... */\n      swap1\n      jump\t// out\n        /* \"contracts/artifacts/operadorRelacional.sol\":590:672  function lessOrEqual() public view returns (bool) {... */\n    tag_30:\n        /* \"contracts/artifacts/operadorRelacional.sol\":634:638  bool */\n      0x00\n        /* \"contracts/artifacts/operadorRelacional.sol\":663:664  b */\n      dup1\n      0x02\n      swap1\n      sload\n      swap1\n      0x0100\n      exp\n      swap1\n      div\n      0xffff\n      and\n        /* \"contracts/artifacts/operadorRelacional.sol\":658:664  a <= b */\n      0xffff\n      and\n        /* \"contracts/artifacts/operadorRelacional.sol\":658:659  a */\n      0x00\n      dup1\n      sload\n      swap1\n      0x0100\n      exp\n      swap1\n      div\n      0xffff\n      and\n        /* \"contracts/artifacts/operadorRelacional.sol\":658:664  a <= b */\n      0xffff\n      and\n      gt\n      iszero\n        /* \"contracts/artifacts/operadorRelacional.sol\":651:664  return a <= b */\n      swap1\n      pop\n        /* \"contracts/artifacts/operadorRelacional.sol\":590:672  function lessOrEqual() public view returns (bool) {... */\n      swap1\n      jump\t// out\n        /* \"contracts/artifacts/operadorRelacional.sol\":497:582  function greaterOrEqual() public view returns (bool) {... */\n    tag_33:\n        /* \"contracts/artifacts/operadorRelacional.sol\":544:548  bool */\n      0x00\n        /* \"contracts/artifacts/operadorRelacional.sol\":573:574  b */\n      dup1\n      0x02\n      swap1\n      sload\n      swap1\n      0x0100\n      exp\n      swap1\n      div\n      0xffff\n      and\n        /* \"contracts/artifacts/operadorRelacional.sol\":568:574  a >= b */\n      0xffff\n      and\n        /* \"contracts/artifacts/operadorRelacional.sol\":568:569  a */\n      0x00\n      dup1\n      sload\n      swap1\n      0x0100\n      exp\n      swap1\n      div\n      0xffff\n      and\n        /* \"contracts/artifacts/operadorRelacional.sol\":568:574  a >= b */\n      0xffff\n      and\n      lt\n      iszero\n        /* \"contracts/artifacts/operadorRelacional.sol\":561:574  return a >= b */\n      swap1\n      pop\n        /* \"contracts/artifacts/operadorRelacional.sol\":497:582  function greaterOrEqual() public view returns (bool) {... */\n      swap1\n      jump\t// out\n        /* \"contracts/artifacts/operadorRelacional.sol\":322:403  function greaterThan() public view returns (bool) {... */\n    tag_36:\n        /* \"contracts/artifacts/operadorRelacional.sol\":366:370  bool */\n      0x00\n        /* \"contracts/artifacts/operadorRelacional.sol\":394:395  b */\n      dup1\n      0x02\n      swap1\n      sload\n      swap1\n      0x0100\n      exp\n      swap1\n      div\n      0xffff\n      and\n        /* \"contracts/artifacts/operadorRelacional.sol\":390:395  a > b */\n      0xffff\n      and\n        /* \"contracts/artifacts/operadorRelacional.sol\":390:391  a */\n      0x00\n      dup1\n      sload\n      swap1\n      0x0100\n      exp\n      swap1\n      div\n      0xffff\n      and\n        /* \"contracts/artifacts/operadorRelacional.sol\":390:395  a > b */\n      0xffff\n      and\n      gt\n        /* \"contracts/artifacts/operadorRelacional.sol\":383:395  return a > b */\n      swap1\n      pop\n        /* \"contracts/artifacts/operadorRelacional.sol\":322:403  function greaterThan() public view returns (bool) {... */\n      swap1\n      jump\t// out\n        /* \"#utility.yul\":7:96   */\n    tag_44:\n        /* \"#utility.yul\":43:50   */\n      0x00\n        /* \"#utility.yul\":83:89   */\n      0xffff\n        /* \"#utility.yul\":76:81   */\n      dup3\n        /* \"#utility.yul\":72:90   */\n      and\n        /* \"#utility.yul\":61:90   */\n      swap1\n      pop\n        /* \"#utility.yul\":7:96   */\n      swap2\n      swap1\n      pop\n      jump\t// out\n        /* \"#utility.yul\":102:217   */\n    tag_45:\n        /* \"#utility.yul\":187:210   */\n      tag_51\n        /* \"#utility.yul\":204:209   */\n      dup2\n        /* \"#utility.yul\":187:210   */\n      tag_44\n      jump\t// in\n    tag_51:\n        /* \"#utility.yul\":182:185   */\n      dup3\n        /* \"#utility.yul\":175:211   */\n      mstore\n        /* \"#utility.yul\":102:217   */\n      pop\n      pop\n      jump\t// out\n        /* \"#utility.yul\":223:441   */\n    tag_15:\n        /* \"#utility.yul\":314:318   */\n      0x00\n        /* \"#utility.yul\":352:354   */\n      0x20\n        /* \"#utility.yul\":341:350   */\n      dup3\n        /* \"#utility.yul\":337:355   */\n      add\n        /* \"#utility.yul\":329:355   */\n      swap1\n      pop\n        /* \"#utility.yul\":365:434   */\n      tag_53\n        /* \"#utility.yul\":431:432   */\n      0x00\n        /* \"#utility.yul\":420:429   */\n      dup4\n        /* \"#utility.yul\":416:433   */\n      add\n        /* \"#utility.yul\":407:413   */\n      dup5\n        /* \"#utility.yul\":365:434   */\n      tag_45\n      jump\t// in\n    tag_53:\n        /* \"#utility.yul\":223:441   */\n      swap3\n      swap2\n      pop\n      pop\n      jump\t// out\n        /* \"#utility.yul\":447:537   */\n    tag_46:\n        /* \"#utility.yul\":481:488   */\n      0x00\n        /* \"#utility.yul\":524:529   */\n      dup2\n        /* \"#utility.yul\":517:530   */\n      iszero\n        /* \"#utility.yul\":510:531   */\n      iszero\n        /* \"#utility.yul\":499:531   */\n      swap1\n      pop\n        /* \"#utility.yul\":447:537   */\n      swap2\n      swap1\n      pop\n      jump\t// out\n        /* \"#utility.yul\":543:652   */\n    tag_47:\n        /* \"#utility.yul\":624:645   */\n      tag_56\n        /* \"#utility.yul\":639:644   */\n      dup2\n        /* \"#utility.yul\":624:645   */\n      tag_46\n      jump\t// in\n    tag_56:\n        /* \"#utility.yul\":619:622   */\n      dup3\n        /* \"#utility.yul\":612:646   */\n      mstore\n        /* \"#utility.yul\":543:652   */\n      pop\n      pop\n      jump\t// out\n        /* \"#utility.yul\":658:868   */\n    tag_19:\n        /* \"#utility.yul\":745:749   */\n      0x00\n        /* \"#utility.yul\":783:785   */\n      0x20\n        /* \"#utility.yul\":772:781   */\n      dup3\n        /* \"#utility.yul\":768:786   */\n      add\n        /* \"#utility.yul\":760:786   */\n      swap1\n      pop\n        /* \"#utility.yul\":796:861   */\n      tag_58\n        /* \"#utility.yul\":858:859   */\n      0x00\n        /* \"#utility.yul\":847:856   */\n      dup4\n        /* \"#utility.yul\":843:860   */\n      add\n        /* \"#utility.yul\":834:840   */\n      dup5\n        /* \"#utility.yul\":796:861   */\n      tag_47\n      jump\t// in\n    tag_58:\n        /* \"#utility.yul\":658:868   */\n      swap3\n      swap2\n      pop\n      pop\n      jump\t// out\n\n    auxdata: 0xa264697066735822122044190056c6e0aa6f9347e522123bf45483e059a60c1c77b65b59c2b8d07ebc7364736f6c63430008140033\n}\n",
				"bytecode": {
					"linkReferences": {},
					"object": "6080604052600a5f806101000a81548161ffff021916908361ffff160217905550601e5f60026101000a81548161ffff021916908361ffff160217905550348015610048575f80fd5b5061034d806100565f395ff3fe608060405234801561000f575f80fd5b5060043610610086575f3560e01c8063686446591161005957806368644659146101025780637295959a14610120578063c8d0ca481461013e578063e1ad5fbb1461015c57610086565b80630dbe671f1461008a5780631e228514146100a85780634df7e3d0146100c65780635ba0b6e8146100e4575b5f80fd5b61009261017a565b60405161009f91906102cb565b60405180910390f35b6100b061018b565b6040516100bd91906102fe565b60405180910390f35b6100ce6101b8565b6040516100db91906102cb565b60405180910390f35b6100ec6101cb565b6040516100f991906102fe565b60405180910390f35b61010a6101f8565b60405161011791906102fe565b60405180910390f35b610128610226565b60405161013591906102fe565b60405180910390f35b610146610254565b60405161015391906102fe565b60405180910390f35b610164610282565b60405161017191906102fe565b60405180910390f35b5f8054906101000a900461ffff1681565b5f8060029054906101000a900461ffff1661ffff165f8054906101000a900461ffff1661ffff1614905090565b5f60029054906101000a900461ffff1681565b5f8060029054906101000a900461ffff1661ffff165f8054906101000a900461ffff1661ffff1610905090565b5f8060029054906101000a900461ffff1661ffff165f8054906101000a900461ffff1661ffff161415905090565b5f8060029054906101000a900461ffff1661ffff165f8054906101000a900461ffff1661ffff161115905090565b5f8060029054906101000a900461ffff1661ffff165f8054906101000a900461ffff1661ffff161015905090565b5f8060029054906101000a900461ffff1661ffff165f8054906101000a900461ffff1661ffff1611905090565b5f61ffff82169050919050565b6102c5816102af565b82525050565b5f6020820190506102de5f8301846102bc565b92915050565b5f8115159050919050565b6102f8816102e4565b82525050565b5f6020820190506103115f8301846102ef565b9291505056fea264697066735822122044190056c6e0aa6f9347e522123bf45483e059a60c1c77b65b59c2b8d07ebc7364736f6c63430008140033",
					"opcodes": "PUSH1 0x80 PUSH1 0x40 MSTORE PUSH1 0xA PUSH0 DUP1 PUSH2 0x100 EXP DUP2 SLOAD DUP2 PUSH2 0xFFFF MUL NOT AND SWAP1 DUP4 PUSH2 0xFFFF AND MUL OR SWAP1 SSTORE POP PUSH1 0x1E PUSH0 PUSH1 0x2 PUSH2 0x100 EXP DUP2 SLOAD DUP2 PUSH2 0xFFFF MUL NOT AND SWAP1 DUP4 PUSH2 0xFFFF AND MUL OR SWAP1 SSTORE POP CALLVALUE DUP1 ISZERO PUSH2 0x48 JUMPI PUSH0 DUP1 REVERT JUMPDEST POP PUSH2 0x34D DUP1 PUSH2 0x56 PUSH0 CODECOPY PUSH0 RETURN INVALID PUSH1 0x80 PUSH1 0x40 MSTORE CALLVALUE DUP1 ISZERO PUSH2 0xF JUMPI PUSH0 DUP1 REVERT JUMPDEST POP PUSH1 0x4 CALLDATASIZE LT PUSH2 0x86 JUMPI PUSH0 CALLDATALOAD PUSH1 0xE0 SHR DUP1 PUSH4 0x68644659 GT PUSH2 0x59 JUMPI DUP1 PUSH4 0x68644659 EQ PUSH2 0x102 JUMPI DUP1 PUSH4 0x7295959A EQ PUSH2 0x120 JUMPI DUP1 PUSH4 0xC8D0CA48 EQ PUSH2 0x13E JUMPI DUP1 PUSH4 0xE1AD5FBB EQ PUSH2 0x15C JUMPI PUSH2 0x86 JUMP JUMPDEST DUP1 PUSH4 0xDBE671F EQ PUSH2 0x8A JUMPI DUP1 PUSH4 0x1E228514 EQ PUSH2 0xA8 JUMPI DUP1 PUSH4 0x4DF7E3D0 EQ PUSH2 0xC6 JUMPI DUP1 PUSH4 0x5BA0B6E8 EQ PUSH2 0xE4 JUMPI JUMPDEST PUSH0 DUP1 REVERT JUMPDEST PUSH2 0x92 PUSH2 0x17A JUMP JUMPDEST PUSH1 0x40 MLOAD PUSH2 0x9F SWAP2 SWAP1 PUSH2 0x2CB JUMP JUMPDEST PUSH1 0x40 MLOAD DUP1 SWAP2 SUB SWAP1 RETURN JUMPDEST PUSH2 0xB0 PUSH2 0x18B JUMP JUMPDEST PUSH1 0x40 MLOAD PUSH2 0xBD SWAP2 SWAP1 PUSH2 0x2FE JUMP JUMPDEST PUSH1 0x40 MLOAD DUP1 SWAP2 SUB SWAP1 RETURN JUMPDEST PUSH2 0xCE PUSH2 0x1B8 JUMP JUMPDEST PUSH1 0x40 MLOAD PUSH2 0xDB SWAP2 SWAP1 PUSH2 0x2CB JUMP JUMPDEST PUSH1 0x40 MLOAD DUP1 SWAP2 SUB SWAP1 RETURN JUMPDEST PUSH2 0xEC PUSH2 0x1CB JUMP JUMPDEST PUSH1 0x40 MLOAD PUSH2 0xF9 SWAP2 SWAP1 PUSH2 0x2FE JUMP JUMPDEST PUSH1 0x40 MLOAD DUP1 SWAP2 SUB SWAP1 RETURN JUMPDEST PUSH2 0x10A PUSH2 0x1F8 JUMP JUMPDEST PUSH1 0x40 MLOAD PUSH2 0x117 SWAP2 SWAP1 PUSH2 0x2FE JUMP JUMPDEST PUSH1 0x40 MLOAD DUP1 SWAP2 SUB SWAP1 RETURN JUMPDEST PUSH2 0x128 PUSH2 0x226 JUMP JUMPDEST PUSH1 0x40 MLOAD PUSH2 0x135 SWAP2 SWAP1 PUSH2 0x2FE JUMP JUMPDEST PUSH1 0x40 MLOAD DUP1 SWAP2 SUB SWAP1 RETURN JUMPDEST PUSH2 0x146 PUSH2 0x254 JUMP JUMPDEST PUSH1 0x40 MLOAD PUSH2 0x153 SWAP2 SWAP1 PUSH2 0x2FE JUMP JUMPDEST PUSH1 0x40 MLOAD DUP1 SWAP2 SUB SWAP1 RETURN JUMPDEST PUSH2 0x164 PUSH2 0x282 JUMP JUMPDEST PUSH1 0x40 MLOAD PUSH2 0x171 SWAP2 SWAP1 PUSH2 0x2FE JUMP JUMPDEST PUSH1 0x40 MLOAD DUP1 SWAP2 SUB SWAP1 RETURN JUMPDEST PUSH0 DUP1 SLOAD SWAP1 PUSH2 0x100 EXP SWAP1 DIV PUSH2 0xFFFF AND DUP2 JUMP JUMPDEST PUSH0 DUP1 PUSH1 0x2 SWAP1 SLOAD SWAP1 PUSH2 0x100 EXP SWAP1 DIV PUSH2 0xFFFF AND PUSH2 0xFFFF AND PUSH0 DUP1 SLOAD SWAP1 PUSH2 0x100 EXP SWAP1 DIV PUSH2 0xFFFF AND PUSH2 0xFFFF AND EQ SWAP1 POP SWAP1 JUMP JUMPDEST PUSH0 PUSH1 0x2 SWAP1 SLOAD SWAP1 PUSH2 0x100 EXP SWAP1 DIV PUSH2 0xFFFF AND DUP2 JUMP JUMPDEST PUSH0 DUP1 PUSH1 0x2 SWAP1 SLOAD SWAP1 PUSH2 0x100 EXP SWAP1 DIV PUSH2 0xFFFF AND PUSH2 0xFFFF AND PUSH0 DUP1 SLOAD SWAP1 PUSH2 0x100 EXP SWAP1 DIV PUSH2 0xFFFF AND PUSH2 0xFFFF AND LT SWAP1 POP SWAP1 JUMP JUMPDEST PUSH0 DUP1 PUSH1 0x2 SWAP1 SLOAD SWAP1 PUSH2 0x100 EXP SWAP1 DIV PUSH2 0xFFFF AND PUSH2 0xFFFF AND PUSH0 DUP1 SLOAD SWAP1 PUSH2 0x100 EXP SWAP1 DIV PUSH2 0xFFFF AND PUSH2 0xFFFF AND EQ ISZERO SWAP1 POP SWAP1 JUMP JUMPDEST PUSH0 DUP1 PUSH1 0x2 SWAP1 SLOAD SWAP1 PUSH2 0x100 EXP SWAP1 DIV PUSH2 0xFFFF AND PUSH2 0xFFFF AND PUSH0 DUP1 SLOAD SWAP1 PUSH2 0x100 EXP SWAP1 DIV PUSH2 0xFFFF AND PUSH2 0xFFFF AND GT ISZERO SWAP1 POP SWAP1 JUMP JUMPDEST PUSH0 DUP1 PUSH1 0x2 SWAP1 SLOAD SWAP1 PUSH2 0x100 EXP SWAP1 DIV PUSH2 0xFFFF AND PUSH2 0xFFFF AND PUSH0 DUP1 SLOAD SWAP1 PUSH2 0x100 EXP SWAP1 DIV PUSH2 0xFFFF AND PUSH2 0xFFFF AND LT ISZERO SWAP1 POP SWAP1 JUMP JUMPDEST PUSH0 DUP1 PUSH1 0x2 SWAP1 SLOAD SWAP1 PUSH2 0x100 EXP SWAP1 DIV PUSH2 0xFFFF AND PUSH2 0xFFFF AND PUSH0 DUP1 SLOAD SWAP1 PUSH2 0x100 EXP SWAP1 DIV PUSH2 0xFFFF AND PUSH2 0xFFFF AND GT SWAP1 POP SWAP1 JUMP JUMPDEST PUSH0 PUSH2 0xFFFF DUP3 AND SWAP1 POP SWAP2 SWAP1 POP JUMP JUMPDEST PUSH2 0x2C5 DUP2 PUSH2 0x2AF JUMP JUMPDEST DUP3 MSTORE POP POP JUMP JUMPDEST PUSH0 PUSH1 0x20 DUP3 ADD SWAP1 POP PUSH2 0x2DE PUSH0 DUP4 ADD DUP5 PUSH2 0x2BC JUMP JUMPDEST SWAP3 SWAP2 POP POP JUMP JUMPDEST PUSH0 DUP2 ISZERO ISZERO SWAP1 POP SWAP2 SWAP1 POP JUMP JUMPDEST PUSH2 0x2F8 DUP2 PUSH2 0x2E4 JUMP JUMPDEST DUP3 MSTORE POP POP JUMP JUMPDEST PUSH0 PUSH1 0x20 DUP3 ADD SWAP1 POP PUSH2 0x311 PUSH0 DUP4 ADD DUP5 PUSH2 0x2EF JUMP JUMPDEST SWAP3 SWAP2 POP POP JUMP INVALID LOG2 PUSH5 0x6970667358 0x22 SLT KECCAK256 PREVRANDAO NOT STOP JUMP 0xC6 0xE0 0xAA PUSH16 0x9347E522123BF45483E059A60C1C77B6 JUMPDEST MSIZE 0xC2 0xB8 0xD0 PUSH31 0xBC7364736F6C63430008140033000000000000000000000000000000000000 "
				},
				"gasEstimates": {
					"creation": {
						"codeDepositCost": "169000",
						"executionCost": "48794",
						"totalCost": "217794"
					},
					"external": {
						"a()": "2464",
						"b()": "2561",
						"equal()": "4697",
						"greaterOrEqual()": "4721",
						"greaterThan()": "4740",
						"lessOrEqual()": "4699",
						"lessThan()": "4741",
						"notEqual()": "4677"
					}
				},
				"methodIdentifiers": {
					"a()": "0dbe671f",
					"b()": "4df7e3d0",
					"equal()": "1e228514",
					"greaterOrEqual()": "c8d0ca48",
					"greaterThan()": "e1ad5fbb",
					"lessOrEqual()": "7295959a",
					"lessThan()": "5ba0b6e8",
					"notEqual()": "68644659"
				}
			},
			"storageLayout": {
				"storage": [
					{
						"astId": 4,
						"contract": "contracts/artifacts/operadorRelacional.sol:OperadorRelacional",
						"label": "a",
						"offset": 0,
						"slot": "0",
						"type": "t_uint16"
					},
					{
						"astId": 7,
						"contract": "contracts/artifacts/operadorRelacional.sol:OperadorRelacional",
						"label": "b",
						"offset": 2,
						"slot": "0",
						"type": "t_uint16"
					}
				],
				"types": {
					"t_uint16": {
						"encoding": "inplace",
						"label": "uint16",
						"numberOfBytes": "2"
					}
				}
			},
			"userdoc": {
				"kind": "user",
				"methods": {},
				"version": 1
			}
		}
	}
}